:020000040800F2
:10000000183000209D010008DF1F0008C91D0008EE
:10001000DD1F0008CF0200086B460008000000004A
:10002000000000000000000000000000FB200008AD
:10003000170300080000000031200008FD20000820
:10004000B7010008B7010008B7010008B7010008B0
:10005000B701000833200008B7010008B701000805
:10006000B7010008B7010008B7010008B701000890
:10007000B7010008B7010008B7010008B701000880
:10008000B7010008B7010008B7010008B701000870
:10009000B7010008B7010008B7010008B701000860
:1000A000B7010008B7010008B7010008B701000850
:1000B000B7010008B7010008B7010008B701000840
:1000C000B7010008B7010008B7010008B701000830
:1000D000B7010008B7010008B7010008B701000820
:1000E000B7010008B7010008B7010008B701000810
:1000F000B7010008B7010008B7010008B701000800
:10010000B7010008B7010008B7010008B7010008EF
:10011000B7010008B7010008B7010008B7010008DF
:10012000B7010008B7010008B7010008B7010008CF
:10013000B7010008B7010008B7010008B7010008BF
:10014000B7010008B7010008B70100082520000822
:10015000B7010008B7010008B7010008B70100089F
:10016000B7010008B7010008B7010008B70100088F
:10017000B7010008B7010008B7010008000000003F
:10018000B7010008B7010008DFF80CD000F06EF8E6
:1001900000480047296100081830002006488047C1
:1001A00006480047FEE7FEE7FEE7FEE7FEE7FEE75C
:1001B000FEE7FEE7FEE7FEE7B5210008890100083B
:1001C00040EA01039B0703D009E008C9121F08C0D9
:1001D000042AFAD203E011F8013B00F8013B521E59
:1001E000F9D27047D2B201E000F8012B491EFBD2D0
:1001F00070470022F6E710B513460A460446194632
:10020000FFF7F0FF204610BD2DE9F05F0546002006
:1002100092469B4688460646814640241BE0284677
:1002200041464746224600F042F853465A46C01A15
:10023000914110D311461846224600F029F82D1A94
:1002400067EB01084F4622460120002100F020F80C
:1002500017EB00094E41201EA4F10104DFDC4846E3
:1002600031462A464346BDE8F09F0000064C074D44
:1002700006E0E06840F0010394E807009847103476
:10028000AC42F6D3FFF784FF74660008946600085A
:10029000202A04DB203A00FA02F100207047914046
:1002A000C2F1200320FA03F3194390407047202A3B
:1002B00004DB203A21FA02F00021704721FA02F310
:1002C000D040C2F120029140084319467047FEE732
:1002D00010B500210A4600EB8103491CC3F87C23BA
:1002E0000F29F8D300214FF400734418491C84F8F7
:1002F0001C219942F9D30270427001218170C0F82B
:10030000B823017640238371427680F81C2380F85D
:100310001D13002010BD7047002200F001B800003E
:1003200030B50E4B054601205C7A012C15D8587A61
:1003300000241C54587A03EB800045605D7A03F179
:1003400008002A54587A421C5A72303008703A20F9
:1003500048702F208870CC70002030BD9C02002097
:10036000002229B101291FD0022920D04FF4407268
:1003700010490B6823F440730B600B6813430B6048
:100380000A6822F0F8020A600A68F82393FAA3F3D5
:10039000B3FA83F3984040F0020002430A60086811
:1003A00040F48030086070474FF48072E0E74FF40B
:1003B0000072DDE7103C02401348016889050FD543
:1003C000016821F400710160016841F4006101607D
:1003D000016821F400610160016841F4007101606D
:1003E000016849050FD5016821F480610160016849
:1003F00041F480510160016821F48051016001687D
:1004000041F4806101607047003C024008490A687D
:1004100022F440720A600A6842F004020A600A6824
:100420004FF4803343EA002002430A607047000023
:10043000103C0240064A136823F4407313601368AB
:100440001360136843F001031360017070470000EC
:10045000103C0240084910B50C6824F440740C604C
:100460000C6844F440740C600C6844F001040C60A7
:100470000260436010BD0000103C0240074A136850
:1004800023F440731360136843F48073136013689C
:1004900043F001031360018070470000103C0240EC
:1004A000074A136823F440731360136843F400731E
:1004B0001360136843F0010313600160704700008C
:1004C000103C024017490868C206174805D5C269A2
:1004D00042F01002C26110220A600A68920605D535
:1004E000C26942F00802C26120220A600A6852060C
:1004F00005D5C26942F00402C26140220A600A685E
:10050000120605D5C26942F00202C26180220A6069
:100510000A68920705D5C26942F02002C261022032
:10052000086070470C3C02406400002070B511491F
:1005300004460020C86100F011FA05460E4E09E09D
:10054000601C07D024B100F009FA401BA04201D979
:10055000032070BD3068C003F2D43068C00701D0FA
:1005600001203060306810F0F200F2D0FFF7AAFFEF
:10057000012070BD640000200C3C02401C498842F0
:1005800001D2002070471B49884201D201207047E8
:100590001949884201D2022070471849884201D285
:1005A000032070471649884201D20420704715493C
:1005B000884201D2052070471349884201D20620A3
:1005C00070471249884201D207207047104988427B
:1005D00001D2082070470F49884201D20920704794
:1005E0000D49884201D20A2070470B207047000055
:1005F000004000080080000800C00008000001085A
:1006000000000208000004080000060800000808B6
:1006100000000A0800000C0800000E0831B500F0C8
:100620009DF9009C0546601C00D0641C00F096F902
:10063000401BA042FAD338BD2DE9F04704462248BA
:100640000E46017E01290AD00121804601764CF236
:1006500050394846FFF76AFF020003D02FE002201E
:10066000BDE8F0874FF0FF3030602068174F012859
:1006700001D0A5681CE0207C6168FFF7C7FE4846F2
:10068000FFF754FF0246386820F00400386014E099
:10069000217C2846FFF764FE4846FFF747FF02002B
:1006A000386820F0FA00386001D0356005E06D1C34
:1006B000D4E902100844A842EAD8FFF77DFE0021E1
:1006C00088F818101046CBE764000020103C024068
:1006D0000348016841F000410160002070470000BC
:1006E000103C02402DE9F0471B4E05461446307E73
:1006F0001F468946012808D0012030764CF2503838
:100700004046FFF713FF18B114E00220BDE8F08760
:100710009DB1012D16D0022D19D022463B464846E8
:10072000FFF798FE4046FFF701FF0C490A6822F0E8
:1007300001020A6000213176E8E7E1B24846FFF79E
:1007400079FEEFE7A1B24846FFF798FEEAE72146B7
:100750004846FFF7A5FEE5E764000020103C024094
:1007600006480068002807DA044805490C3801608B
:10077000044901600020704701207047103C02408E
:1007800023016745AB89EFCD2DE9F84FDFF88C9158
:10079000002209F1040A0AF1040B4FF00F080BF1D3
:1007A000040E01260B6896403340B34271D14C6869
:1007B000022C01D0122C11D1D40800EB84073D6A21
:1007C0005407E40E08FA04FC25EA0C05D1F810C021
:1007D0000CFA04FC4CEA050CC7F820C0076854006A
:1007E000032591F804C0A5400CF0030CAF430CFAAC
:1007F00004FC4CEA070CC0F800C04F68012F05D07C
:10080000022F03D0112F01D0122F11D18768D1F8F8
:100810000CC0AF430CFA04FC4CEA070CC0F808C04B
:100820004768B7430E79C6F3001696403E434660CC
:10083000C668AE438D68A5403543C5604C68E4008A
:1008400065D5374C256845F480452560246822F03D
:10085000030504F480440094324C2E19D6F808782D
:100860009407250F08FA05F4A7432F4CA04201D1A5
:10087000002424E02D4CA04201D101241FE02C4C87
:10088000A04201D102241AE02A4CA04202D1032442
:1008900015E03CE0284CA04201D104240FE0274C95
:1008A000A04201D105240AE0254CA04201D1062432
:1008B00005E0244CA04201D1072400E00824AC400C
:1008C0003C43C6F80848D9F800404D464E689C4362
:1008D000F60300D51C432C60DAF8004055464E68FC
:1008E0009C43B60300D51C432C60DBF800405D46FA
:1008F0004E689C43F60200D51C432C60DEF8004095
:1009000075464E689C43B60200D51C432C60521CB1
:10091000102AFFF446AFBDE8F88F0000003C01400C
:100920004438024000300140000002400004024010
:1009300000080240000C0240001002400014024077
:1009400000180240001C02400069084000D001204D
:1009500070470AB1816170470904FBE701480068EC
:100960007047000004000020D0F8940202F0B0B8F4
:10097000D0F8940202F0C0B8006803F097BA00689B
:1009800003F098BA01EB810100EBC10090F85C0024
:10099000704701EB810100EBC100C06C704710B5DE
:1009A000044690F89002012809D0012084F89002B2
:1009B000206803F08AFA002084F8900210BD02201B
:1009C00010BDFEB50546DDE9096095F89042089F27
:1009D000012C1ED0012485F8904201EB810405EB27
:1009E000C40402F07F0C04F8383F20816170E67186
:1009F00084F802C04FEAD21C84F803C02771009724
:100A0000CDE90160286803F004FB002185F890120D
:100A1000FEBD0220FEBD70472DE9F0030D46DDE965
:100A200006C9DDE9087601EB850100EBC10102246E
:100A300081F83B2081F83F30BCF1000F0BD081F8EA
:100A400042404FF000085BB1012B3ED0022B1CD07E
:100A5000032B29D11FE04FF0030881F84280F0E713
:100A6000BCF1010F20D1FAB987B9012281F85120D8
:100A700002E081F8428001E081F8424091F85C2078
:100A8000022A11D081F83D600EE02AB991F8512078
:100A9000002AF1D1EDE712B191F8502001E091F870
:100AA000512092B181F84240C1E9119781F85C80F0
:100AB000C1F84C8081F8395081F85D80027C006873
:100AC000BDE8F003383103F01DBB81F84280EBE74D
:100AD0002DE9F041066804460025304603F0F1F99F
:100AE00001287DD1206803F014FD002878D020680B
:100AF00003F00FFD800203D521684FF40010486118
:100B0000206803F006FDC00203D521684FF4801071
:100B10004861206803F0FDFC400103D521684FF0D7
:100B200080604861206803F0F4FC800702D52168EA
:100B300002204861206803F0ECFC800010D5D6F854
:100B4000400420F02E00C6F840042046FFF710FFB6
:100B50000121206803F0C2FC21684FF00050486179
:100B6000206803F0D6FCC00102D5204601F09DF8B4
:100B7000206803F0CEFC000705D5204600F0ABF856
:100B8000216808204861206803F0C3FC80011FD55C
:100B9000206803F0B1FA07464FF0010811E008FAA7
:100BA00005F038420CD006EB4510D0F80005E9B24C
:100BB0000004204602D500F054FE01E000F06AFF78
:100BC0006D1CA068A842EAD821684FF00070486107
:100BD000206803F09EFCC0060ED52068816900E005
:100BE0000AE021F010018161204601F0B5F820688B
:100BF000816941F010018161BDE8F08130B58BB0B1
:100C0000040026D0032084F89102204600F024F846
:100C1000206803F0E7F804F1100128220D46684629
:100C2000FFF7CEFA94E80F0003F08CF8012120685A
:100C300003F099FC282229466846FFF7C1FA94E898
:100C40000F0003F023FB012084F8910200200BB079
:100C500030BD0120FBE7000000B5006887B0B0F1AF
:100C6000A04F2ED118480021026842F00102026014
:100C7000006800F0010005904FF4C0500090022081
:100C8000CDE9010103900A20049069460F48FFF75F
:100C90007BFD0D48001D016841F0800101600A489C
:100CA0001430016841F4804101600068002200F4C2
:100CB000804005900521432000F0B0F8432000F06B
:100CC000A1F807B000BD000030380240000002402B
:100CD000006803F032BCD0F8940201F057BF10B5A1
:100CE000044690F8900201280DD0012084F890026B
:100CF000206803F0B3F80121206803F099F8002080
:100D000084F8900210BD022010BD10B5044690F882
:100D10009002012809D0012084F89002206803F095
:100D200038FC002084F8900210BD022010BD0000A5
:100D300002480168491C016070470000040000205F
:100D40000B4810B5016841F400710160016841F47D
:100D500080610160016841F480710160032000F04E
:100D60007DF8002000F006F800F018F8002010BD13
:100D7000003C024010B5044607484FF47A71006801
:100D8000B0FBF1F000F093FC00222146501E00F071
:100D900045F8002010BD00000000002010B5032021
:100DA00000F05CF8002211466FF00B0000F036F8FE
:100DB000002211466FF00A0000F030F800221146C0
:100DC0006FF0090000F02AF800221146501F00F0D1
:100DD00025F800221146101F00F020F800221146CD
:100DE000901E00F01BF800221146501E00F016F86D
:100DF00000221146052000F011F8BDE81040052042
:100E0000AFF3008000F01F020121914040098000F3
:100E100000F1E020C0F8001170470000F0B40E4B64
:100E20001B68C3F30223C3F10704042C00D9042474
:100E30001D1D072D01D2002300E0DB1E012606FA4E
:100E400004F56D1E0D409D409E40761E164045EAFD
:100E50000601F0BC01F0C4B80CED00E0064A00F059
:100E6000070110684FF6FF03184040EA01200349CC
:100E700008431060704700000CED00E00000FA0528
:100E80002DE9F843044600684FF00109C1074FF00F
:100E9000000501D1400732D5DFF82481C8F8685039
:100EA000FFF75CFD0646474F04E0FFF757FD801B48
:100EB000022863D838680001F7D447F6C07191FA68
:100EC000A1F16068B1FA81F188404FF0E04292FAF6
:100ED000A2F2A168B2FA82F2914008433949843102
:100EE0000860C8F86890FFF739FD064604E0FFF790
:100EF00035FD801B022841D838680001F7D52078DD
:100F0000800752D52F484030016841F08051016080
:100F100000682D4F00F080500090386840F48070D9
:100F20003860FFF71BFD064604E0FFF717FD801B46
:100F3000022823D83868C005F7D5224E70363068AD
:100F400010F4407020D0A18901F4407181421BD07F
:100F500030681E4920F44070C1F800900D60306088
:100F60003068C00710D0FFF7F9FC054641F288371A
:100F700007E0FFF7F3FC401BB84202D90320BDE8AD
:100F8000F88330688007F4D5E0680E49C0F3012289
:100F90000831032A0BD0086820F4F8100860306884
:100FA000A189C1F30B01084330600020E7E70A681C
:100FB000074B22F4F812184002430A60EFE70000E2
:100FC000000047420038024000700040400E474297
:100FD000FFFCFF0F2DE9F047DFF85C9104460E4659
:100FE000D9F8000000F00F01F0B28046B14207D2FC
:100FF00089F80000D9F8000000F00F00B04271D16C
:1010000020784E4F800705D53868A16820F0F000A1
:10101000084338602078C00756D0484960680839CE
:1010200001281AD002281BD0032819D00968890783
:10103000002957DA396821F0030101433960FFF7CD
:101040008DFC0546606841F28831012811D00228E4
:101050001CD003288A4625D032E009688903E7E7D7
:1010600009688901E4E7FFF779FC411B514501D983
:1010700023E08A463868C0F381000128F3D123E0D9
:10108000FFF76CFC411B514501D916E08A463868D0
:10109000C0F381000228F3D116E0FFF75FFC411B8B
:1010A00051450AD83868C0F381000328F5D10BE018
:1010B000FFF754FC411B514502D90320BDE8F087DE
:1010C000386810F00C0FF3D1D9F80010484601F041
:1010D0000F01B14208D980F80080006800F00F00CD
:1010E000B04201D00120E9E72078400705D53868F3
:1010F000E16820F4E050084338602078000706D506
:101100003868216920F4604040EAC100386000F08E
:1011100057F83968F02292FAA2F201F0F001B2FA1F
:1011200082F2D140064A515CC8400649086000205E
:10113000FFF720FE0020C1E7003C024008380240D3
:10114000FA6500080000002001490120C8647047CA
:10115000000047420148006870470000000000207E
:1011600008480949006809684FF4E05292FAA2F26F
:1011700001F4E051B2FA82F2D140044A515CC84015
:101180007047000000000020083802400A6600088E
:1011900008480949006809684FF4604292FAA2F2CF
:1011A00001F46041B2FA82F2D140044A515CC84075
:1011B0007047000000000020083802400A6600085E
:1011C00030B51948006810F00C01184812D04410CE
:1011D00004290ED008290DD1134A121F1168136873
:1011E00001F03F015D0247F6C07304D5B4FBF1F096
:1011F00003E0204630BDB0FBF1F01168194093FACE
:10120000A3F3B3FA83F3D940484311684FF4403253
:1012100092FAA2F201F44031B2FA82F2D140491CB2
:101220004900B0FBF1F030BD083802400024F40062
:101230002DE9F84F04460078DFF8F4A2BD4DC00751
:1012400048D0DAF800105046C1F38101012908D0D6
:101250000068C0F3810002280AD1281D00684002FE
:1012600006D52868800335D56068002870D031E045
:101270006068B0F5803F10D0B0F5A02F286810D07E
:1012800020F480302860286820F48020286060687E
:10129000A0B1FFF763FB06460CE0286840F48030FD
:1012A000F4E740F480202860F7E7FFF757FB801B46
:1012B000642873D828688003F7D50BE0FFF74EFB4E
:1012C000064604E0FFF74AFB801B6428F1D8286833
:1012D0008003F7D42078DFF8608280074FF0010B9D
:1012E0004FF0000943D5DAF80010504611F00C0F0A
:1012F0004FF0F80709D00068C0F3810002280BD135
:101300008B48001F0068400206D42868800713D568
:10131000E06801281CD10FE0E068D0B1C8F800B047
:10132000FFF71CFB064604E0FFF718FB801B0228B2
:10133000BFD828688007F7D5286897FAA7F22169EF
:10134000B2FA82F220F0F8009140084328600EE0E3
:10135000EBE0C8F80090FFF701FB064604E0FFF75A
:10136000FDFA801B022819D828688007F7D4207856
:10137000000722D56E4F714861696C3779B1C0F8AA
:1013800000B0FFF7EBFA064604E0FFF7E7FA801B30
:10139000022803D838688007F7D50EE079E0C0F856
:1013A0000090FFF7DBFA064604E0FFF7D7FA801B50
:1013B00002286ED838688007F7D42078400750D5C7
:1013C0005B483830016841F08051016000685C4F33
:1013D00000F080500090386840F480703860FFF76B
:1013E000BDFA064604E0FFF7B9FA801B022850D880
:1013F0003868C005F7D54E4FA068683701280FD070
:101400000528386810D020F001003860386820F0D6
:1014100004003860A068B0B1FFF7A0FA06460EE0FD
:10142000386840F00100F4E740F004003860F7E766
:10143000FFF794FA811B41F2883081426DD83868F9
:101440008007F5D50DE0FFF789FA064606E0FFF7BD
:1014500085FA811B41F2883081425ED83868800766
:10146000F5D4A069F0B3DAF80010C1F381010229C4
:101470005BD00228484605D0C8F86000FFF76EFA36
:1014800004464DE04746C8F86000FFF767FA064695
:1014900005E042E0FFF762FA801B02283DD8286889
:1014A0008001F7D4D4E90701084347F6C07292FAE5
:1014B000A2F2616AB2FA82F29140A26A4FF0FF335F
:1014C00003EB52024FF4403393FAA3F3B3FA83F3DE
:1014D0009A4011434FF0706292FAA2F20843B2FAB6
:1014E00082F200E01FE0E16A914008431049091FC1
:1014F0000860C7F860B0FFF731FA044604E0FFF770
:101500002DFA001B022808D828688001F7D50AE0C8
:10151000FFF724FA001B022802D90320BDE8F88F48
:1015200028688001F4D40020F8E70120F6E70000E5
:10153000083802400038024000004742800E47420F
:101540000070004010B500680B4641680D4801402E
:10155000080CD870C1F304245C7001F03F049C7047
:10156000C1F34231197052B900F064FDD870587857
:1015700000F060FD5870987800F05CFD98700020D5
:1015800010BD00003FFFFF0010B50B460168896ADF
:10159000596001680969C1F30E019960006801682A
:1015A0000E480140C1F305401870C1F306245C7079
:1015B00001F07F049C70402404EA1141D97052B9B3
:1015C00000F038FD1870587800F034FD58709878A5
:1015D00000F030FD9870002010BD00007F7F7F007C
:1015E00070B5040002D0607F10B106E0012070BD2C
:1015F00000202077204600F041F802206077216823
:10160000CA204862216853204862204600F01BFD32
:10161000FF210028206803D0416204206077E5E7BD
:101620008268154B1A4082602068826863681A439A
:10163000D4E904352B431A4382602268E0681061C4
:1016400020680269238942EA034202612068C26875
:1016500022F08002C2602068026C22F480220264C0
:101660002068026CA3691A43026420684162012069
:101670006077002070BD0000BFFF8FFF0068034946
:10168000884202D1024901200860704700280040CA
:101690003C0E47424FF0E0210428086903D020F0B7
:1016A00004000861704740F00400FAE7704710B585
:1016B000401EB0F1807F01D3012010BD4FF0E02427
:1016C00060610F21601700F08BFC0020A0610720F3
:1016D0002061002010BD10B5FFF7E8FF10BD70B508
:1016E000040004D094F83900002510B106E0012070
:1016F00070BD84F83850204600F022F8242084F889
:1017000039002068C16821F40051C160204600F012
:101710007BFD2068016921F49041016120684169E5
:1017200021F02A0141612068C16841F40051C16083
:10173000E563202084F8390084F83A00002070BD69
:1017400010B586B0044614216846FEF752FD1349D1
:101750002068884220D11248016841F010010160E0
:10176000006800F0100005900D481438016841F041
:10177000020101600068694600F002000590C02087
:101780000090022001900120029003200390072086
:1017900004900448FEF7F8FF06B010BD00100140A9
:1017A00044380240000402402DE9F843044690F812
:1017B00039001E4617460D46202850D1A5B19FB1CD
:1017C00094F8380001284AD0012084F838004FF0FE
:1017D0000008C4F83C80212084F83900FFF7BEF8E7
:1017E000A7848146E78426E00120BDE8F883E08CE9
:1017F000401EE084A0684B46B0F5805F4FF00002C9
:101800004FF080012046009603D000F053FEE8B967
:101810000DE000F04FFEC8B928882168C0F3080029
:101820004860206908B16D1C05E0AD1C03E021682B
:1018300015F8010B4860E08C0028D8D14B460022F7
:1018400040212046009600F035FE08B10320CCE789
:10185000202084F8390084F838800020C5E7022071
:10186000C3E72DE9F05F06460068884600EB4814A0
:10187000D4F808054FF0040B410708EB88004FF03F
:10188000050A4FF0100706EBC00508D5C4F808B5E7
:10189000D4F80C0540F00200C4F80C0532E0D4F88E
:1018A0000805800601D520202AE0D4F808054FF06D
:1018B0000809000710D5D4F80C0540F00200C4F860
:1018C0000C0585F85DA0C4F80875C4F80895414674
:1018D000306802F0FAFA15E0D4F80805400511D591
:1018E000D4F80C0540F00200C4F80C0541463068FD
:1018F00002F0EBFAC4F8087585F85D904FF480604B
:10190000C4F80805D4F8080580050ED5D4F80C05F0
:1019100040F00200C4F80C05414604F5A1643068AB
:1019200002F0D3FA4FF400708DE0D4F808054FF0C0
:101930000001C0074FF0010236D0306930B1A86C09
:10194000D4F81035C3F31203C01AE86485F85D209B
:10195000A965C4F8082595F83F0020B1022802D0F7
:1019600003280ED019E0D4F80C0540F00200C4F8AA
:101970000C05414604F5A164306802F0A6FA276020
:101980000BE0D4F8000540F00050C4F8000585F8DD
:101990005C2041463046FFF73EF815F8500F80F0C6
:1019A00001002870BDE8F09FD4F80805800733D502
:1019B000D4F80C0520F00200C4F80C0595F85D0081
:1019C0000223012806D0052807D0062808D00828B9
:1019D00006D018E085F85C2015E085F85CA012E0E0
:1019E000A86D421CAA65032803D9A96585F85CB0D7
:1019F00001E085F85C30D4F8000520F0804040F02C
:101A00000040C4F80005C4F8083595F85C2041464C
:101A10003046FFF700F8C5E7D4F80805000614D5EE
:101A2000D4F80C0540F00200C4F80C05A86D41463E
:101A3000401CA865062085F85D0004F5A1643068A7
:101A400002F043FA80202060ACE7D4F80805C00615
:101A5000A8D595F83F00032809D1D4F80C0540F02B
:101A60000200C4F80C054146306802F02EFA03204B
:101A700085F85D00C4F8087595F83F0008B10228A4
:101A800090D1D4F8000520F0804040F00040C4F828
:101A9000000587E72DE9F047026802EB4114D4F80E
:101AA00008254FF0040C520709D5C4F808C5D4F82E
:101AB0000C0540F00200C4F80C05BDE8F087D4F82E
:101AC000082501EB810392064FF0020600EBC305E7
:101AD00014D52022C4F8082595F83D20012AECD120
:101AE00085F85DC0D4F80C2542F00202C4F80C253C
:101AF000006802F0EAF985F85C60DEE7D4F80825B2
:101B00004FF0000352060FD585F85DC0AB65D4F8E1
:101B10000C2542F00202C4F80C25006804F5A1640B
:101B200002F0D3F9402010E0D4F8082592050ED534
:101B3000D4F80C2542F00202C4F80C25006804F524
:101B4000A16402F0C2F94FF400702060B5E7D4F848
:101B500008254FF00108D20710D0AB65D4F80C254A
:101B600042F00202C4F80C25006804F5A16402F0FA
:101B7000ACF9C4F8008085F85D809EE7D4F80825AC
:101B80004FF0080912074FF0050A0DD5C4F8089563
:101B9000D4F80C2542F00202C4F80C25006802F0CB
:101BA00094F985F85DA088E7D4F808254FF0100770
:101BB000D20610D5AB65D4F80C2542F00202C4F869
:101BC0000C25006804F5A16402F07FF9032085F874
:101BD0005D00276071E7D4F8082512060FD5D4F808
:101BE0000C2542F00202C4F80C25006804F5A1643B
:101BF00002F06BF9062085F85D008020A5E7D4F897
:101C00000825520511D5D4F80C2542F00202C4F87B
:101C10000C25006804F5A16402F057F927604FF421
:101C20008060206085F85D9047E7D4F8082592072A
:101C30008CD5D4F80C2522F00202C4F80C2595F8B6
:101C40005D20012A0AD0032A26D0042A13D0052AAF
:101C500016D0062A17D0082A15D01FE085F85C8018
:101C600095F83F20022A19D195F8512082F00102FF
:101C700085F8512012E085F85C6085F83D300DE074
:101C800085F85CA00AE0AA6D571CAF65032A03D94A
:101C9000AB6585F85CC001E085F85C60C4F8086558
:101CA00095F85C20FEF7B7FE07E77CB504680546AB
:101CB000D4F840040190D4F8400420F02E000090A5
:101CC000019880070DD50198C00706D0A06920F0C3
:101CD0000051A1612846FEF747FE009840F002003F
:101CE0000090019800072CD5009840F00800009063
:101CF000019840071AD5A869022803D0E86803288C
:101D00000CD00FE00198C0F341400228286803D0AE
:101D1000012102F0E3FB05E00221FAE74EF6602024
:101D2000C4F804042846FEF71FFE0AE0D4F8400475
:101D300020F02E00C4F840042868816941F0005169
:101D4000816101988006009802D540F02000009043
:101D5000C4F840047CBD00002DE9F0410246006853
:101D60000746016AC1F3434301F00F06C1F30A15A8
:101D7000022B25D1002D23D006EB860102EBC104F6
:101D8000616C00291CD02A4602F0C7FB606C284415
:101D90006064E06C2844E06407EB4610D0F810154E
:101DA000084A11420CD0D0F8001521F0804141F0D2
:101DB0000041C0F8001514F8500F80F001002070A9
:101DC000BDE8F0810000F81FFEE7000010B58CB000
:101DD000002205A92548FFF7D7FB00220AA92348BE
:101DE000FFF7B0FB9DF82830214C9DF814009DF8BA
:101DF000162054F823309DF815108DE80F009DF83B
:101E00002A309DF829209DF82B101AA002F02EFCF4
:101E1000132221A1224803F0E7FAA4F10801487037
:101E20001F48D0F80C1203F078F99DF828309DF87F
:101E300014009DF8162054F8233001AC9DF81510BD
:101E400084E80F009DF82A0000909DF829309DF845
:101E50002B2014A1124803F097FB114803F048F916
:101E60001EA002F003FC0CB010BD0000CC0A002044
:101E70003800002032302532642D2532642D253281
:101E800064092532643A2532643A25326409252DE5
:101E90003973090D0A0000006C6F672E74787400A6
:101EA000A00800200D0A32302532642D2532642D21
:101EB000253264092532643A2532643A25326409B0
:101EC000252D3973097570677261646520737563B8
:101ED0006365737366756C0D0A00000061646420AD
:101EE0006C6F670D0A00000030B587B0142168469A
:101EF000FEF77FF919480024016841F010010160E4
:101F0000016801F010010591016841F08001016054
:101F1000016801F080010591016841F00201016052
:101F200000680F4D00F0020005900022C0212846F5
:101F3000FEF70FFD0720CDE900046946284602940C
:101F4000FEF722FCC02000900120CDE90104694683
:101F500028460394FEF718FC07B030BD3038024025
:101F6000001002400C4810B50A49016000217F2290
:101F7000C0E90112FF22C0E9032141618161FFF73D
:101F80002FFB002804D0BDE8104004A002F06EBB77
:101F900010BD000000280040CC0A0020426F6F7482
:101FA0006C6F6164657220525443206572726F7267
:101FB0000D0A00000848074901604FF4E131416013
:101FC000002181600C22C160C0E904128161C161FD
:101FD000FFF785BB001001403C130020FEE770476F
:101FE0000907090E002806DA00F00F0000F1E020D2
:101FF00080F8141D704700F1E02080F8001470474D
:10200000BFF34F8F05480168054A01F4E0611143B1
:102010000160BFF34F8F00BFFDE700000CED00E053
:102020000400FA050148FEF753BD00007C1B0020A8
:1020300070477047010901EB810100F00F0000EBD0
:102040004100C0B2704770B505460068C1684906D6
:1020500013D44FF0FF31C160FEF780FC04464FF40B
:102060007A7606E0FEF77AFC001BB04201D9032025
:1020700070BD2868C0684006F4D5002070BD2DE909
:10208000F04786B04FF0000817460E460446CDF8DC
:102090001480B0F1006F2DD3A0072BD1FEF760FBA9
:1020A000254604EB87074FF001094FF0020A11E0C3
:1020B0002868401C0DD02846CDF80080FEF75EFA57
:1020C00002AA05A982E801066846FEF7B5FA08B13A
:1020D0000CE02D1DBD42EBD308E000232146022079
:1020E0003268FEF7FFFA18B9241D361DBC42F4D33E
:1020F000FEF7EEFA06B0BDE8F087704710B5FEF7C0
:1021000017FEBDE81040FFF7E6BA000030B52748DB
:1021100097B00025016841F080510160006800F02F
:10212000805015902248016841F4804101600068A8
:10213000022400F4804015900120009000040190DA
:102140008001CDE90640082008904FF4A870CDE941
:10215000090407200B906846FFF76AF80CA90F20C6
:1021600081E831004FF4A0500F90E002109005215B
:102170000CA8FEF72FFFFEF7E7FFE0011490119483
:1021800011A8FEF77DFEFEF7E5FF4FF47A71B0FB74
:10219000F1F0FFF78CFA0420FFF77CFA00221146D9
:1021A000501EFEF73BFE17B030BD00004038024025
:1021B000007000401048016841F4700101600F4850
:1021C000016841F0010101600C4A002108321160F0
:1021D00002680B4B1A400260031D0A4A1A6002682B
:1021E00022F48022026005480C3001600249580642
:1021F000803908607047000088ED00E00038024038
:10220000FFFFF6FE103000242DE9F041044600687F
:10221000016921F44052E168114301612068C168FD
:1022200049F20C6291432369A268E5691A43636924
:102230002B431A430A43C26020684169A26921F412
:1022400040710A434261E0696425B0F5004F974A46
:10225000974920684FF032083FD0884201D0904221
:102260007CD1FEF795FF00EBC00101EB0010616827
:102270008900B0FBF1F6FEF78BFF00EBC00101EB2C
:10228000001061688900B0FBF1F0B0FBF5F06FF071
:102290001801484306EB800108EB0110B0FBF5F094
:1022A00000F0F006FEF774FF00EBC00101EB001038
:1022B00061688900B0FBF1F0B0FBF5F006EB0016A9
:1022C000FEF766FF00EBC00101EB001061688900BA
:1022D000B0FBF1F7FEF75CFFD2E0884201D09042FC
:1022E0003DD1FEF755FF00EBC00101EB0010616826
:1022F0004900B0FBF1F0B0FBF5F00601FEF748FF36
:1023000000EBC00101EB001061684900B0FBF1F780
:10231000FEF73EFF00EBC00101EB001061684900D1
:10232000B0FBF1F0B0FBF5F06FF01801484307EB9C
:10233000800108EBC100B0FBF5F000F0F80006EBFF
:102340004006FEF725FF00EBC00101EB00106168BD
:102350004900B0FBF1F7FEF71BFF3CE055E0FEF74C
:10236000FFFE00EBC00101EB001061684900B0FB0B
:10237000F1F0B0FBF5F00601FEF7F2FE00EBC00154
:1023800001EB001061684900B0FBF1F7FEF7E8FED1
:1023900000EBC00101EB001061684900B0FBF1F0F7
:1023A000B0FBF5F06FF01801484307EB800108EB34
:1023B000C100B0FBF5F000F0F80006EB4006FEF7B8
:1023C000CFFE00EBC00101EB001061684900B0FBDB
:1023D000F1F7FEF7C5FE00EBC00101EB00106168EC
:1023E0004900B0FBF1F0B0FBF5F06FF01801484385
:1023F00007EB800108EBC100B0FBF5F000F007002F
:10240000216830448860BDE8F081FEF7A9FE00EB4A
:10241000C00101EB001061688900B0FBF1F6FEF726
:102420009FFE00EBC00101EB001061688900B0FB6A
:10243000F1F0B0FBF5F06FF01801484306EB8001B6
:1024400008EB0110B0FBF5F000F0F006FEF788FE97
:1024500000EBC00101EB001061688900B0FBF1F0F6
:10246000B0FBF5F006EB0016FEF77AFE00EBC001BC
:1024700001EB001061688900B0FBF1F7FEF770FE18
:1024800000EBC00101EB001061688900B0FBF1F0C6
:10249000B0FBF5F06FF01801484307EB800108EB43
:1024A0000110B0FBF5F000F00F00A9E700140140A7
:1024B000001001402DE9F0411E46174688460446AB
:1024C000069D1CE0681C1AD025B1FEF747FA801B58
:1024D000A84214D92068C16821F4D071C160206875
:1024E000416921F001014161202084F8390084F81C
:1024F0003A00002084F838000320BDE8F08120680D
:10250000016838EA010004D00020B842DAD0002087
:10251000F3E70120F9E730B5034600224FF6FF74D8
:1025200003EB8205B5F87C532D0404D5521CD2B2BE
:102530000B2AF5D32246A24205D003EB820041F4D8
:102540000041C0F87C13D0B230BD7FB501250DF13C
:10255000040C002400958CE816001E4602232A462F
:10256000314600F09FFB04B0002070BD7FB51D46D2
:102570000C4690F81D33089903B100210123CDE9E1
:102580000221CDE9003402230022294600F08AFB13
:1025900004B0002070BD10B500F08AFA002010BD14
:1025A0008278012A07D10222027401224274002299
:1025B00042828182C2820022114600F011B87FB5AA
:1025C000002401250DF1040C00958CE816001E4630
:1025D00023462A46314600F065FB04B0002070BD5A
:1025E00070B504460120A3780546012B09D0022BC3
:1025F00006D1204600F00CF948B1022800D1A570A0
:1026000070BDA160A28125760221A17070BDA57068
:102610000021217670BD7FB51D460C4690F81D3314
:10262000089903B100210123CDE90034CDE902214D
:1026300000231A46294600F035FB04B0002070BD87
:102640007FB500230824CDE900311546CDE90243CA
:102650001A46294600F026FB04B0002070BDFDF7A5
:10266000DDBF70B5002400F2323004EB840505EBC9
:10267000C40500EB4505EE7B0A358E4201D0FF29EB
:1026800009D1AE79964201D0FF2A04D1ED799D425D
:1026900007D0FF2B05D0641C64B2022CE5DBFF20C1
:1026A00070BDE0B270BD0B2907D200EB8100B0F81D
:1026B0007C13C1F30E01C0F87C130020704730B4C6
:1026C0000C4685780299012D0FD144F080040474E2
:1026D0000624447403244282B4EB122F02D140F248
:1026E000094200E000228282C1820A4630BC1946BB
:1026F000FFF776BF0A8803781A440A8001780844F5
:102700007047F8B50E4600F11C05009104462B46B3
:102710004FF400720021FFF7D2FF070005D13246C7
:10272000294604F2323001F0E0F83846F8BD38B5F9
:102730000D460091044600F58E734FF4807200211F
:10274000FFF7BDFF02003DD104F5487094F81C115D
:10275000017094F81D11417094F81E1194F81F3106
:10276000082D01EB0321418094F82011017194F8A8
:102770002111417194F82211817194F82311C171D2
:1027800020D994F8241194F8253101EB032101811B
:1027900094F8261194F8273101EB0321418194F834
:1027A000281194F8293101EB0321818194F82A1131
:1027B000817394F82B11C17394F82C11017494F85F
:1027C0002D114174104638BDF8B51E4614460093CD
:1027D00041F4407200F58E731D460021FFF76FFF34
:1027E000002814D16978032911D129788A1EB242B0
:1027F00000DC16460021B2B2AD1C04E06B5C891C03
:1028000004F8013B89B29142F8D300212170F8BD50
:102810002DE9F84F04460125007E0B262F464FF088
:1028200009084FF007094FF0050B4FF00D0A0C286F
:102830001ED2DFE800F0A9060E212C38445C677830
:102840008495627904F110012046FFF7F9FE022019
:102850000DE06179204600F095F9012877D1207CC0
:10286000E18A00F0800021B180283BD1032020764E
:102870008AE0802814D02FE0D4F8B803E0812379CF
:10288000A2892046A168FFF79AFE0420EFE721798C
:10289000204600F077F9012802D0052841D056E003
:1028A00084F8188070E000976379A2892046A168B7
:1028B000FFF7B1FED4F8B803E0810620D7E76179CD
:1028C000204600F05FF9012806D0052807D002282D
:1028D00008D0042809D057E084F8189054E00C2060
:1028E00020761EE084F818B04EE026764BE00022F9
:1028F000237911462046FFF762FED4F8B803E08141
:102900000820B4E72179204600F03CF9012804D0E2
:10291000042823D0052804D036E084F818A0002528
:1029200032E0032530E0009700226379114620460B
:10293000FFF771FED4F8B803E0810A2097E76179C8
:10294000204600F01FF9012804D00228A8D004284E
:1029500004D019E0002584F818A015E0267613E0CD
:10296000607E401CC0B26076022805D8204600F088
:1029700089F92776A77007E0D4F8C42306212046FA
:1029800090470020607602252846BDE8F88FFEB506
:1029900004460125407800262F4604F58E7208284B
:1029A0006CD2DFE800F004161D434A535762082139
:1029B0002046FFF7BCFE002860D194F82703A071E1
:1029C000677094F81D130091CDE9016094F81C33F1
:1029D00019E012212046FFF7AAFE30BB022033E0A7
:1029E0000121204601F0C2F8F8B90220FFF737FEB6
:1029F00084F81C7303206070A07994F81D13CDE94E
:102A000000163B46029021798022204600F063FFA9
:102A1000A07994F81D130091CDE9016094F81C335E
:102A200061790022204600F056FF27E00921204668
:102A3000FFF767FE10BB042006E0B4F8341320460D
:102A4000FFF75FFED0B90520607017E094F82E13F1
:102A5000062602E094F82F13072621B1FF23204613
:102A6000FFF7B2FE50B9667008E094F8301321B158
:102A7000FF232046FFF7A8FE00B900252846FEBD2B
:102A800070B50D46040011D084F8BC230020C4F8B2
:102A90007403C4F878032046FDF71AFC0DB1C4F89E
:102AA000C453204600F082F8002070BD022070BDA3
:102AB00010B50024D0F8C003FDF771FF30B1012834
:102AC00001D0022801D0022400E00124204610BDDC
:102AD00010B5017819B10178012909D00AE0012166
:102AE00080F81E13D0F8C42322B10421904701E0DE
:102AF00002210170002010BD10B5044600F0C2F89C
:102B000021792046FFF7CFFD61792046FFF7CBFD05
:102B1000002084F81E03D4F8C42312B105212046F6
:102B20009047204600F09EF803202070002010BD42
:102B300010B5C820FDF772FD002010BDD0F8C0030D
:102B4000FDF727BF10B50124D0F8C003FDF717FF2C
:102B500020B1012805D0022803D101E0002400E0C3
:102B60000224204610BDD0F8C00301EB810100EB28
:102B7000C10090F83B1011B190F85000704790F8E8
:102B800051007047D0F8C003FDF7FCBED0F8B81371
:102B9000491CC0F8B81301780A2905D1D0F874137C
:102BA000002901D0896908477047000010B5044624
:102BB00090F8BC03012819D10D484FF0A041002224
:102BC000C0F89442C4F8C003016008218160032169
:102BD000C0E903120221C0E90612FEF70FF804480B
:102BE000FDF7CAFE0146204600F029F8002010BD7E
:102BF0007C1B0020FEB508AC94E8E0008DE8E00006
:102C00000024D0F8C003FDF7DCFE30B1012801D06C
:102C1000022801D0022400E001242046FEBD10B5A8
:102C20000024D0F8C003FEF753F830B1012801D0DA
:102C3000022801D0022400E00124204610BDC0F883
:102C4000B8137047D0F8C00301EB810100EBC1005D
:102C500090F83B1011B180F8502001E080F851202D
:102C60000020704710B50024D0F8C003FEF737F8F5
:102C700030B1012801D0022801D0022400E0012453
:102C8000204610BD10B50024D0F8C003FEF73DF873
:102C900030B1012801D0022801D0022400E0012433
:102CA000204610BD2DE9FF410AAC94E8E0108DE804
:102CB000E0100024D0F8C003FDF7AEFE30B10128CB
:102CC00001D0022801D0022400E0012404B02046F3
:102CD000BDE8F08103460220D3F87413C9692AB114
:102CE000012A05D189791846FFF75ABCC979FAE754
:102CF00070470000D0F874030549C0694165054973
:102D00008165012100F8501F81700020704700008C
:102D100055534243504030202DE9F84F0646D0F835
:102D2000740301252F46C4694FF00B0A4FF00A0BBC
:102D300094F850004FF009094FF007080C2845D2CD
:102D4000DFE800F0DC0611252E4852757EB1B9D5BA
:102D500084F86110022084F85000009763791F22E4
:102D600004F1540159E061793046FFF70BFF012867
:102D700002D002287ED03FE0E06D002829D094F8F0
:102D80006000000601D503204BE0052049E02379CF
:102D900062893046D4F88C10FFF7D7FB042040E05E
:102DA00021793046FFF7EEFE01284FD16289E06DB0
:102DB00090420CD9D4F88C10801A1144C4F88C10AD
:102DC000E06575D023793046FFF7BFFB96E0002021
:102DD000E0656DE00097637922893046D4F88C1065
:102DE000FFF7C4FB06201CE061793046FFF7CAFEFE
:102DF000012804D00228C8D0052815D07EE02289F9
:102E0000E06D9042E3D9D4F88C10801A1144C4F8D4
:102E10008C10E0654CD0009763793046FFF7A6FB35
:102E20006CE084F8500069E084F850B066E02379E3
:102E30000D2204F178013046FFF787FB0820F0E708
:102E400021793046FFF79EFE012802D0052827D0C1
:102E500054E004F8507F3046A770D6F8741301246C
:102E6000CD692979FFF76AFE0D2813D12549A86F8E
:102E7000884200E040E00DD1A96DE86F88420AD198
:102E800095F8840020B1012805D0022802D002E084
:102E9000002400E002240CB102252FE000252DE0E3
:102EA00084F850902AE000223046FFF713FF38B92B
:102EB00084F8508022E001223046FFF70BFF10B16A
:102EC000042811D01AE061793046FFF74CFEC0F1BA
:102ED0000100C2B261793046FFF7B4FE21790022C9
:102EE0003046FFF7AFFEDBE784F850A006E030463F
:102EF00000F015F8050001D184F850702846BDE8AF
:102F0000F88F000055534253A1220274FE224274EE
:102F10000022428282820122C282FFF761BB21210C
:102F20000174FF214174002141828182C1820A46DD
:102F3000FFF756BB70B50246D0F874030125C4698B
:102F4000A07B20B1022802D0032829D121E021460C
:102F50001046FFF7D9FF00220546032801D015B11E
:102F60001EE00025226020780021401C0223206002
:102F70000BE001EB810000EBC10004EB8000491C79
:102F800080F8923080F8C120C9B220688842F0D819
:102F900006E000211046FFF703FB08B9E07BA073B1
:102FA000284670BD10B51446D0F874230078D36954
:102FB0000A2801D0022010BD01EB810000EBC10006
:102FC00003EB8001342220469031FDF7F9F8002010
:102FD00010BD70B50546D0F874030026C469617948
:102FE00039B12846FFF7D7FA61792846FFF75BFB2E
:102FF0006671217939B12846FFF7CDFA2179284643
:10300000FFF751FB2671D5F87403C06920B102F0B7
:1030100041FFD5F87403C661002070BDFEB50546BA
:10302000D0F8740302245023017906222846FFF7C2
:1030300018FB0146FF287DD0284600F08CFDE001FA
:1030400003F0FCF8D5F874130446C86195F81F0323
:1030500000EB800101EBC00005EB400090F8480355
:1030600001060CD5E07195F81F0300EB800101EB20
:10307000C00005EB4000B0F84A0360810BE0A0718E
:1030800095F81F0300EB800101EBC00005EB400049
:10309000B0F84A03208195F81F0300EB800101EB93
:1030A000C00005EB400090F8500301060CD5E0711C
:1030B00095F81F0300EB800101EBC00005EB400019
:1030C000B0F8520360810BE0A07195F81F0300EB8C
:1030D000800101EBC00005EB4000B0F852032081F5
:1030E0000020A4F8F800A4F8FA0020736073A0731D
:1030F000A1792846FFF70FFA6071E1792846FFF7BA
:103100000AFA20712846FFF7F5FD682104F19000C6
:10311000FDF76FF8208995F81D1302260091CDE97F
:10312000016095F81C33A2796179284600F0D3FB41
:10313000608900E016E095F81D130091CDE901606B
:1031400095F81C33E2792179284600F0C4FB2179F7
:1031500000222846FFF776FD617900222846FFF716
:1031600071FD00242046FEBD2DE9F0470546D0F84C
:1031700074034FF0010AC469207B10B101287DD18E
:1031800035E1B4F8F800216801264FF000088842C4
:1031900075D200EB800101EBC00004EB8000022738
:1031A00080F89160B4F8F8004FF0050900EB800159
:1031B00001EBC00104EB810292F8901009295DD265
:1031C000DFE801F0055C26910CBA5C5CF20004209B
:1031D00082F89000D5F8B803C4F8FC00B4F8F80001
:1031E00000EB800101EBC00104EB8102C1B2284673
:1031F0009F3200F08BF940B9B4F8F80000EB800181
:1032000001EBC00004EB8000B8E002287DD09BE019
:10321000C1B2284600F0A2FA10B1022833D093E0E0
:10322000B4F8F80000EB800101EBC00004EB800073
:1032300090F8921011B180F8C16001E080F8C1806F
:10324000B4F8F800032100EB800202EBC00004EBAD
:10325000800080F89010B4F8F80000EB800202EBD8
:10326000C00004EB800080F89180B4F8F80000EB17
:10327000800202EBC00004EB800001E0B9E0ADE0A9
:1032800080F89280B5E0B4F8F80000EB800101EB23
:10329000C00004EB800090F89210022902D080F860
:1032A000C16001E080F8C180B4F8F80000EB800252
:1032B00002EBC00004EB800080F89090B4F8F800B6
:1032C00000EB800101EBC00004EB800080F891600E
:1032D000B4F8F80000EB800101EBC00004EB8000C3
:1032E00080F8927085E0C1B22846943200F0AEF9C1
:1032F00000288AD1B4F8F80000EB800101EBC0008F
:1033000004EB800080F8906000E00AE0B4F8F80078
:1033100000EB800202EBC00004EB800080F891809B
:1033200031E0B4F8F80000EB800202EBC00004EBDF
:10333000800080F890905CE0C1B228469C3200F09A
:10334000C4F920B1022823D004282ED051E0B4F8CB
:10335000F80000EB800101EBC00004EB800090F866
:103360009C10062901D002290BD1D5F8B813D4F846
:10337000FC20891A42F21072914202D280F89070B9
:1033800037E080F8906034F8F80F401C208030E07F
:10339000B4F8F800082100EB800202EBC00004EB57
:1033A000800080F8901024E014E0B4F8F80000EBFE
:1033B000800101EBC00004EB800080F89060B4F85D
:1033C000F80000EB800101EBC00004EB800080F806
:1033D00091700EE0401CA4F8F8000AE0A4F8F88010
:1033E0002673D5F8C42302212846904701E04FF008
:1033F000000A5046BDE8F0872DE9F843D0F8742361
:1034000001EB810303EBC103D269012502EB8304C5
:10341000082794F890202E46052A21D000234FF04B
:103420000508062A02D0072A29D10BE000930023C1
:103430001A4600F0CDF80AE002280ED017E084F812
:1034400090701BE0009300231A4600F0ADF90028AD
:10345000F2D184F89060002511E084F890800EE0AD
:1034600004F19C0200F031F920B1022807D00428B1
:10347000E5D004E004F8906F022060700225284631
:10348000BDE8F8832DE9F8430446D0F87403089E9C
:103490008846C56994F81E0360B120780A2809D1CE
:1034A00001EB810101EBC80005EB800090F8901062
:1034B000012902D00220BDE8F8830621297380F893
:1034C0009010A5F8FA8041462046009600F080F85A
:1034D000D4F8B87340F271204FF00109464308E078
:1034E000D4F8B803C01BB0EB061F0CD894F81E0329
:1034F00048B141462046FFF77FFF0128F0D085F80C
:103500000C900020D7E785F80C90D3E770B51546EE
:103510000246D0F874030226C46994F852000128C8
:1035200002D0022852D128E024228020E26584F8CB
:1035300060000A2084F862000020C4F86300C4F828
:103540006700A4F86B00122384F86330490184F803
:10355000641084F8650084F8660084F8672084F8B5
:103560006800012084F85000022084F8520004F121
:1035700010000126C4F88C0028E01046FFF7CCFBB1
:10358000060023D122212846FCF733FE54F88C0F85
:103590001022007800F01F00687020680078400951
:1035A000287020684078C009A87020688168C5F834
:1035B0000310C068C5F80700216805F10C00103140
:1035C000FCF7FEFD2068006AC5F81D00304670BD9E
:1035D0002DE9F0411F4603461546D3F87423022017
:1035E000069ED46994F85220012A06D0022A2BD1D3
:1035F000BDE8F0411846FFF78FBB7002E065802000
:1036000084F860000A2084F86200102104F163004D
:10361000FCF7EFFD282084F86300280E84F865008D
:10362000280C84F86600280A84F8670084F868503B
:10363000300A84F86A0084F86B60012004F8500FA7
:103640000220A0700120E763BDE8F08170B5164646
:103650000246D0F874030125C46994F85200012889
:1036600002D002282FD11AE00820E065802084F8DB
:1036700060000A2084F86200102104F16300FCF766
:10368000B8FD252084F86300012084F85000022052
:1036900084F8520004F11000C4F88C0013E01046C6
:1036A000FFF73AFB05000ED154F88C0F41884278A1
:1036B00049BA007862F31F4141EA00603060206837
:1036C000C08840BAB080284670BD70B51546024625
:1036D0000E46D2F874130220CC6994F852100129D6
:1036E00014D0022911D131461046FFF715FB0028EE
:1036F0000BD154F88C1F897801F00F0129702168D3
:10370000097B69702168497BA97070BD0E258020F6
:10371000E56584F860000A2084F86200102104F155
:103720006300FCF766FD032084F86300700184F8F1
:103730006400002084F8650084F8660084F867500F
:1037400084F86800012084F85000022084F85200B8
:1037500004F11000C4F88C00012070BD70B5034660
:103760000220D3F87423D46994F85220012A06D099
:10377000022A18D1BDE870401846FFF7CDBA0025DF
:10378000E56584F860500A2084F86200102104F195
:103790006300FCF72EFD84F86350012004F8500FFD
:1037A0000220A070012070BD2DE9F0411F460346A4
:1037B0001546D3F874230220069ED46994F852204B
:1037C000012A06D0022A2BD1BDE8F0411846FFF7A6
:1037D000A3BA7002E065002084F860000A2084F833
:1037E0006200102104F16300FCF703FD2A2084F835
:1037F0006300280E84F86500280C84F86600280A07
:1038000084F8670084F86850300A84F86A0084F805
:103810006B60012004F8500F0220A0700120E763C4
:10382000BDE8F08100207047D0F874230078D26999
:103830000A2808D101EB810000EBC10002EB8000F7
:1038400090F8910008B100207047012070472DE9E1
:10385000F8430446D0F87403089E8846C56994F876
:103860001E0360B120780A2809D101EB810101EB28
:10387000C80005EB800090F89010012902D00220CA
:10388000BDE8F8830721297380F89010A5F8FA8025
:10389000414620460096FFF787FFD4F8B87340F200
:1038A00071204FF00109464308E0D4F8B803C01B6B
:1038B000B0EB061F0CD894F81E0348B141462046D1
:1038C000FFF79AFD0128F0D085F80C900020D7E78B
:1038D00085F80C90D3E7FEB508AF97E870008DE847
:1038E0007000FFF787F90020FEBD2DE9F84105467D
:1038F0000B782B704B786B708B78CC78084603EB89
:1039000004236B800B792B714B796B718B79AB71C5
:10391000CB79EB710027017A2972092A57D909213D
:10392000ADF800104EE06946FEF7E4FE4178042948
:1039300046D107EB870101EBC70105EB4108017890
:1039400088F80A10417888F80B10817888F80C10F4
:10395000C17888F80D10017988F80E10417988F83F
:103960000F10817988F81010C17908F10A0488F8DD
:103970001110017A2172002618E06946FEF7BAFE9E
:103980004178052912D108EBC60102780A75427800
:103990004A7582788A75C278CA7502794379761C2D
:1039A00002EB03220A8382798A7676B22179B142C8
:1039B00004DD6988BDF800209142DED87F1C7FB20B
:1039C000022F04DA6988BDF800209142ABD8BDE827
:1039D000F881FEB5044602208DF800002178002011
:1039E00008270C2605460B2913D2DFE801F006A4B0
:1039F0001399A4428250575F920094F81E03002846
:103A000007D001202070C820FEF729FE2046FFF7CE
:103A100006F990E06420FEF722FE2046FFF792F8B8
:103A200084F81D030520207000212046FEF773FD59
:103A3000607180212046FEF76EFD2071A17994F817
:103A40001D230092CDE90151014694F81C338022D8
:103A50002046FFF740FFA07994F81D130091CDE9AF
:103A6000015094F81C33617900222046FFF733FFA0
:103A700061E02046FEF78BFFD0BB84F81F5394F81B
:103A80003103012801D007203FE0277053E0D4F82C
:103A9000C4236AB3012120469047F6E794F8371310
:103AA000204600F071F818BB09202EE0D4F87813F6
:103AB000F1B1C4F8745394F8412304EB8001D1F8B8
:103AC00070130B79934201D1C4F87413401C10F0A9
:103AD000FF00F2D0D4F87403C8B18168204688474B
:103AE000A8B906202070D4F8C423032120469047AB
:103AF00021E0D4F8740350B10169204688478DF85D
:103B000000009DF80000B0B90A20207013E0267074
:103B100011E0D4F8740370B14169204688470AE087
:103B20002046FCF7D5FBD4F8740320B1C1682046C9
:103B30008847C4F874530020FEBD0246002011B12E
:103B4000D2F878330BB1022070470123C2F87833E2
:103B5000C2F8701370470246002092F836338B4249
:103B600002D982F81F137047022070478278012A19
:103B700006D1002202740523437441828282C282EC
:103B800000221146FEF72CBD8278012A06D10022C0
:103B900002740923437441828282C2820022114648
:103BA000FEF71EBD10B50446FFF75CF80121204664
:103BB000FEF7BEFF002010BD01290AD005480229EA
:103BC00005D0042905D0052903D1022100E00121F7
:103BD00001707047300000200020704730B58DB074
:103BE0001546012449B1012909D0022910D0032921
:103BF0000ED004240DB0204630BD0024FAE7014663
:103C00006A460948FFF7CEF90028F3D1019808E089
:103C100001466A460448FFF7C5F90028EAD1BDF815
:103C200008002860E9E70000A80200202DE9F04321
:103C300081468FB01C4616460D46880713D00127D3
:103C40004FF40078641E26D33219154B49461548A7
:103C50000097FFF717FC68B905EB4420424610496E
:103C6000FCF7AEFAEEE700930B4649460D48FFF726
:103C700009FC80B101AA49460A48FFF793F99DF86B
:103C80001100042809D0282807D03A2805D001209F
:103C90000FB0BDE8F0830020FAE70320F8E700004A
:103CA00084000020A802002010B50146012403482A
:103CB000FFF7BAFD00B10024204610BDA802002085
:103CC0002DE9F04381460D4600208FB01C46164674
:103CD000890714D001274FF40078641E15D305EB33
:103CE000442142461548FCF76BFA3219134B4946FA
:103CF00013480097FFF7ABFD0228EED107E00093D1
:103D00002B4649460E48FFF7A2FD00280FD001AA16
:103D100049460B48FFF746F99DF8110004280BD0DF
:103D2000272807D0282807D03A2805D001200FB02F
:103D3000BDE8F0830220FAE70320F8E784000020C2
:103D4000A802002070B50446049D0D99069801282C
:103D50000CD0E06840F04000E060204600F028F819
:103D60004FF48030A063012D16D01DE0A06B20F42D
:103D70008030A063E0680D4A1040E060E06820F405
:103D80004010E060012903D1E06840F48010E06059
:103D9000204600F00DF8E6E7A06840F00600A060BD
:103DA000A06840F02000A060002070BDBFFFBDFFF4
:103DB00000210B4A491C91420AD80369002BF9DA09
:103DC0000021036943F001030361491C914201D9B9
:103DD000032070470369DB07F7D10020704700001C
:103DE000400D0300816821F00101816000207047CF
:103DF00030B50246012400230C4800EAC44040F0DC
:103E0000004502F5A06000EB4110056102F5A060DD
:103E100000EB4110036823F0804343F0004302F5B8
:103E2000A06000EB41100360002030BD0000F81FCF
:103E300008B5D0F8402422F02E020092D20405D416
:103E4000012909D1009941F4805103E021B9009979
:103E500021F48051C0F84014002008BD816841F071
:103E60000101816000207047002110220261054A93
:103E7000491C914201D9032070470369DB06F7D43E
:103E800000207047400D03000022202343EA8111E7
:103E900001610549521C8A4201D903207047036918
:103EA0009B06F7D400207047400D0300D0F80804AB
:103EB00080B2704708B5D0F840040090C0F341408C
:103EC00008BD406900F00100704710B502460023AC
:103ED00002F5A06000EB41100068C0F3814040B1E2
:103EE00002F5A06000EB41100068C0F38140022899
:103EF00046D102F5A06000EB4110006840F080441C
:103F000002F5A06000EB41100460D06A00F47F006D
:103F100048BB02F5A06000EB4110006820F00044AF
:103F200002F5A06000EB4110046002F5A06000EB18
:103F30004110006840F0004402F5A06000EB411021
:103F4000046000BF581C0346B0F57A7F00D909E031
:103F500002F5A06000EB4110006800F00040B0F1F5
:103F6000004FEFD053E002F5A06000EB4110006875
:103F700040F0004402F5A06000EB4110046046E010
:103F800002F5A06000EB4110006840F0804402F5AB
:103F9000A06000EB411004604FF48260805880B252
:103FA00048BB02F5A06000EB4110006820F000441F
:103FB00002F5A06000EB4110046002F5A06000EB88
:103FC0004110006840F0004402F5A06000EB411091
:103FD000046000BF581C0346B0F57A7F00D909E0A1
:103FE00002F5A06000EB4110006800F00040B0F165
:103FF000004FEFD00BE002F5A06000EB411000682D
:1040000040F0004402F5A06000EB41100460002085
:1040100010BDF0B5DDE906564FF0FF3C00EB411452
:10402000059FC4F808C535B1012D20D0022D02D05E
:10403000032D29D113E040F29D4CC4F80CC55FEA72
:10404000026C04D5D4F80CC54CF4807C1AE0B0F1B5
:10405000A04F19D0D4F80CC54CF0600C12E040F21F
:104060009D6CC4F80CC55FEA026CEBD40CE040F226
:10407000252CC4F80CC55FEA026C05D5D4F80CC534
:104080004CF4C07CC4F80CC5D0F818C44FF0010E35
:104090000EFA01FE4CEA0E0CC0F818C4816941F01A
:1040A000007181614FF0FE5000EA83514FF4F040FF
:1040B00000EAC22001434FF4004000EA022001431D
:1040C000022F0FD0002041EA40404FF4402101EA86
:1040D00085410843C6F30A010843C4F80005032DCF
:1040E00002D007E00120EEE7D4F8000540F00050D0
:1040F000C4F800050020F0BD014640F214404058CD
:1041000080B270472DE9F84F05460C4616464FF031
:10411000000BDA4600274FF48078B946B5F1A04F7E
:104120001CD02079D0B94EB96079012806D16178C8
:104130002846FFF75DFE0020BDE8F88F012E0DD167
:10414000607805F5A06101EB4010C06820F06002C6
:10415000607801EB4010C26000206071206968B196
:10416000218920690844401EB0FBF1F087B2474521
:1041700005DD474620897843206100E00127E0788B
:1041800010B12089784320612069C0F312003E49B4
:1041900001EAC7410843A17A4FF0C04202EA4171E7
:1041A0000843617805F5A06202EB4111086136B160
:1041B000607805F5A06101EB4010E26842614FF4C0
:1041C0008160405900F0010080F0010B607805F536
:1041D000A06101EB4010006820F00052607801EB14
:1041E00040100260607801EB4010006840EA4B72BA
:1041F000607801EB40100260607801EB4010D0F86D
:10420000009029F0804949F00049607801EB4010A6
:10421000C0F80090AEBBE07898BB206988B3E07925
:1042200030B1012813D0022803D003281ED10DE09D
:1042300000BF2069C01CC0F38F0AE86A80B25045F5
:1042400003D2A86940F02000A86110E000BF2069F7
:10425000C01CC0F38F0A4FF48260405980B25045B1
:1042600003D2A86940F08060A86100E000BF00BFF1
:1042700000200090208A83B262782846E16800F02E
:10428000E1F9002058E700000000F81F2DE9F04791
:10429000174604460025DDF82090C0F8005E806BCC
:1042A00020F48020A063A06B20F40020A063A06B0A
:1042B00040F40010A0634FF0A048032B06D1444502
:1042C00004D0D4F8000440F0040003E0D4F8000463
:1042D00020F00400C4F8000410212046FFF7D4FDAC
:1042E0002046FFF7C1FD0020461E06E004EB40110A
:1042F000C1F80865C1F80C55401C8742F6D8012169
:104300002046FFF795FDC820FCF788F9A561666196
:10431000444505D1802060620C48A0620C4805E04D
:104320004FF4007060620B48A0620B48C4F80001B3
:10433000B9F1000F03D1A06940F01000A061A0699D
:1043400006490843A0610020BDE8F08780006000B6
:10435000E0004000000200010003E000080020A38C
:104360002DE9FC41002401222FA1304801F00EF874
:104370002F4E707018B12FA000F078F9FEE70122DF
:1043800030A1334801F030F8707020B1014631A0FF
:1043900000F06CF9FEE72E48D0F80C5232A0294606
:1043A00000F064F9354F4FF40068009701AB4246C6
:1043B0003349274801F0DAF97070BDF8042014443D
:1043C00080B97AB12E49009801F01EFE6420604346
:1043D000B0FBF5F12BA000F049F9009800F5006062
:1043E0000090E3E721462BA000F040F9184800F0C8
:1043F0007FFEAC4203D02BA000F038F9FEE77868CE
:104400000821B1EB106F09D12BA000F02FF9FDF7B7
:10441000DDFC012080F31388FDF7F2FD21A000F000
:1044200025F9BDE8FC810000303A0000700600204C
:10443000300000204D6F756E74206661696C656494
:104440000D0A00007570646174612E62696E00006F
:10445000A00800204F70656E206661696C65643A43
:1044600025640D0A0000000046696C652073697AB6
:10447000653A2564427974650D0A00000000010860
:104480007C130020577269746525346425250D0A54
:1044900000000000546F74616C3A256442797465C1
:1044A0000D0A000055706772616465206661696C71
:1044B00065640D0A00000000557067726164652034
:1044C000737563636573736564202C6A756D702002
:1044D000746F204170700D0A00000000D0F80024B5
:1044E00022F00302C0F80024D0F8002401F00303F6
:1044F0001A43C0F80024012902D0022903D006E0A3
:104500004BF6803101E041F27071C0F804140020D4
:104510007047416980690840704710B50446002320
:10452000D21C900804F5805403E0226841F8042B63
:104530005B1C8342F9D3084610BD38B50446D0F859
:10454000400420F02E00009040F48070C4F8400435
:104550000A2004F58864FCF761F8009820F4807064
:104560002060002038BD10B5C26822F0C042C26091
:10457000012901D021B107E0C16841F0005102E0FA
:10458000C16841F08041C1603220FCF747F800204B
:1045900010BDF0B505460027A86820F00100A8600E
:1045A00010212846FFF770FC2846FFF75DFC002429
:1045B00011E005F5A06000EB4410066846F0804667
:1045C00026F0004626F4004605F5A06000EB4410F6
:1045D0000660601CC4B20F2CEBDD002423E005F55F
:1045E000A06000EB4410066846F0804646F00046A6
:1045F00026F4004605F5A06000EB4410066000BFFD
:10460000781C0746B0F57A7F00D909E005F5A0606F
:1046100000EB4410006800F00040B0F1004FEFD014
:1046200000BF601CC4B20F2CD9DD4FF0FF3140F247
:104630001440415108466861A86840F00100A86034
:104640000020F0BD30B50024039D65B9DB1C9B083C
:1046500000EB023000F5805003E051F8042B0260BB
:10466000641C9C42F9D3002030BDFEE70FB4054B1B
:1046700010B503A9044A029800F018F810BC5DF8C0
:1046800014FB00007D5E00085800002002E008C80E
:10469000121F08C1002AFAD170477047002001E0BC
:1046A00001C1121F002AFBD1704700002DE9FF4F06
:1046B0008DB00F460546002606E025280BD0DDE923
:1046C0000F1290476D1C761C28780028F5D111B088
:1046D0003046BDE8F08F0024A246A1460122EC49F5
:1046E00000E0044315F8013F203B02FA03F00842C2
:1046F000F7D128782A2810D06FF02F022878A0F15F
:104700003001092914D80AEB8A0102EB410144F077
:10471000020400EB010A6D1CF0E701CF5FEA000A1A
:1047200003D544F40054CAF1000A44F002046D1C9D
:1047300028782E2817D115F8010F44F004042A28F0
:104740000ED06FF02F022878A0F1300109290AD885
:1047500009EB890102EB410100EB01096D1CF2E755
:1047600057F8049B6D1C28786C280FD006DC4C2869
:1047700017D068280DD06A2814D104E0742810D00E
:104780007A280FD10DE044F400140AE044F48014B8
:1047900001E044F440146978814202D104F58014A8
:1047A0006D1C6D1C2A786E2A1FD00CDC632A31D058
:1047B00004DC002A8BD0582A11D1A3E0642A68D0E7
:1047C000692A0CD165E0732A2ED004DC6F2A73D0DD
:1047D000702A04D19BE0752A6FD0782A6ED01046DB
:1047E000DDE90F129047761C50E1C4F30250022815
:1047F00006D0032809D0042801CF09D0066045E17E
:1048000001CFF117C0E9006140E101CF06803DE131
:1048100006703BE117F8040B8DF8000000208DF8BE
:104820000100EB46012003E057F804BB4FF0FF30D6
:1048300061074FF0000102D40DE008F10101884644
:1048400049450FDA8045F8DB1BF808100029F4D140
:1048500008E008F1010188468142FADB1BF80810E4
:104860000029F6D1DDE90F23AAEB08008146214695
:1048700000F036F9304400EB080604E0DDE90F12E1
:104880001BF8010B9047B8F10108F7D221464846C2
:10489000F7E00A21C4F302534FF0000B0891022BFA
:1048A00004D001CFC117032B09D00AE0FF1D27F068
:1048B0000707F7E8020108E032E01FE020E000B25D
:1048C000C117042B01D140B2C117031E71F10003BF
:1048D00007DA4FF0000CD0EB0C006CEB01012D233C
:1048E00002E0230504D52B238DF82430012303E0B7
:1048F000E30701D02023F7E7984658E00A2110E0AB
:1049000010210EE010204FF0000B08900CE0102159
:104910004FF0000B44F004044FF00809089103E045
:1049200008214FF0000B0891C4F30253022B04D06E
:1049300001CF0021032B06D006E0FF1D27F007075B
:10494000F7E8020103E080B2042B00D1C0B24FF0BF
:10495000000823072BD5702A07D0DDF820C08CF083
:10496000100C5CEA0B0C05D00EE040238DF82430CF
:10497000012308E050EA010306D030238DF82430EB
:104980008DF8252002239846DDF820C08CF0080C15
:104990005CEA0B0C0BD150EA010301D1630706D589
:1049A00030238DF824304FF00108A9F10109582A6D
:1049B00004D038A20B9208AA0A920BE03AA2F9E7B7
:1049C0005B46089AFBF720FC0B9B9B5C0A9A521EE5
:1049D0000A92137050EA0102F2D10A98ADEB00007E
:1049E00000F1200B600702D524F4803401E04FF081
:1049F0000109D94502DDA9EB0B0000E0002000EB26
:104A00000B0141440890AAEB010AE00306D4DDE95A
:104A10000F232146504600F063F806444FF000098A
:104A200008E009A911F80900DDE90F12904709F122
:104A30000109761CC145F4DBE0030CD5DDE90F2349
:104A40002146504600F04CF8064404E0DDE90F1220
:104A500030209047761C0899481E08900029F5DC04
:104A600008E00A980A990078491C0A91DDE90F12BA
:104A70009047761CBBF10001ABF1010BF1DC214644
:104A80005046DDE90F2300F019F806446D1C1BE6C3
:104A90000928010030313233343536373839616214
:104AA00063646566000000003031323334353637D8
:104AB0003839414243444546000000002DE9F041A9
:104AC000044600251E461746880404D405E03946EE
:104AD0002020B0476D1C641EF9D52846BDE8F08142
:104AE0002DE9F041044600251E469046C80301D535
:104AF000302700E02027880404D505E041463846E9
:104B0000B0476D1C641EF9D52846BDE8F081000051
:104B100010B50446002084F80402401EC4F82C029C
:104B2000204601F0D0FB08B1032010BDB4F8FE010F
:104B3000A0F52A41553901D0022010BD94F8360065
:104B4000B4F8371040EA01210848B0EB012F08D033
:104B500094F85210B4F8532041EA0221B0EB012F2F
:104B600001D1002010BD012010BD000000464154BD
:104B7000F0B50022184E154602EB420356F82340CA
:104B800084B1D0F80072BC420DD106EB8303D0F89B
:104B900008725C68BC4206D11B89B0F80642A34289
:104BA00004D000E00125521C022AE5D3022A01D0DC
:104BB00079B904E05DB9022909D01220F0BD02EBF9
:104BC000420006EB80004089B0F5807F01D00020D4
:104BD000F0BD1020F0BD00008402002030B500219F
:104BE000064B0C4601EB410253F82250854201D19D
:104BF00043F82240491C0229F4D330BD840200202E
:104C0000D0F82422D0F80002490A90F80202B1FB41
:104C1000F0F0121D02CA19B1884203D3401AF8E716
:104C200000207047116808447047D0F81422891E8C
:104C3000921E8A4201D800207047D0F8282290F8AE
:104C4000020201FB002070472DE9F0410F000646EB
:104C500006D001F047F902280BD20120BDE8F0810F
:104C6000D6F80C521DB1D6F81402A84208D8012576
:104C700006E0411CF2D0D6F814128142EED83D462F
:104C80002C46D6F81402641CA04202D80224022D3D
:104C90000AD32146304601F025F938B1411CDDD058
:104CA0000128DBD0AC42ECD10020D7E76FF0704296
:104CB0002146304601F022FB30B957B12246394631
:104CC000304601F01BFB20B1012812D00124204600
:104CD000C4E7C6F80C42D6F81002411CF7D0401EBB
:104CE000C6F8100296F8050240F0010086F80502A9
:104CF000EDE74FF0FF34EAE72DE9F04789460C680D
:104D000000E0641C21782F29FBD05C29F9D0D0F871
:104D100018520B222021284601F0CEFA002002462C
:104D200017464FF0080CE15D7F1C20292ED92F2952
:104D30002CD05C292AD02E2901D060450AD3BCF1A1
:104D4000080F30D12E292ED1082091064FF00B0CE0
:104D50000A0EE8E7802926D21FA300E05B1C1E781C
:104D600016B18E42FAD11EE0A1F14103192B02D8EF
:104D700042F0020207E0A1F16103192B03D82039A8
:104D800042F00102C9B22954401CCCE73C44C9F8A6
:104D90000040202901D8042100E0002118B1287822
:104DA000E52803D004E00620BDE8F0870520287040
:104DB000BCF1080F01D19006020E02F00300012899
:104DC00001D141F01001C2F38100012801D141F06D
:104DD0000801E9720020E7E7222A2B2C3A3B3C3DF0
:104DE0003E3F5B5D7C7F0000401E022815D20C4BCD
:104DF00000EB400203EB82014889B0F5807F05D0CB
:104E000008B1401E80B2488110B104E00020FAE7EA
:104E1000002043F822000020704702207047000065
:104E2000840200202DE9F041B0F8067204467F1C90
:104E300038040E46000C37D0D4F8100298B3390766
:104E400072D1401CC4F81002D4F80C12D4F800023D
:104E500031B190F80222521E12EA171F05D063E00A
:104E6000B0F80802B8421FD95EE001F03BF80546F1
:104E700001281ED9681C39D0D4F80002D0F81412C9
:104E8000A94248D87EB1D4F80C12FFF7DDFE050028
:104E90000DD0012D0DD0681C28D0D4F8000201F0EF
:104EA00066FB18BB07E0FFE70420BDE8F0810720A0
:104EB000FBE70220F9E74FF400720021D4F800026A
:104EC00001F0FAF92946D4F80002FFF7AEFED4F853
:104ED000001200264FF00108C1F82C0210E080F803
:104EE0000482D4F8000201F042FB08B10120DCE7A3
:104EF000D4F80002D0F82C12491C761CC0F82C12F1
:104F0000D4F8000290F80212B142E8D8D0F82C127E
:104F1000891BC0F82C12C4F80C522946D4F80002A0
:104F2000FFF783FEC4F81002A4F80672D4F800025A
:104F300007F00F0100EB4110C4F814020020B4E7A1
:104F400070B504460126002100F03BF8A0B9002509
:104F5000D4F81012D4F8000201F0B5F960B9D4F811
:104F600014120978E5290AD049B10025012120460B
:104F7000FFF758FF0028EBD0042804D004E06D1C94
:104F8000B54201D0F2E70720050018D1D4F810127D
:104F9000D4F8000201F097F9050010D1D4F81402FA
:104FA0002022002104F5007401F086F9D4E90501FE
:104FB0000B2201F079F92168012081F804022846CA
:104FC00070BD70B5A0F80612D0F808320D46044640
:104FD000012B40D0D4F80002D0F8141299423AD9EB
:104FE00033B990F80012032906D1D0F824321BB14E
:104FF00090F80202060114E0B0F80812A9422AD97A
:10500000D0F8240214E000F06DFF0346401C20D0CD
:10501000022B20D3D4F80002D0F8140298421AD9F7
:10502000AD1BD4F80002B5421946ECD2FFF7FDFDE6
:10503000C4F80C3278B100EB1510C4F81002D4F8A3
:10504000000205F00F0100EB4110C4F8140200202B
:1050500070BD012070BD022070BD0000084A10B56F
:10506000135C002153B901211154111802EB800087
:10507000097A40680268084690470146084610BD14
:105080009C02002030B4054B1C1803EB8000247AEE
:1050900040680369204630BC184700009C0200208D
:1050A00030B4054C251804EB80002D7A40688468E4
:1050B0002846A44630BC60479C02002004490A18D8
:1050C00001EB8000127A40684168104608470000F2
:1050D0009C02002030B4054C251804EB80002D7A8A
:1050E0004068C4682846A44630BC60479C02002043
:1050F00010B5044600F0F7FB00280DD1204601F062
:1051000066FA002808D1D4F82802FFF76DFE0028BF
:1051100002D10021C4F8001210BD2DE9F84F0D4650
:10512000044601F054FA5FEA000A7ED194F80702BF
:1051300000287AD1D4F824624FF00109002E7BD0E8
:10514000681C34D0D4F80C02A84200D20546C4F83A
:105150000852002D55D02046691EFFF751FDC4F8B6
:105160001402D4F8002201461046FFF75EFD002825
:105170007CD0D4F800126D1E91F80222521E02EA71
:1051800055221518B4F80802C005E3D0D4F8182247
:10519000AA42DFD094F8060240063CD591F80102FD
:1051A00001232146FFF796FF00287ED12DE056F817
:1051B00004BBD4F810120227E1B10025BF1C0091F6
:1051C00088466D1CD4F8000200F08CFE01460128D0
:1051D0004CD9481C69D008F101008142F0D05F45EC
:1051E00002D820C6009801C6D4F80002D0F81402F4
:1051F0008842E2D8D4F824025F45076002D8002034
:105200003060C1E04FF0110ABEE094F8060220F0D1
:10521000400084F80602D4F8000201232A4690F8E0
:1052200001022146FFF73CFF01E089E004E000288D
:105230003BD1C4F81852A7E0D4F80C02A84204D21B
:1052400094F80612890700D405460027D4F808020E
:10525000C4F8087245B3D4F8002292F802124E0244
:1052600088B1691EB1FBF6F1401E00E065E0B0FBBD
:10527000F6F3994207D3711E8843C4F808022D1A29
:10528000D4F814120FE0D4F8101251B900211046CE
:10529000FFF7DAFC014601284FD0481C62D0C4F861
:1052A0001012C4F8141211BB31E05BE094F806024E
:1052B0008007D4F8000205D5FFF7C6FC010004D131
:1052C000354616E000F00EFE0146481C4AD0012982
:1052D00033D9D4F80002D0F8140288422DD9C4F88A
:1052E0001412D4F80802AD1B3044C4F80802B542C9
:1052F000DCD8D4F808022844C4F80802E80506D02F
:10530000D4F80002FFF791FCB8B100EB5527B4F8D0
:105310000802C0052CD0D4F81822BA4228D094F83C
:105320000602400614D5D4F800020123214690F865
:105330000102FFF7CFFEA8B904E0022084F80702BB
:10534000BDE8F88F94F8060220F0400084F80602C9
:10535000D4F8000201233A4690F801022146FFF7F3
:105360009FFE18B184F807920120E9E7C4F818728B
:10537000D4E98201884207D9C4F80C0294F80602E5
:1053800040F0200084F806025046D9E72DE9F741A5
:1053900081B0904602980090684600F006FE040036
:1053A00003D50B2004B0BDE8F0810E4E002756F85F
:1053B000245025B12846FFF711FC85F800720198AA
:1053C000002801D080F8007246F8240002D0B8F11D
:1053D000010F01D00020E5E7002202A901A800F09A
:1053E000C1FBDFE72C0000202DE9F747ADF50B7D71
:1053F00006000ED04FF0000802F01F0727F0010250
:105400008CA980A8C6F8008200F0ACFB040005D08F
:10541000B3E009200DF50E7DBDE8F08788A88690E1
:1054200068468C9900F0CAFC859D04000BD11DB123
:10543000780803D0012102E0062404E00021684638
:10544000FFF796FB044617F01C0F5CD0D4B1042C78
:1054500013D100204B4902E0401C022805D200EB8A
:10546000400251F82220002AF6D1022804D06846D2
:10547000FFF766FD044600E01224859D47F008070B
:1054800044B17AE0E87A10F0110F46D1780701D5DF
:10549000082472E0380746D500F085FDA873010A9C
:1054A000E973010C2974000E687485F80B8085F887
:1054B0001C8085F81D8085F81E8085F81F80294690
:1054C000809800F027FE81460021284600F0ECFF7E
:1054D00080990120B9F1000F81F8040221D0809851
:1054E0004946D0F82CA200F0A8FF040045D18099CD
:1054F000A9F10100C1F80C025146809800F0E3FECA
:1055000004000CD039E0C4BBE87AC10601D50424FC
:1055100033E0B90703D5C00701D007242DE03807D1
:1055200001D547F020078098D0F82C02C6E98705FE
:10553000780801D0012100E00021684600F09AFDC2
:10554000C6F82802D8B186F8067286F80782474660
:10555000294606F50076809800F0DCFD3061287F52
:10556000D5F81D1040EA0120C6E90270B7617762E4
:1055700080983060B0F80602B08020464AE70224E6
:10558000FBE70000840200200FB42DE9F0479AB039
:1055900024AE0290002003900DF15409049023984A
:1055A00010F8011B2390002973D0252903D002A8ED
:1055B00000F020FFF3E7002510F8011B2F46239091
:1055C000302902D02D2902D00FE0012500E002256C
:1055D00010F8011B239008E007EB870001EB400760
:1055E0002398303F10F8011B2390A1F130000928C7
:1055F000F2D96C2901D04C2905D1239845F0040536
:1056000010F8011B2390002943D0A1F161000A4644
:10561000192801D8203AD2B24F2A40D006DC422ABB
:105620003BD0432A36D0442AC1D13AE0532A08D08D
:10563000552A36D0582ABAD1102301CE442A32D066
:1056400036E056F8048B002400E0641C18F80400CF
:105650000028FAD1A80704D50DE0202102A800F007
:10566000C9FE2046641CB842F7D304E008F10108E3
:1056700002A800F0BFFE98F800100029F6D103E060
:10568000202102A800F0B6FE2046641CB84286D253
:10569000F6E754E016F8041B89E70223CDE7082358
:1056A000CBE70A23C9E7002802DA404245F00805A3
:1056B0000024CC46B0FBF3F203FB1202B0FBF3F084
:1056C000D2B2092A05D9782915D04FF007084244EB
:1056D000D2B230320CF80420641C08B1102CE9D38B
:1056E000280703D52D2009F80400641CA046E8070C
:1056F00004D0302003E04FF02708E8E7202082465E
:1057000003E0514602A800F075FEA80704D4414604
:1057100008F10108B942F4D34D46641E02A8295D80
:1057200000F068FE002CF8D103E0514602A800F01A
:1057300061FE414608F10108B942A8D2F5E7039895
:10574000002810DB024601AB05A9029800F027F9FA
:1057500048B901990398884205D104981AB0BDE868
:10576000F0075DF814FB4FF0FF30F7E72DE9F05F2D
:10577000894600219A4616460446196000F027FF24
:10578000002811D194F8070200280DD194F80602E0
:10579000C00708D0D4E98210401A4FF0010B8642AE
:1057A00000D906469AE00720BDE8F09FD4F8081219
:1057B000C80579D1D4F8000290F80222521E02EAFC
:1057C000512212F0FF0514D131B1D4F8242232B1A4
:1057D0002046FFF715FA06E0D4F8100203E0D4F8EB
:1057E000141200F07FFB02281FD3411C55D0C4F8CF
:1057F0001402D4F81412D4F80002FFF716FAA0B17C
:1058000000EB0508770A27D0D4F80002EA1990F8CF
:1058100002128A4200D94F1B90F801023B464246D1
:105820004946FFF73DFCC0BB03E0022084F80702B5
:10583000BAE794F8060240060CD5D4F81812A1EB8A
:105840000800B84206D209EB40204FF4007221460E
:1058500000F02AFD7D0235E0D4F81822424521D01F
:1058600094F8060240060ED5D4F800020123214622
:1058700090F80102FFF72EFC78B994F8060220F0A8
:10588000400084F80602D4F800020123424690F852
:1058900001022146FFF704FC20B184F807B2012081
:1058A00082E701E0C4F81882B4F80802C0F30800E7
:1058B000C0F50075B54200D9354601192A4648465B
:1058C00000F0F2FCD4F80802A9442844C4F8080205
:1058D000DAF800004119761BCAF80010002E7FF498
:1058E00065AF002060E770B5044600F070FE002848
:1058F00011D194F806128A060DD5480612D5D4F8AF
:1059000000020123214690F80102D4F81822FFF783
:10591000E1FB08B1012070BD94F8060220F04000C0
:1059200084F80602D4F81C12D4F8000200F0CBFC74
:105930000028F0D1D4F82052E87A40F02000E87234
:1059400094F80C022877B4F80C02000A6877D4F8AF
:105950000C02000CA877D4F80C02000EE877D4F8FB
:105960001012284604F5007400F09EFD00F01BFBA9
:10597000A875010AE975010C2976000E68760020E9
:10598000A874E874A07920F02000A071216801209B
:1059900081F804022068BDE8704000F08DBD2DE95B
:1059A000F05F894600219A4616460446196000F0C9
:1059B0000EFE002808D194F80702002804D194F8BC
:1059C0000602800702D40720BDE8F09FD4F8080241
:1059D0004FF0010B8119814278D3B1E0D4F808125D
:1059E000C80574D1D4F8002292F80202401E00EAE1
:1059F000512010F0FF051ED131B1D4F8240240B17E
:105A00002046FFF7FDF809E0D4F8100240B9002164
:105A100001E0D4F814121046FFF716F9002855D00B
:105A2000012839D0411C65D0C4F81402D4F81012F2
:105A300009B9C4F8100294F80602400610D5D4F84B
:105A400000020123214690F80102D4F81822FFF742
:105A500041FBD0BB94F8060220F0400084F8060217
:105A6000D4F81412D4F80002FFF7DFF8A0B100EB6D
:105A70000508770A2CD0D4F80002EA1990F802122F
:105A80008A4200D94F1B90F801023B4642464946E4
:105A9000FFF720FBC8B903E0022084F8070293E770
:105AA000D4F81812A1EB0800B8420CD209EB40213F
:105AB0004FF40072204600F0F7FB94F8060220F045
:105AC000400084F806027D022EE013E03BE017E080
:105AD000D4F81812414511D0D4E9820188420DD280
