:020000040800F2
:10000000C82F00209D0100089B1F0008B11D00089B
:10001000991F000859020008E94500080000000087
:100020000000000000000000000000009720000811
:10003000A502000800000000C91F00089920000860
:10004000B7010008B7010008B7010008B7010008B0
:10005000B7010008CB1F0008B7010008B70100086E
:10006000B7010008B7010008B7010008B701000890
:10007000B7010008B7010008B7010008B701000880
:10008000B7010008B7010008B7010008B701000870
:10009000B7010008B7010008B7010008B701000860
:1000A000B7010008B7010008B7010008B701000850
:1000B000B7010008B7010008B7010008B701000840
:1000C000B7010008B7010008B7010008B701000830
:1000D000B7010008B7010008B7010008B701000820
:1000E000B7010008B7010008B7010008B701000810
:1000F000B7010008B7010008B7010008B701000800
:10010000B7010008B7010008B7010008B7010008EF
:10011000B7010008B7010008B7010008B7010008DF
:10012000B7010008B7010008B7010008B7010008CF
:10013000B7010008B7010008B7010008B7010008BF
:10014000B7010008B7010008B7010008BD1F00088B
:10015000B7010008B7010008B7010008B70100089F
:10016000B7010008B7010008B7010008B70100088F
:10017000B7010008B7010008B7010008000000003F
:10018000B7010008B7010008DFF80CD000F052F802
:1001900000480047BD5F0008C82F00200648804780
:1001A00006480047FEE7FEE7FEE7FEE7FEE7FEE75C
:1001B000FEE7FEE7FEE7FEE74521000889010008AB
:1001C00040EA01039B0703D009E008C9121F08C0D9
:1001D000042AFAD203E011F8013B00F8013B521E59
:1001E000F9D27047D2B201E000F8012B491EFBD2D0
:1001F00070470022F6E710B513460A460446194632
:10020000FFF7F0FF204610BD30B50B460146002039
:100210002022012409E021FA02F59D4205D303FAC8
:1002200002F5491B04FA02F52844151EA2F1010249
:10023000F1DC30BD064C074D06E0E06840F00103FC
:1002400094E8070098471034AC42F6D3FFF7A0FFBC
:1002500084640008A4640008FEE7000010B50022D2
:100260004FEA020100EB8203521CC3F87C130F2AF1
:10027000F8D300224FF400738418521C84F81C1128
:100280009A42F9D30170417001228270C0F8B8130C
:10029000027640238371417680F81C1380F81D2379
:1002A000002010BD70470022AFF3008030B50E4B28
:1002B000054601205C7A012C15D8587A00241C547C
:1002C000587A03EB800045605D7A03F108002A54F8
:1002D000587A421C5A72303008703A2048702F20E9
:1002E0008870CC70002030BD9C020020002229B113
:1002F00001291FD0022920D04FF4407210490B6809
:1003000023F440730B600B6813430B600A6822F000
:10031000F8020A600A68F82393FAA3F3B3FA83F3A6
:10032000984040F0020002430A60086840F48030C0
:10033000086070474FF48072E0E74FF40072DDE729
:10034000103C02401348016889050FD5016821F46B
:1003500000710160016841F400610160016821F4ED
:1003600000610160016841F40071016001684905A4
:100370000FD5016821F480610160016841F480516A
:100380000160016821F480510160016841F48061DD
:1003900001607047003C024008490A6822F440723C
:1003A0000A600A6842F004020A600A684FF4803367
:1003B00043EA002002430A6070470000103C0240FC
:1003C000064A136823F440731360136813601368BC
:1003D00043F001031360017070470000103C0240BD
:1003E000084910B50C6824F440740C600C6844F49F
:1003F00040740C600C6844F001040C6002604360BF
:1004000010BD0000103C0240074A136823F44073FB
:100410001360136843F480731360136843F001039F
:100420001360018070470000103C0240074A1368C7
:1004300023F440731360136843F40073136013686C
:1004400043F001031360016070470000103C02405C
:1004500017490868C206174805D5C26942F010025C
:10046000C26110220A600A68920605D5C26942F08C
:100470000802C26120220A600A68520605D5C269D4
:1004800042F00402C26140220A600A68120605D5E1
:10049000C26942F00202C26180220A600A689207C1
:1004A00005D5C26942F02002C2610220086070478F
:1004B0000C3C02406400002070B511490446002045
:1004C000C86100F0ADFA06460E4D09E0601C07D089
:1004D00024B100F0A5FA801BA04201D9032070BD11
:1004E0002868C003F2D42868C00701D00120286022
:1004F000286810F0F200F2D0FFF7AAFF012070BDCB
:10050000640000200C3C02401C49884201D20020BB
:1005100070471B49884201D201207047194988421F
:1005200001D2022070471849884201D20320704747
:100530001649884201D2042070471549884201D2E9
:10054000052070471349884201D20620704712499E
:10055000884201D2072070471049884201D2082002
:1005600070470F49884201D2092070470D498842DF
:1005700001D20A2070470B2070470000004000089D
:100580000080000800C00008000001080000020808
:1005900000000408000006080000080800000A081F
:1005A00000000C0800000E0831B500F039FA009C7C
:1005B0000546601C00D0641C00F032FA401BA042CB
:1005C000FAD338BD2DE9F047044622480F46017E94
:1005D00001290AD00121804601764CF25039484663
:1005E000FFF76AFF020003D02FE00220BDE8F0878A
:1005F0004FF0FF3038602068174D012801D0A66801
:100600001CE0207C6168FFF7C7FE4846FFF754FFF7
:100610000246286820F00400286014E0217C30465F
:10062000FFF764FE4846FFF747FF0200286820F006
:10063000FA00286001D03E6005E0761CD4E9021083
:100640000844B042EAD8FFF77DFE002188F8181070
:100650001046CBE764000020103C024003480168CC
:1006600041F000410160002070470000103C024052
:100670002DE9F0471B4E05461446307E1F4689463D
:10068000012808D0012030764CF250384046FFF760
:1006900013FF18B114E00220BDE8F0879DB1012DD1
:1006A00016D0022D19D022463B464846FFF798FE49
:1006B0004046FFF701FF0C490A6822F001020A6078
:1006C00000213176E8E7E1B24846FFF779FEEFE72F
:1006D000A1B24846FFF798FEEAE721464846FFF7F1
:1006E000A5FEE5E764000020103C024006480068D3
:1006F000002807DA044805490C3801600449016004
:100700000020704701207047103C024023016745DC
:10071000AB89EFCD2DE9F04FDFF818B100224FF093
:1007200001094FF00F0A00BF09FA02F401EA0403BD
:10073000A34279D1066857000325BD40AE43066049
:10074000D60800EB8606D6F820C057074FEAD768D0
:100750000AFA08F72CEA070CC6F820C08668AE43F0
:1007600086604668A6434660C468AC43C46022F015
:1007700003055D44D5F808689407270F0AFA07F4C3
:10078000DFF8B4C02640604502D14FF0000C32E0E3
:10079000DFF8A8C0604502D14FF0010C2BE0DFF874
:1007A000A0C0604502D14FF0020C24E0DFF894C0F5
:1007B000604502D14FF0030C1DE0DFF88CC06045AE
:1007C00002D14FF0040C16E0DFF880C0604502D182
:1007D0004FF0050C0FE0DFF878C0604502D14FF014
:1007E000060C08E0DFF86CC0604502D14FF0070C42
:1007F00001E04FF0080C0CFA07FCB44514D1D5F811
:100800000868A643C5F80868134C25689D43256011
:10081000241D25689D432560241D25689D43256072
:10082000241D25689D432560521C102AFFF47CAFCF
:10083000BDE8F08F0030014000000240000402409B
:1008400000080240000C0240001002400014024068
:1008500000180240001C0240003C01402DE9F84F06
:10086000DFF87CB100224FF001084FF0030A4FF08F
:100870000F090BF1040E00BF0B6808FA02F42340C5
:10088000A3426ED14D68022D01D0122D0ED1D50894
:1008900000EB850CDCF820505607F70E09FA07F636
:1008A000B5430E69BE402E43CCF820600668550063
:1008B0000F790AFA05FC07F0030726EA0C06AF4099
:1008C000374307604E68012E05D0022E03D0112E4B
:1008D00001D0122E0ED18668CF6826EA0C06AF40F2
:1008E000374387604668A6430C79C4F300149440EC
:1008F00034434460C6688C6826EA0C06AC40344336
:10090000C4604C68E40065D5364C256845F48045E4
:100910002560246822F0030504F480440094324CDE
:100920002E19D6F8084895072F0F09FA07F5AC439A
:100930002E4DA84201D1002524E02D4DA84201D121
:1009400001251FE02B4DA84201D102251AE02A4DB6
:10095000A84201D1032515E0284DA84202D1042563
:1009600010E037E0264DA84201D105250AE0254DCB
:10097000A84201D1062505E0234DA84201D1072553
:1009800000E00825BD402543C6F80858DBF80040C4
:100990005D464E689C43F60300D51C432C60DEF890
:1009A000004075464E689C43B60300D51C432C603E
:1009B0000B4D08352C684E689C43F60200D51C434D
:1009C0002C60074D0C352C684E689C43B60200D550
:1009D0001C432C60521C102AFFF44EAFBDE8F88F68
:1009E000003C014044380240003001400000024019
:1009F0000004024000080240000C024000100240C7
:100A00000014024000180240001C02400069084027
:100A100000D0012070470AB1816170470904FBE7EB
:100A2000014800687047000004000020D0F89402DC
:100A300002F011B8D0F8940202F021B8006803F077
:100A4000EDB9006803F0EEB901EB810100EBC100E4
:100A500090F85C00704701EB810100EBC100C06CB5
:100A6000704710B5044690F89002012809D0012083
:100A700084F89002206803F0E0F9002084F89002E6
:100A800010BD022010BDFEB50546DDE9096095F8F0
:100A90009042089F012C1ED0012485F8904201EB62
:100AA000810405EBC40402F07F0C04F8383F208178
:100AB0006170E67184F802C04FEAD21C84F803C06A
:100AC00027710097CDE90160286803F05BFA0021E7
:100AD00085F89012FEBD0220FEBD70472DE9F0039F
:100AE00001EB8104DDE90689DDE908C700EBC404F8
:100AF000022684F83B2084F83F30B8F1000F0AD07A
:100B000084F84260002553B1012B3FD0022B1DD049
:100B1000032B2AD120E0032584F84250F2E7B8F1F4
:100B2000010F22D10ABBBCF1000F10D1012284F8C1
:100B3000512002E084F8425001E084F8426094F8C9
:100B40005C20022A11D084F83D700EE02AB994F896
:100B50005120002AF1D1EDE712B194F8502001E0C4
:100B600094F8512092B184F84260C4E9119C84F851
:100B70005C50E56484F8391084F85D50027C04F11F
:100B800038010068BDE8F00303F078BA84F84250F9
:100B9000EBE700002DE9F041044600680025064619
:100BA00003F047F901287DD1206803F070FC00288C
:100BB00078D0206803F06BFC800203D521684FF4E5
:100BC00000104861206803F062FCC00203D5216870
:100BD0004FF480104861206803F059FC400103D5B0
:100BE00021684FF080604861206803F050FC800766
:100BF00002D5216802204861206803F048FC80008B
:100C000010D5D6F8400420F02E00C6F84004204647
:100C1000FFF710FF0121206803F01EFC21684FF050
:100C200000504861206803F032FCC00102D5204624
:100C300001F02FF8206803F02AFC000705D52046B4
:100C400000F0C5F8216808204861206803F01FFC07
:100C5000800120D5206803F00AFA07464FF001080A
:100C600012E000BF08FA05F038420CD006EB451040
:100C7000D0F80005E9B20004204602D500F0E5FDF9
:100C800001E000F0FBFE6D1CA068A842EAD82168D4
:100C90004FF000704861206803F0F9FBC0060ED5E4
:100CA000206800E00BE0816921F01001816120469D
:100CB00001F046F82068816941F010018161BDE8CA
:100CC000F08130B58BB0040026D0032084F8910267
:100CD000204600F03DF8206803F03CF804F11001D4
:100CE00028220D466846FFF76BFA94E80F0002F0E1
:100CF000DFFF0121206803F0F4FB28222946684623
:100D0000FFF75EFA94E80F0003F07CFA012084F804
:100D1000910200200BB030BD0120FBE710B5006848
:100D2000B0F1A04F0ED10848016821F080010160A8
:100D30004FF4C0510548FFF7EDFCBDE810404320DB
:100D400000F0DCB810BD0000343802400000024062
:100D500000B5006887B0B0F1A04F2ED1184800212F
:100D6000026842F001020260006800F00100059094
:100D70004FF4C05000900220CDE9010103900A20F9
:100D8000049069460F48FFF769FD0D48001D016892
:100D900041F0800101600A481430016841F480414B
:100DA00001600068002200F4804005900521432086
:100DB00000F0BAF8432000F0ACF807B000BD000026
:100DC0003038024000000240006803F074BBD0F8E5
:100DD000940201F09EBE10B5044690F890020128DE
:100DE0000DD0012084F89002206802F0EFFF01216D
:100DF000206802F0D5FF002084F8900210BD022088
:100E000010BD10B5044690F89002012809D00120C9
:100E100084F89002206803F07AFB002084F89002A6
:100E200010BD022010BD000002480168491C01608D
:100E300070470000040000200B4810B5016841F421
:100E400000710160016841F480610160016841F452
:100E500080710160032000F087F8002000F006F8A0
:100E600000F018F8002010BD003C024010B5044608
:100E700007484FF47A710068B0FBF1F000F0F7FB1F
:100E800000222146501E00F04FF8002010BD000047
:100E90000000002010B5032000F066F80022114683
:100EA0006FF00B0000F040F8002211466FF00A00CE
:100EB00000F03AF8002211466FF0090000F034F813
:100EC00000221146501F00F02FF800221146101F7B
:100ED00000F02AF800221146901E00F025F80022AA
:100EE0001146501E00F020F800221146052000F0A7
:100EF0001BF8BDE81040052000F00BB800F01F0201
:100F0000012191404009800000F1E020C0F88011EB
:100F1000704700F01F02012191404009800000F15C
:100F2000E020C0F800117047F0B40E4B1B680C466F
:100F3000C3F30223C3F10705042D00D90425191DAD
:100F4000072901D2002300E0DB1E012606FA05F185
:100F5000491E214099409E40761E16403143F0BC08
:100F600001F01CB80CED00E0064900F0070208682B
:100F70004FF6FF03184040EA0220034A104308607E
:100F8000704700000CED00E00000FA052DE9F04785
:100F9000DFF8649105460F46D9F8000000F00F0114
:100FA000F8B28046B94208D2014689F80010D9F853
:100FB000000000F00F00B84274D128784F4C800731
:100FC00005D52068A96820F0F00008432060287843
:100FD000C00759D049496868083901281AD0022841
:100FE0001BD0032819D00968890700295ADA21681B
:100FF00021F0030101432160FFF712FD69680646F5
:1010000041F28830012911D002291DD003298246DE
:1010100027D035E009688903E7E709688901E4E733
:10102000FFF7FEFC811B514501D926E0824620686E
:10103000C0F381000128F3D126E000BFFFF7F0FCE8
:10104000811B514501D918E082462068C0F3810018
:101050000228F3D118E000BFFFF7E2FC811B5145E5
:101060000BD82068C0F381000328F5D10CE000BF45
:10107000FFF7D6FC811B514502D90320BDE8F0875C
:10108000206810F00C0FF3D1D9F80010484601F099
:101090000F01B94208D980F80080006800F00F0005
:1010A000B84201D00120E9E72878400705D520683B
:1010B000E96820F4E050084320602878000706D54E
:1010C0002068296920F4604040EAC100206000F0F7
:1010D00057F82168F02292FAA2F201F0F001B2FA78
:1010E00082F2D140064A515CC8400649086000209F
:1010F000FFF7BCFE0020C1E7003C02400838024078
:101100000C6400080000002001490120C8647047F9
:1011100000004742014800687047000000000020BE
:1011200008480949006809684FF4E05292FAA2F2AF
:1011300001F4E051B2FA82F2D140044A515CC84055
:101140007047000000000020083802401C640008BE
:1011500008480949006809684FF4604292FAA2F20F
:1011600001F46041B2FA82F2D140044A515CC840B5
:101170007047000000000020083802401C6400088E
:1011800030B51948006810F00C01184812D044100E
:1011900004290ED008290DD11349091F0A6802F04D
:1011A0003F030A68550247F6C07204D5B4FBF3F05A
:1011B00003E0204630BDB0FBF3F00B680968134034
:1011C00092FAA2F2B2FA82F2D34058434FF440327C
:1011D00092FAA2F201F44031B2FA82F2D140491CF3
:1011E0004900B0FBF1F030BD083802400024F400A3
:1011F0002DE9F84F0546DFF8FC920078A9F1040BC1
:10120000C007ABF1040449D0D9F800104846C1F337
:101210008101012908D00068C0F3810002280AD1A9
:10122000DBF80000400206D52068800336D56868E8
:1012300000286ED032E06868B0F5803F10D0B0F57D
:10124000A02F206810D020F480302060206820F487
:10125000802020606868A0B1FFF7E2FB06460CE042
:10126000206840F48030F4E740F480202060F7E705
:10127000FFF7D6FB801B642871D820688003F7D560
:101280000CE0FFF7CDFB064605E000BFFFF7C8FB0B
:10129000801B6428F0D820688003F7D42878964F04
:1012A00080074FF0010A4FF0000841D5D9F800102F
:1012B000484611F00C0F08D00068C0F381000228E6
:1012C0000AD1DBF80000400206D42068800713D55D
:1012D000E86801281DD10FE0E868D8B1C7F800A080
:1012E000FFF79EFB064604E0FFF79AFB801B0228EF
:1012F000C2D820688007F7D52068F82292FAA2F2B7
:101300002969B2FA82F220F0F80091400843206087
:101310000EE0ECE0C7F80080FFF782FB064604E031
:10132000FFF77EFB801B022819D820688007F7D4BE
:101330002878000724D57148696989B1C0F800A0F0
:10134000FFF76EFB064604E0FFF76AFB801B0228EE
:1013500005D868486C3000688007F5D510E07AE061
:10136000C0F80080FFF75CFB064604E0FFF758FB7F
:10137000801B02286FD85F486C3000688007F5D466
:101380002878400753D55B483830016841F08051D8
:101390000160006800F0805000905948016841F4F5
:1013A00080710160FFF73CFB064604E0FFF738FB65
:1013B000801B02284FD852480068C005F6D54D4E14
:1013C000A868683601280FD00528306810D020F0B2
:1013D00001003060306820F004003060A868B8B1C7
:1013E000FFF71EFB00900FE0306840F00100F4E7CB
:1013F00040F004003060F7E7FFF712FB0099411A54
:1014000041F2883081426AD830688007F4D50EE016
:10141000FFF706FB009007E0FFF702FB0099411A77
:1014200041F2883081425AD830688007F4D4A869E4
:10143000E8B3D9F80010C1F38101022957D002287E
:10144000C7F8608003D0FFF7EBFA05464AE0FFF7E4
:10145000E7FA064605E042E0FFF7E2FA801B0228C1
:101460003DD820688001F7D4D5E90701084347F645
:10147000C07292FAA2F2696AB2FA82F29140AA6A42
:101480004FF0FF3303EB52024FF4403393FAA3F3D0
:10149000B3FA83F39A40114308434FF0706292FA13
:1014A000A2F2E96AB2FA82F29140084300E01CE03D
:1014B000CBF80000C7F860A0FFF7B2FA054604E0D9
:1014C000FFF7AEFA401B022809D820688001F7D543
:1014D0000BE000BFFFF7A4FA401B022802D903204B
:1014E000BDE8F88F20688001F4D40020F8E70120DF
:1014F000F6E700000838024000004742800E4742ED
:101500000070004010B500680B4641680D4801406E
:10151000080CD870C1F304245C7001F03F049C7087
:10152000C1F34231197052B900F050FDD8705878AB
:1015300000F04CFD5870987800F048FD987000203D
:1015400010BD00003FFFFF0010B50B460168896A1F
:10155000596001680969C1F30E019960006801686A
:101560000E480140C1F305401870C1F306245C70B9
:1015700001F07F049C70402404EA1141D97052B9F3
:1015800000F024FD1870587800F020FD587098780D
:1015900000F01CFD9870002010BD00007F7F7F00D0
:1015A00070B5040002D0607F10B106E0012070BD6C
:1015B00000202077204600F041F802206077216863
:1015C000CA204862216853204862204600F008FD86
:1015D000FF210028206803D0416204206077E5E7FE
:1015E0008268154B1A4082602268906863681843CD
:1015F000D4E904352B43184390602268E0681061F9
:1016000020680269238942EA034202612068C268B5
:1016100022F08002C2602068026C22F48022026400
:101620002068026CA3691A430264206841620120A9
:101630006077002070BD0000BFFF8FFF0068034986
:10164000884202D10249012008607047002800400A
:101650003C0E47424FF0E0210428086903D020F0F7
:1016600004000861704740F00400FAE7704710B5C5
:10167000401EB0F1807F01D3012010BD4FF0E02467
:1016800060610F21601700F089FC0020A061072035
:101690002061002010BD10B5FFF7E8FF10BD70B548
:1016A000040004D094F83900002510B106E00120B0
:1016B00070BD84F83850204600F036F8242084F8B5
:1016C00039002068C16821F40051C160204600F053
:1016D00063FD2068016921F490410161206841693E
:1016E00021F02A0141612068C16841F40051C160C4
:1016F000E563202084F8390084F83A00002070BDAA
:1017000000680649884208D10548016821F01001A7
:101710000160C0210348FEF7FDBF70470010014083
:10172000443802400004024010B586B0044614213B
:101730006846FEF75EFD13492068884220D11248B2
:10174000016841F010010160006800F01000059090
:101750000D481438016841F00201016000686946D3
:1017600000F002000590C0200090022001900120AE
:10177000029003200390072004900448FFF76EF8BE
:1017800006B010BD00100140443802400004024081
:101790002DE9F843044690F839001F4616460D46D9
:1017A000202850D1A5B19EB194F8380001284AD024
:1017B000012084F838004FF00008C4F83C80212054
:1017C00084F83900FFF72CF9A6848146E68426E0E8
:1017D0000120BDE8F883E08C401EE084A0684B4601
:1017E000B0F5805F4FF000024FF080012046009777
:1017F00003D000F027FEE8B90DE000F023FEC8B9E1
:1018000028882168C0F308004860206908B16D1C71
:1018100005E0AD1C03E0216815F8010B4860E08C81
:101820000028D8D14B46002240212046009700F0E6
:1018300009FE08B10320CCE7202084F8390084F8A1
:1018400038800020C5E70220C3E72DE9F05F064697
:101850000068884600EB4814D4F808054FF0040BE4
:10186000410708EB88004FF0050A4FF0100706EB20
:10187000C00508D5C4F808B5D4F80C0540F002003E
:10188000C4F80C0532E0D4F80805800601D5202004
:101890002AE0D4F808054FF00809000710D5D4F85D
:1018A0000C0540F00200C4F80C0585F85DA0C4F8F2
:1018B0000875C4F808954146306802F0BEFA15E094
:1018C000D4F80805400511D5D4F80C0540F0020005
:1018D000C4F80C054146306802F0AFFAC4F8087548
:1018E00085F85D904FF48060C4F80805D4F80805C9
:1018F00080050ED5D4F80C0540F00200C4F80C05A4
:10190000414604F5A164306802F097FA4FF4007084
:101910008DE0D4F808054FF00001C0074FF0010238
:1019200036D0306930B1A86CD4F81035C3F3120347
:10193000C01AE86485F85D20A965C4F8082595F803
:101940003F0020B1022802D003280ED019E0D4F8BD
:101950000C0540F00200C4F80C05414604F5A164F2
:10196000306802F06AFA27600BE0D4F8000540F016
:101970000050C4F8000585F85C2041463046FFF76A
:10198000ACF815F8500F80F001002870BDE8F09F0A
:10199000D4F80805800733D5D4F80C0520F00200F0
:1019A000C4F80C0595F85D000223012806D005282F
:1019B00007D0062808D0082806D018E085F85C2053
:1019C00015E085F85CA012E0A86D421CAA6503280A
:1019D00003D9A96585F85CB001E085F85C30D4F8DE
:1019E000000520F0804040F00040C4F80005C4F835
:1019F000083595F85C2041463046FFF76EF8C5E79C
:101A0000D4F80805000614D5D4F80C0540F00200FF
:101A1000C4F80C05A86D4146401CA865062085F851
:101A20005D0004F5A164306802F007FA80202060B0
:101A3000ACE7D4F80805C006A8D595F83F00032800
:101A400009D1D4F80C0540F00200C4F80C05414659
:101A5000306802F0F2F9032085F85D00C4F80875DB
:101A600095F83F0008B1022890D1D4F8000520F085
:101A7000804040F00040C4F8000587E72DE9F047BA
:101A8000026802EB4114D4F808254FF0040C520709
:101A900009D5C4F808C5D4F80C0540F00200C4F814
:101AA0000C05BDE8F087D4F8082501EB8103920608
:101AB0004FF0020600EBC30514D52022C4F8082518
:101AC00095F83D20012AECD185F85DC0D4F80C25AD
:101AD00042F00202C4F80C25006802F0AEF985F865
:101AE0005C60DEE7D4F808254FF0000352060FD5FE
:101AF00085F85DC0AB65D4F80C2542F00202C4F84D
:101B00000C25006804F5A16402F097F9402010E06C
:101B1000D4F8082592050ED5D4F80C2542F002021F
:101B2000C4F80C25006804F5A16402F086F94FF4AE
:101B300000702060B5E7D4F808254FF00108D207FF
:101B400010D0AB65D4F80C2542F00202C4F80C2585
:101B5000006804F5A16402F070F9C4F8008085F80B
:101B60005D809EE7D4F808254FF0080912074FF072
:101B7000050A0DD5C4F80895D4F80C2542F00202E8
:101B8000C4F80C25006802F058F985F85DA088E7D4
:101B9000D4F808254FF01007D20610D5AB65D4F85D
:101BA0000C2542F00202C4F80C25006804F5A1647B
:101BB00002F043F9032085F85D00276071E7D4F84F
:101BC000082512060FD5D4F80C2542F00202C4F8FD
:101BD0000C25006804F5A16402F02FF9062085F8B1
:101BE0005D008020A5E7D4F80825520511D5D4F86A
:101BF0000C2542F00202C4F80C25006804F5A1642B
:101C000002F01BF927604FF48060206085F85D903A
:101C100047E7D4F8082592078CD5D4F80C2522F094
:101C20000202C4F80C2595F85D20012A0AD0032A87
:101C300026D0042A13D0052A16D0062A17D0082A3F
:101C400015D01FE085F85C8095F83F20022A19D155
:101C500095F8512082F0010285F8512012E085F8B4
:101C60005C6085F83D300DE085F85CA00AE0AA6D67
:101C7000571CAF65032A03D9AB6585F85CC001E04A
:101C800085F85C60C4F8086595F85C20FEF725FFD0
:101C900007E77CB504680546D4F840040190D4F801
:101CA000400420F02E000090019880070DD5019887
:101CB000C00706D0A06920F00051A1612846FEF7B8
:101CC000B5FE009840F002000090019800072CD566
:101CD000009840F008000090019840071AD5A869C4
:101CE000022803D0E86803280CD00FE00198C0F365
:101CF00041400228286803D0012102F0ADFB05E035
:101D00000221FAE74EF66020C4F804042846FEF7E4
:101D10008DFE0AE0D4F8400420F02E00C4F8400400
:101D20002868816941F0005181610198800600981E
:101D300002D540F020000090C4F840047CBD0000B3
:101D40002DE9F041024600680646016AC1F34343AB
:101D500001F00F07C1F30A14022B25D1002C23D068
:101D600007EB870102EBC105696C00291CD02246F4
:101D700002F091FB686C20446864E86C2044E864DD
:101D800006EB4710D0F81015084A11420CD0D0F8D5
:101D9000001521F0804141F00041C0F8001515F810
:101DA000500F80F001002870BDE8F0810000F81F9E
:101DB000FEE7000010B58CB0002205A92548FFF70A
:101DC000C3FB00220AA92348FFF79CFB9DF828309B
:101DD000214C9DF814009DF8162054F823309DF8EE
:101DE00015108DE80F009DF82A309DF829209DF8E8
:101DF0002B101AA002F0FAFB132221A1224803F0B3
:101E000027FAA4F1080148701F48D0F80C1203F01B
:101E1000AFF89DF828309DF814009DF8162054F86E
:101E2000233001AC9DF8151084E80F009DF82A00BE
:101E300000909DF829309DF82B2014A1124803F042
:101E4000D7FA114803F07EF81EA002F0CFFB0CB0C9
:101E500010BD0000CC0A00203800002032302532AE
:101E6000642D2532642D253264092532643A2532E9
:101E7000643A25326409252D3973090D0A000000E2
:101E80006C6F672E74787400A00800200D0A323041
:101E90002532642D2532642D253264092532643AB9
:101EA0002532643A25326409252D39730975706726
:101EB00072616465207375636365737366756C0D19
:101EC0000A000000616464206C6F670D0A00000066
:101ED00030B587B014216846FEF78BF91948002405
:101EE000016841F010010160016801F010010591E5
:101EF000016841F080010160016801F080010591F5
:101F0000016841F00201016000680F4D00F002001D
:101F100005900022C0212846FEF77DFD0720CDE96F
:101F20000004694628460294FEF798FCC020009001
:101F30000120CDE90104694628460394FEF78EFC92
:101F400007B030BD30380240001002400748064953
:101F50007F2201600021C0E90112FF22C0E90321B4
:101F600041618161FFF71CBB00280040CC0A0020C2
:101F70000848074901604FF4E13141600021816068
:101F80000C22C160C0E904128161C161FFF787BB07
:101F900000100140EC120020FEE770470907090E0F
:101FA000002806DA00F00F0000F1E02080F8141D90
:101FB000704700F1E02080F8001470470148FEF7F8
:101FC000E9BD00002C1B002070477047010901EBA0
:101FD000810100F00F0000EB4100C0B2704700002B
:101FE00070B504460068C168490614D44FF0FF314B
:101FF000C160FEF715FD05464FF47A7607E000BF95
:10200000FEF70EFD401BB04201D9032070BD2068D1
:10201000C0684006F4D5002070BD2DE9F04786B0B9
:102020004FF0000817460E460446CDF81480B0F174
:10203000006F2DD3A0072BD1FEF758FB254604EBEC
:1020400087074FF001094FF0020A11E02868401C91
:102050000DD02846CDF80080FEF756FA02AA05A951
:1020600082E801066846FEF7ADFA08B10CE02D1DC6
:10207000BD42EBD308E00023214602203268FEF780
:10208000F7FA18B9241D361DBC42F4D3FEF7E6FA60
:1020900006B0BDE8F087704710B5FEF7C5FEBDE895
:1020A0001040FFF7F8BA000030B5244893B000257F
:1020B000016841F080510160006800F0805011908B
:1020C0001F48016841F4804101600068022400F467
:1020D0008040119001200090000401908001CDE922
:1020E0000640082008904FF4A870CDE909040720A5
:1020F0000B906846FFF77CF80CA90F2081E83100AF
:102100004FF4A0500F90E002109005210CA8FEF7AC
:102110003DFFFEF7F9FFFEF7FDFF4FF47A71B0FBCC
:10212000F1F0FFF7A4FA0420FFF794FA0022114619
:10213000501EFEF7F9FE13B030BD000040380240DB
:10214000007000401048016841F4700101600F48C0
:10215000016841F0010101600C4A00210832116060
:1021600002680B4B1A400260031D0A4A1A6002689B
:1021700022F48022026005480C30016002495806B2
:10218000803908607047000088ED00E000380240A8
:10219000FFFFF6FE103000242DE9F04104460068F0
:1021A000016921F44052E168114301612168C86866
:1021B00049F20C6290432369A268E5691A43636996
:1021C0002B431A430243CA602168486920F44072D5
:1021D000A06910434861E1696425B1F5004F974853
:1021E000974A21684FF032083FD0914201D0814296
:1021F0007CD1FEF7ADFF00EBC00101EB0010616880
:102200008900B0FBF1F6FEF7A3FF00EBC00101EB84
:10221000001061688900B0FBF1F0B0FBF5F06FF0E1
:102220001801484306EB800108EB0110B0FBF5F004
:1022300000F0F006FEF78CFF00EBC00101EB001090
:1022400061688900B0FBF1F0B0FBF5F006EB001619
:10225000FEF77EFF00EBC00101EB00106168890012
:10226000B0FBF1F7FEF774FFD2E0914201D081425A
:102270003DD1FEF76DFF00EBC00101EB001061687E
:102280004900B0FBF1F0B0FBF5F00601FEF760FF8E
:1022900000EBC00101EB001061684900B0FBF1F7F1
:1022A000FEF756FF00EBC00101EB0010616849002A
:1022B000B0FBF1F0B0FBF5F06FF01801484307EB0D
:1022C000800108EBC100B0FBF5F000F0F80006EB70
:1022D0004006FEF73DFF00EBC00101EB0010616816
:1022E0004900B0FBF1F7FEF733FF3CE055E0FEF7A5
:1022F00017FF00EBC00101EB001061684900B0FB63
:10230000F1F0B0FBF5F00601FEF70AFF00EBC001AB
:1023100001EB001061684900B0FBF1F7FEF700FF28
:1023200000EBC00101EB001061684900B0FBF1F067
:10233000B0FBF5F06FF01801484307EB800108EBA4
:10234000C100B0FBF5F000F0F80006EB4006FEF728
:10235000E7FE00EBC00101EB001061684900B0FB33
:10236000F1F7FEF7DDFE00EBC00101EB0010616844
:102370004900B0FBF1F0B0FBF5F06FF018014843F5
:1023800007EB800108EBC100B0FBF5F000F007009F
:10239000216830448860BDE8F081FEF7C1FE00EBA3
:1023A000C00101EB001061688900B0FBF1F6FEF797
:1023B000B7FE00EBC00101EB001061688900B0FBC3
:1023C000F1F0B0FBF5F06FF01801484306EB800127
:1023D00008EB0110B0FBF5F000F0F006FEF7A0FEF0
:1023E00000EBC00101EB001061688900B0FBF1F067
:1023F000B0FBF5F006EB0016FEF792FE00EBC00115
:1024000001EB001061688900B0FBF1F7FEF788FE70
:1024100000EBC00101EB001061688900B0FBF1F036
:10242000B0FBF5F06FF01801484307EB800108EBB3
:102430000110B0FBF5F000F00F00A9E70014014017
:10244000001001402DE9F041984617460E4604461B
:10245000069D1DE0681C1BD02DB1FEF7E1FAA0EB34
:102460000800A84214D92068C16821F4D071C16065
:102470002068416921F001014161202084F8390080
:1024800084F83A00002084F838000320BDE8F08189
:102490002068006836EA000004D00020B842D9D095
:1024A0000020F3E70120F9E710B500224FF6FF7393
:1024B00000EB8204B4F87C43240409D49A4205D08A
:1024C00000EB820041F40041C0F87C13D0B210BD93
:1024D000521CD2B20B2AEBD31A46F7E77FB51C4643
:1024E000012501AE0023009586E80E0002232A464E
:1024F000214600F099FB04B0002070BD7FB51D4659
:1025000090F81D33089C03B100240123CDE900316C
:10251000CDE9022402230022294600F085FB04B005
:10252000002070BD10B500F086FA002010BD827842
:10253000012A07D10222027401224274002242823F
:102540008182C2820022114600F00FB87FB51C467E
:10255000012501AE0023009586E80E002A4621469B
:1025600000F062FB04B0002070BD70B5044601208D
:10257000A3780546012B09D0022B06D1204600F096
:102580000AF948B1022800D1A57070BDA160A281EE
:1025900025760221A17070BDA5700021217670BD45
:1025A0007FB51D4690F81D33089C03B1002401231C
:1025B000CDE90031CDE9022400231A46294600F076
:1025C00033FB04B0002070BD1FB500231446CDE9D5
:1025D00000310822CDE902231A46214600F024FBEF
:1025E00004B0002010BDFDF7DFBF70B5002400F27D
:1025F000323004EB840505EBC40500EB4505EE7BAA
:102600000A358E4201D0FF2909D1AE79964201D018
:10261000FF2A04D1ED799D4207D0FF2B05D0641C21
:1026200064B2022CE5DBFF2070BDE0B270BD0B2967
:1026300007D200EB8100B0F87C13C1F30E01C0F8A3
:102640007C130020704730B48578029C012D0FD197
:1026500041F0800101740621417403214282B1EBF3
:10266000122F02D140F2094100E000218182C48290
:10267000224630BC1946FFF778BF0A8803781A440F
:102680000A80017808447047F8B50E4600F11C0531
:10269000009104462B464FF400720021FFF7D3FF50
:1026A000070005D13246294604F2323001F0D2F853
:1026B0003846F8BD38B50D460091044600F58E73D6
:1026C0004FF480720021FFF7BEFF01003DD104F5F9
:1026D000487094F81C21027094F81D21427094F8FF
:1026E0001E2194F81F31082D02EB0322428094F83A
:1026F0002021027194F82121427194F822218271E3
:1027000094F82321C27120D994F8242194F825311A
:1027100002EB0322028194F8262194F8273102EB80
:102720000322428194F8282194F8293102EB0322F4
:10273000828194F82A21827394F82B21C27394F831
:102740002C21027494F82D214274084638BDF8B546
:102750001C461646009341F4407200F58E731D46E8
:102760000021FFF770FF002814D16978032911D1E7
:1027700029788A1EA24200DC14460021A2B2AD1CB8
:1027800004E06B5C891C06F8013B89B29142F8D3E6
:1027900000213170F8BD2DE9F84F04460125007E77
:1027A0000B262F464FF009084FF007094FF0050B95
:1027B0004FF00D0A0C281ED2DFE800F0A9060E210A
:1027C0002C38445C67788495627904F110012046C6
:1027D000FFF7FAFE02200DE06179204600F095F93E
:1027E000012877D1207CE18A00F0800021B1802887
:1027F0003BD1032020768AE0802814D02FE0D4F843
:10280000B803E0812379A2892046A168FFF79EFEE4
:102810000420EFE72179204600F077F9012802D063
:10282000052841D056E084F8188070E0009763795D
:10283000A2892046A168FFF7B3FED4F8B803E0816F
:102840000620D7E76179204600F05FF9012806D01D
:10285000052807D0022808D0042809D057E084F8BA
:10286000189054E00C2020761EE084F818B04EE05A
:1028700026764BE00022237911462046FFF766FEBC
:10288000D4F8B803E0810820B4E72179204600F0AD
:102890003CF9012804D0042823D0052804D036E0D0
:1028A00084F818A0002532E0032530E000970022CC
:1028B000637911462046FFF773FED4F8B803E08130
:1028C0000A2097E76179204600F01FF9012804D01B
:1028D0000228A8D0042804D019E0002584F818A004
:1028E00015E0267613E0607E401CC0B260760228B8
:1028F00005D8204600F088F92776A77007E0D4F8BD
:10290000C4230621204690470020607602252846F1
:10291000BDE8F88FFEB5044601264078002537460D
:1029200004F58E7208286CD2DFE800F004161D430F
:102930004A53576208212046FFF7BCFE002860D1A9
:1029400094F82703A071677094F81D130091CDE9E6
:10295000015094F81C3319E012212046FFF7AAFE1B
:1029600030BB022033E00121204601F0B4F8F8B971
:102970000220FFF738FE84F81C7303206070A079F2
:1029800094F81D13CDE900153B4602902179802271
:10299000204600F055FFA07994F81D130091CDE971
:1029A000015094F81C3361790022204600F048FF62
:1029B00027E009212046FFF767FE10BB042006E050
:1029C000B4F834132046FFF75FFED0B905206070DD
:1029D00017E094F82E13062502E094F82F1307252C
:1029E00021B1FF232046FFF7B2FE50B9657008E021
:1029F00094F8301321B1FF232046FFF7A8FE00B959
:102A000000263046FEBD70B50D46040011D084F896
:102A1000BC230020C4F87403C4F878032046FDF7F3
:102A20001DFC0DB1C4F8C453204600F081F800200D
:102A300070BD022070BD10B50024D0F8C003FEF7B1
:102A400010F830B1012801D0022801D0022400E0A2
:102A50000124204610BD10B5017819B10178012973
:102A600009D00AE0012180F81E13D0F8C42322B156
:102A70000421904701E002210170002010BD10B533
:102A8000044600F0C1F821792046FFF7D0FD6179B6
:102A90002046FFF7CCFD002084F81E03D4F8C423A1
:102AA00012B1052120469047204600F09DF80320F2
:102AB0002070002010BD10B5C820FDF775FD002066
:102AC00010BDD0F8C003FDF7C6BF10B50124D0F883
:102AD000C003FDF7B6FF20B1012805D0022803D1BD
:102AE00001E0002400E00224204610BDD0F8C0031D
:102AF00001EB810100EBC10090F83B1011B190F89F
:102B00005000704790F851007047D0F8C003FDF7AF
:102B10009BBFD0F8B813491CC0F8B81301780A2934
:102B200005D1D0F87413002901D08969084770478E
:102B300010B5044690F8BC03012819D10D484FF098
:102B4000A0410022C0F89442C4F8C00301600821EB
:102B500081600321C0E903120221C0E90612FEF7D9
:102B6000B0F80448FDF76AFF0146204600F029F856
:102B7000002010BD2C1B0020FEB508AC94E8E0003E
:102B80008DE8E0000024D0F8C003FDF77CFF30B1F1
:102B9000012801D0022801D0022400E001242046AF
:102BA000FEBD10B50024D0F8C003FEF70DF930B11A
:102BB000012801D0022801D0022400E0012420468F
:102BC00010BDC0F8B8137047D0F8C00301EB810105
:102BD00000EBC10090F83B1011B180F8502001E0EB
:102BE00080F851200020704710B50024D0F8C003B1
:102BF000FEF7F1F830B1012801D0022801D00224FB
:102C000000E00124204610BD10B50024D0F8C00318
:102C1000FEF7F7F830B1012801D0022801D00224D4
:102C200000E00124204610BD2DE9FF410AAC94E8E4
:102C3000E0108DE8E0100024D0F8C003FDF74EFF4F
:102C400030B1012801D0022801D0022400E0012483
:102C500004B02046BDE8F08103460220D3F8741387
:102C6000C9692AB1012A05D189791846FFF75FBCE5
:102C7000C979FAE770470000D0F874030549C069C4
:102C8000416505498165012100F8501F81700020D0
:102C90007047000055534243504030202DE9F84F13
:102CA0000746D0F8740301263546C4694FF00B0A75
:102CB0004FF00A0B94F850004FF009094FF0070845
:102CC0000C2845D2DFE800F0D20611252E485275B7
:102CD0007EA7AFCB84F86110022084F850000095E5
:102CE00063791F2204F1540159E061793846FFF7F6
:102CF0000CFF012802D002287ED03FE0E06D0028C2
:102D000029D094F86000000601D503204BE005208F
:102D100049E0237962893846D4F88C10FFF7DEFB4E
:102D2000042040E021793846FFF7EFFE01284FD11B
:102D30006289E06D90420CD9D4F88C10801A11444D
:102D4000C4F88C10E0656BD023793846FFF7C6FBDA
:102D50008CE00020E06563E00095637922893846C5
:102D6000D4F88C10FFF7CAFB06201CE061793846C6
:102D7000FFF7CBFE012804D00228C8D0052815D0C3
:102D800074E02289E06D9042E3D9D4F88C10801A67
:102D90001144C4F88C10E06542D000956379384640
:102DA000FFF7ACFB62E084F850005FE084F850B0BD
:102DB0005CE023790D2204F178013846FFF78EFBA1
:102DC0000820F0E721793846FFF79FFE012802D05E
:102DD00005281DD04AE004F8505F3846A570D7F8A2
:102DE0007413CC692179FFF76CFE0D280CD12149B1
:102DF000A06F884208D100E036E0A16DE06F884204
:102E000002D194F8840008B102262FE000262DE0BC
:102E100084F850902AE000223846FFF71DFF38B9A9
:102E200084F8508022E001223846FFF715FF10B1E8
:102E3000042811D01AE061793846FFF757FEC0F137
:102E40000100C2B261793846FFF7BEFE2179002247
:102E50003846FFF7B9FEDBE784F850A006E03846B5
:102E600000F015F8060001D184F850503046BDE856
:102E7000F88F000055534253A1220274FE2242747F
:102E80000022428282820122C282FFF76EBB212190
:102E90000174FF214174002141828182C1820A466E
:102EA000FFF763BB70B5D0F874130125CC69A17B23
:102EB00021B1022902D0032928D121E02146FFF7C0
:102EC000DBFF00210546032801D015B11EE00025D7
:102ED00021602078401C2060002002230CE000BF0D
:102EE00000EB800202EBC00204EB8202401C82F87D
:102EF000923082F8C110C0B222688242F0D805E058
:102F00000021FFF714FB08B9E07BA073284670BDD1
:102F100010B51446D0F874230078D3690A2801D07C
:102F2000022010BD01EB810000EBC10003EB80012A
:102F3000342220469031FDF743F9002010BD70B5D2
:102F40000546D0F874030026C469617939B1284672
:102F5000FFF7E8FA61792846FFF769FB6671217986
:102F600039B12846FFF7DEFA21792846FFF75FFBE3
:102F70002671D5F87403C06920B102F0D5FED5F8EA
:102F80007403C661002070BDFEB50546D0F8740319
:102F900002245023017906222846FFF726FB01462A
:102FA000FF287DD0284600F08BFDE00103F04EF8AD
:102FB000D5F874130446C86195F81F0300EB80012F
:102FC00001EBC00005EB400090F8480301060CD56A
:102FD000E07195F81F0300EB800101EBC00005EBE9
:102FE0004000B0F84A0360810BE0A07195F81F0320
:102FF00000EB800101EBC00005EB4000B0F84A0394
:10300000208195F81F0300EB800101EBC00005EB68
:10301000400090F8500301060CD5E07195F81F03AD
:1030200000EB800101EBC00005EB4000B0F852035B
:1030300060810BE0A07195F81F0300EB800101EBAC
:10304000C00005EB4000B0F8520320810020A4F836
:10305000F800A4F8FA0020736073A073A1792846E1
:10306000FFF722FA6071E1792846FFF71DFA207117
:103070002846FFF701FE682104F19000FDF7B9F83A
:10308000208995F81D1302260091CDE9016095F87D
:103090001C33A2796179284600F0D2FB608900E0F8
:1030A00016E095F81D130091CDE9016095F81C33E9
:1030B000E2792179284600F0C3FB217900222846D5
:1030C000FFF782FD617900222846FFF77DFD00248D
:1030D0002046FEBD2DE9F0470746D0F874034FF0B7
:1030E000010AC469207B10B101287DD135E1B4F813
:1030F000F800216801254FF00008884275D200EBE6
:10310000800101EBC00004EB8000022680F89150A2
:10311000B4F8F8004FF0050900EB800101EBC001A5
:1031200004EB810292F8901009295DD2DFE801F0EA
:10313000055C26910CBA5C5CF200042082F89000D9
:10314000D7F8B803C4F8FC00B4F8F80000EB80012D
:1031500001EBC00104EB8102C1B238469F3200F09E
:103160008DF940B9B4F8F80000EB800101EBC00024
:1031700004EB8000B8E002287DD09BE0C1B2384665
:1031800000F0A0FA10B1022833D093E0B4F8F800B0
:1031900000EB800101EBC00004EB800090F892107E
:1031A00011B180F8C15001E080F8C180B4F8F82076
:1031B000032002EB820101EBC20104EB810181F8E3
:1031C0009000B4F8F81001EB810202EBC10104EBAE
:1031D000810181F89180B4F8F81001EB810202EBD3
:1031E000C10104EB810101E0B9E0ADE081F892801A
:1031F000B5E0B4F8F80000EB800101EBC00004EB8F
:10320000800090F89210022902D080F8C15001E0AD
:1032100080F8C180B4F8F81001EB810202EBC10123
:1032200004EB810181F89090B4F8F80000EB800184
:1032300001EBC00004EB800080F89150B4F8F80076
:1032400000EB800101EBC00004EB800080F892608D
:1032500085E0C1B23846943200F0AEF900288AD138
:10326000B4F8F80000EB800101EBC00004EB800033
:1032700080F8905000E00AE0B4F8F81001EB810209
:1032800002EBC10104EB810181F8918031E0B4F8D7
:10329000F81001EB810202EBC10104EB810181F81E
:1032A00090905CE0C1B238469C3200F0C2F920B187
:1032B000022823D004282ED051E0B4F8F80000EB07
:1032C000800101EBC00004EB800090F89C100629FF
:1032D00001D002290BD1D7F8B813D4F8FC20891AF1
:1032E00042F21072914202D280F8906037E080F88A
:1032F000905034F8F80F401C208030E0B4F8F810FB
:10330000082001EB810202EBC10104EB810181F88D
:10331000900024E014E0B4F8F80000EB800101EB29
:10332000C00004EB800080F89050B4F8F80000EB87
:10333000800101EBC00004EB800080F891600EE09A
:10334000401CA4F8F8000AE0A4F8F8802573D7F828
:10335000C42302213846904701E04FF0000A50464E
:10336000BDE8F0872DE9F843D0F8742301EB810321
:1033700003EBC103D269012502EB8304082794F80B
:1033800090302E46052B22D000224FF00508062B48
:1033900002D0072B2AD10CE0002300921A4600F03D
:1033A000CDF80BE002280FD018E000BF84F8907031
:1033B0001BE0002300921A4600F0AAF90028F1D180
:1033C00084F89060002511E084F890800EE004F10C
:1033D0009C0200F02EF920B1022807D00428E5D085
:1033E00004E004F8906F0220607002252846BDE8D2
:1033F000F8832DE9F8430446D0F87403089E0F467D
:10340000C56994F81E0360B120780A2809D107EB3A
:10341000870000EBC70005EB800090F890100129B1
:1034200002D00220BDE8F8830621297380F89010AD
:10343000A5F8FA7039462046009600F07FF8D4F8D7
:10344000B88340F271204FF00109464309E0D4F8F7
:10345000B813A1EB0800B0EB061F0CD894F81E03BC
:1034600048B139462046FFF77DFF0128EFD085F8A7
:103470000C900020D6E785F80C90D2E770B5154681
:10348000D0F874230226D46994F85220012A02D07D
:10349000022A51D128E024228020E26584F86000CD
:1034A0000A2084F862000020C4F86300C4F86700B2
:1034B000A4F86B00122384F86330490184F8641087
:1034C00084F8650084F8660084F8672084F8680052
:1034D000012084F85000022084F8520004F110000A
:1034E0000126C4F88C0027E0FFF7D8FB060023D1A3
:1034F00022212846FCF77DFE54F88C0F102200781C
:1035000000F01F006870206800784009287020686B
:103510004078C009A87020688168C5F80310C068A9
:10352000C5F80700216805F10C001031FCF748FED2
:103530002068006AC5F81D00304670BD2DE9F041D5
:10354000154602461F46D2F874330220069EDC69F7
:1035500094F85230012B06D0022B2BD1BDE8F0415C
:103560001046FFF79BBB7002E065802084F8600086
:103570000A2084F86200102104F16300FCF739FE90
:10358000282084F86300280E84F86500280C84F84D
:103590006600280A84F8670084F86850300A84F8C6
:1035A0006A0084F86B60012004F8500F0220A070BC
:1035B0000120E763BDE8F08170B51646D0F87423AA
:1035C0000125D46994F85220012A02D0022A2ED172
:1035D0001AE00820E065802084F860000A2084F862
:1035E0006200102104F16300FCF703FE252084F83B
:1035F0006300012084F85000022084F8520004F196
:103600001000C4F88C0012E0FFF748FB05000ED153
:1036100054F88C0F4188427849BA007862F31F4110
:1036200041EA006030602068C08840BAB080284617
:1036300070BD70B5154602460E46D2F874130220CE
:10364000CC6994F85210012914D0022911D13146C5
:103650001046FFF723FB00280BD154F88C1F897804
:1036600001F00F0129702168097B69702168497B8D
:10367000A97070BD0E258020E56584F860000A20E1
:1036800084F86200102104F16300FCF7B2FD03200E
:1036900084F86300700184F86400002084F86500F9
:1036A00084F8660084F8675084F86800012084F884
:1036B0005000022084F8520004F11000C4F88C007D
:1036C000012070BD70B502460220D2F87433DC6967
:1036D00094F85230012B06D0022B18D1BDE870406F
:1036E0001046FFF7DBBA0025E56584F860500A2034
:1036F00084F86200102104F16300FCF77AFD84F87D
:103700006350012004F8500F0220A070012070BD0A
:103710002DE9F041154602461F46D2F874330220C7
:10372000069EDC6994F85230012B06D0022B2BD177
:10373000BDE8F0411046FFF7B1BA7002E065002025
:1037400084F860000A2084F86200102104F163000C
:10375000FCF74FFD2A2084F86300280E84F86500EA
:10376000280C84F86600280A84F8670084F86850FA
:10377000300A84F86A0084F86B60012004F8500F66
:103780000220A0700120E763BDE8F08100207047AF
:10379000D0F874230078D2690A2808D101EB81009F
:1037A00000EBC10002EB800090F8910008B100200E
:1037B0007047012070472DE9F8430446D0F87403A0
:1037C000089E0F46C56994F81E0360B120780A2848
:1037D00009D107EB870000EBC70005EB800090F8EC
:1037E0009010012902D00220BDE8F8830721297337
:1037F00080F89010A5F8FA70394620460096FFF739
:1038000087FFD4F8B88340F271204FF00109464396
:1038100009E0D4F8B813A1EB0800B0EB061F0CD8F0
:1038200094F81E0348B139462046FFF79BFD012856
:10383000EFD085F80C900020D6E785F80C90D2E701
:10384000FEB508AF97E870008DE87000FFF794F9B7
:103850000020FEBD2DE9F84105460B782B704B7812
:103860006B708B78CC78084603EB04236B800B7964
:103870002B714B796B718B79AB71CB79EB71002725
:10388000017A2972092A57D90921ADF800104EE0B2
:103890006946FEF7F2FE4178042946D107EB87011D
:1038A00001EBC70105EB4108017888F80A1041785F
:1038B00088F80B10817888F80C10C17888F80D1002
:1038C000017988F80E10417988F80F10817988F80D
:1038D0001010C17908F10A0488F81110017A2172D8
:1038E000002618E06946FEF7C8FE4178052912D186
:1038F00008EBC60102780A7542784A7582788A75A3
:10390000C278CA7502794379761C02EB03220A83D6
:1039100082798A7676B22179B14204DD6988BDF870
:1039200000209142DED87F1C7FB2022F04DA6A8821
:10393000BDF800108A42ABD8BDE8F881FEB5044658
:1039400002208DF800002178002008270C2605466B
:103950000B2913D2DFE801F006A41399A442825088
:10396000575F920094F81E03002807D001202070B2
:10397000C820FEF738FE2046FFF713F990E06420D8
:10398000FEF731FE2046FFF7A0F884F81D0305205E
:10399000207000212046FEF787FD607180212046BF
:1039A000FEF782FD20710146A07994F81D23009254
:1039B000CDE9015094F81C3380222046FFF740FFE8
:1039C000A07994F81D130091CDE9015094F81C33AF
:1039D000617900222046FFF733FF61E02046FEF7C1
:1039E00099FFD0BB84F81F5394F83103012801D00C
:1039F00007203FE0277053E0D4F8C4236AB30121C5
:103A000020469047F6E794F83713204600F071F807
:103A100018BB09202EE0D4F87813F1B1C4F8745320
:103A200094F8412304EB8001D1F870130B79934291
:103A300001D1C4F87413401C10F0FF00F2D0D4F888
:103A40007403C8B1816820468847A8B90620207051
:103A5000D4F8C42303212046904721E0D4F874030E
:103A600050B10169204688478DF800009DF800009C
:103A7000B0B90A20207013E0267011E0D4F8740366
:103A800070B14169204688470AE02046FCF7E6FB12
:103A9000D4F8740320B1C16820468847C4F8745331
:103AA0000020FEBD002211B1D0F8783313B10222FC
:103AB000104670470123C0F87833C0F87013F7E759
:103AC0000246002092F836338B4202D982F81F1347
:103AD0007047022070478278012A06D100220274C2
:103AE0000523437441828282C28200221146FEF77E
:103AF0003CBD8278012A06D1002202740923437456
:103B000041828282C28200221146FEF72EBD10B58C
:103B10000446FFF769F801212046FEF7CCFF00209C
:103B200010BD000001290AD00548022905D004294A
:103B300005D0052903D1022100E001210170704761
:103B4000300000200020704730B58DB015460124AC
:103B500049B1012909D0022910D003290ED004242B
:103B60000DB0204630BD0024FAE701466A460948F8
:103B7000FFF7CEF90028F3D1019808E001466A4624
:103B80000448FFF7C5F90028EAD1BDF8080028600D
:103B9000E9E70000A80200202DE9F04381468FB03C
:103BA0001C4616460D46880713D04FF400780127AF
:103BB000641E26D33219154B494615480097FFF766
:103BC00018FC68B905EB442042461049FCF7F8FAA6
:103BD000EEE700930B4649460D48FFF70AFC80B11B
:103BE00001AA49460A48FFF793F99DF811000428F5
:103BF00009D0282807D03A2805D001200FB0BDE809
:103C0000F0830020FAE70320F8E70000840000209A
:103C1000A802002010B5014601240348FFF7B8FDB3
:103C200000B10024204610BDA80200202DE9F04379
:103C300081460D4600208FB01C461646890714D0D9
:103C400001274FF40078641E15D305EB442142464A
:103C50001548FCF7B5FA3219134B4946134800973B
:103C6000FFF7A9FD0228EED107E000932B46494655
:103C70000E48FFF7A0FD00280FD001AA49460B48C7
:103C8000FFF746F99DF8110004280BD0272807D02C
:103C9000282807D03A2805D001200FB0BDE8F083CE
:103CA0000220FAE70320F8E784000020A8020020A1
:103CB00070B50446049D06990D9801290CD0E06862
:103CC00040F04000E060204600F028F84FF48030DB
:103CD000A063012D16D01DE0A16B21F48031A163FA
:103CE000E1680D4A1140E160E16821F44011E160B2
:103CF000012803D1E06840F48010E060204600F025
:103D00000DF8E6E7A06840F00600A060A06840F06B
:103D10002000A060002070BDBFFFBDFF01220C4944
:103D200002E0521C8A420BD80369002BF9DA0269BF
:103D300042F001020261012204E0521C8A4201D9D0
:103D4000032070470369DB07F7D1002070470000AC
:103D5000400D0300816821F001018160002070475F
:103D600030B50246012400230C4800EAC44040F06C
:103D7000004502F5A06000EB4110056102F5A0606E
:103D800000EB4110036823F0804343F0004302F549
:103D9000A06000EB41100360002030BD0000F81F60
:103DA00008B5D0F8402422F02E020092D20405D4A7
:103DB000012909D1009941F4805103E021B900990A
:103DC00021F48051C0F84014002008BD816841F002
:103DD0000101816000207047002110220261054A24
:103DE000491C914201D9032070470369DB06F7D4CF
:103DF00000207047400D03000022202343EA811178
:103E000001610549521C8A4201D9032070470369A8
:103E10009B06F7D400207047400D0300D0F808043B
:103E200080B2704708B5D0F840040090C0F341401C
:103E300008BD406900F00100704710B5024600233C
:103E400002F5A06000EB41100068C0F3814040B172
:103E500002F5A06000EB41100068C0F38140022829
:103E600046D102F5A06000EB4110006840F08044AC
:103E700002F5A06000EB41100460D06A00F47F00FE
:103E800048BB02F5A06000EB4110006820F0004440
:103E900002F5A06000EB4110046002F5A06000EBA9
:103EA0004110006840F0004402F5A06000EB4110B2
:103EB000046000BF581C0346B0F57A7F00D909E0C2
:103EC00002F5A06000EB4110006800F00040B0F186
:103ED000004FEFD053E002F5A06000EB4110006806
:103EE00040F0004402F5A06000EB4110046046E0A1
:103EF00002F5A06000EB4110006840F0804402F53C
:103F0000A06000EB411004604FF48260805880B2E2
:103F100048BB02F5A06000EB4110006820F00044AF
:103F200002F5A06000EB4110046002F5A06000EB18
:103F30004110006840F0004402F5A06000EB411021
:103F4000046000BF581C0346B0F57A7F00D909E031
:103F500002F5A06000EB4110006800F00040B0F1F5
:103F6000004FEFD00BE002F5A06000EB41100068BD
:103F700040F0004402F5A06000EB41100460002016
:103F800010BD0000F0B5DDE906564FF0FF3C00EB38
:103F90004114059FC4F808C535B1012D21D0022D6B
:103FA00002D0032D2AD114E040F29D4CC4F80CC578
:103FB0005FEA026C05D500BFD4F80CC54CF4807CD8
:103FC0001AE0B0F1A04F19D0D4F80CC54CF0600C39
:103FD00012E040F29D6CC4F80CC55FEA026CEBD4B1
:103FE0000CE040F2252CC4F80CC55FEA026C05D544
:103FF000D4F80CC54CF4C07CC4F80CC5D0F818C477
:104000004FF0010E0EFA01FE4CEA0E0CC0F818C477
:10401000816941F0007181614FF0FE5000EA8350E8
:104020004FF4F04101EAC22108434FF4004101EA94
:1040300002210843022F10D05FF0000140EA414006
:104040004FF4402101EA85410843C6F30A010843C1
:10405000C4F80005032D02D007E00121EEE7D4F8F3
:10406000000540F00050C4F800050020F0BD0146F6
:1040700040F21440405880B2704700002DE9F84FDC
:1040800005460C4616464FF0000BDA4600274FF463
:104090008078B946B5F1A04F1CD02079D0B94EB97F
:1040A0006079012806D161782846FFF759FE002083
:1040B000BDE8F88F012E0DD1607805F5A06101EB08
:1040C0004010C06820F06002607801EB4010C260D0
:1040D00000206071206968B1218920690844401E70
:1040E000B0FBF1F087B2474505DD474620897843AC
:1040F000206100E00127E07810B120897843206139
:104100002069C0F312003E4901EAC7410843A17A81
:104110004FF0C04202EA41710843617805F5A062A0
:1041200002EB4111086136B1607805F5A06101EB41
:104130004010E26842614FF48160405900F0010094
:1041400080F0010B607805F5A06101EB401000687C
:1041500020F00052607801EB40100260607801EBC3
:104160004010006840EA4B72607801EB401002603A
:10417000607801EB4010D0F8009029F0804949F0B8
:104180000049607801EB4010C0F80090AEBBE078C9
:1041900098BB206988B3E07930B1012813D0022898
:1041A00003D003281ED10DE000BF2069C01CC0F35E
:1041B0008F0AE86A80B2504503D2A86940F0200017
:1041C000A86110E000BF2069C01CC0F38F0A4FF443
:1041D0008260405980B2504503D2A86940F08060A7
:1041E000A86100E000BF00BF00200090208A83B2D9
:1041F00062782846E16800F0E3F9002058E7000003
:104200000000F81F2DE9F047174604460025DDF8A9
:104210002090C0F8005E806B20F48020A063A06B2B
:1042200020F40020A063A06B40F40010A0634FF0C6
:10423000A048032B06D1444504D0D4F8000440F034
:10424000040003E0D4F8000420F00400C4F80004E3
:1042500010212046FFF7D0FD2046FFF7BDFD0020CE
:10426000461E06E004EB4011C1F80865C1F80C5584
:10427000401C8742F6D801212046FFF791FDC82057
:10428000FCF792F9A5616661444505D18020606222
:104290000C48A0620C4805E04FF4007060620B48C7
:1042A000A0620B48C4F80001B9F1000F03D1A06966
:1042B00040F01000A061A06906490843A0610020F9
:1042C000BDE8F08780006000E000400000020001CF
:1042D0000003E000080020A32DE9FC410025012295
:1042E0002FA1304800F086FF2F4C607018B12FA02E
:1042F00000F07CF9FEE7012230A1334800F0A8FF6E
:104300006070011E03D031A000F070F9FEE72E4866
:10431000D0F80C7232A0394600F068F9354E4FF4EF
:104320000068009601AB42463349274801F056F930
:104330006070BDF80420154480B97AB12E49009808
:1043400001F0ACFD64206843B0FBF7F12BA000F056
:104350004DF9009800F500600090E3E729462BA096
:1043600000F044F9184800F0EDFD70680821B1EB49
:10437000106F10D129A000F039F9FDF71BFD30486E
:10438000FCF7CCFC1C484038FDF7BAF9304601F088
:1043900074FDBDE8FC812BA000F028F9F9E70000CE
:1043A000303A000070060020300000204D6F756E1E
:1043B00074206661696C65640D0A00007570646143
:1043C00074612E62696E0000A00800204F70656E57
:1043D000206661696C65643A25640D0A000000007E
:1043E00046696C652073697A653A2564427974651B
:1043F0000D0A0000000001082C1300205772697498
:104400006525346425250D0A00000000546F746191
:104410006C3A2564427974650D0A00005570677224
:1044200061646520737563636573736564202C6ACA
:10443000756D7020746F204170700D0A00000000CF
:104440002C1B002055706772616465206661696C81
:1044500065640D0A00000000D0F8002422F0030279
:10446000C0F80024D0F8002401F003031A43C0F878
:104470000024012902D0022903D006E04BF6803146
:1044800001E041F27071C0F80414002070474169E6
:1044900080690840704710B503460020D21C92087E
:1044A00003F5805303E01C6841F8044B401C904224
:1044B000F9D3084610BD38B50446D0F8400420F0C2
:1044C0002E00009040F48070C4F840040A2004F5E7
:1044D0008864FCF769F8009820F480702060002060
:1044E00038BD10B5C26822F0C042C260012901D0B7
:1044F00021B107E0C16841F0005102E0C16841F01C
:104500008041C1603220FCF74FF8002010BDF0B5AB
:1045100005460027A86820F00100A8601021284661
:10452000FFF76AFC2846FFF757FC002411E005F569
:10453000A06000EB4410066846F0804626F0004676
:1045400026F4004605F5A06000EB44100660601CF0
:10455000C4B20F2CEBDD002423E005F5A06000EBD6
:104560004410066846F0804646F0004626F40046B1
:1045700005F5A06000EB4410066000BF781C0746FC
:10458000B0F57A7F00D909E005F5A06000EB441092
:10459000006800F00040B0F1004FEFD000BF601C99
:1045A000C4B20F2CD9DD4FF0FF3140F2144041511D
:1045B00008466861A86840F00100A8600020F0BDCE
:1045C00030B50024039D6DB9DB1C9B0800EB023065
:1045D00000F5805004E000BF51F8042B0260641C19
:1045E0009C42F9D3002030BDFEE700000FB4054B1C
:1045F00010B503A9044A029800F018F810BC5DF841
:1046000014FB0000115D00085800002002E008C8FB
:10461000121F08C1002AFAD170477047002001E03C
:1046200001C1121F002AFBD1704700002DE9FF4F86
:104630008BB088460546002606E025280BD0DDE92C
:104640000D1290476D1C761C28780028F5D10FB00C
:104650003046BDE8F08F0024A146A2460122AE49B3
:1046600000E0044315F8013F203B02FA03F0084242
:10467000F7D128782A2810D06FF02F022878A0F1DF
:104680003001092915D809EB890102EB410144F0F9
:10469000020400EB01096D1CF0E758F8041B5FEA07
:1046A000010903D544F40054C9F1000944F002049F
:1046B0006D1C28782E2817D115F8010F44F004043A
:1046C0002A280ED06FF02F022878A0F13001092996
:1046D0000AD80AEB8A0102EB410100EB010A6D1CCA
:1046E000F2E758F804AB6D1C28786C280FD006DC74
:1046F0004C2817D068280DD06A2814D104E07428FB
:1047000010D07A280FD10DE044F400140AE044F4EC
:10471000801401E044F440146978814202D104F528
:1047200080146D1C6D1C2878692865D006DC002873
:104730008DD0632827D0642806D15DE06E2808D08C
:1047400073282AD0752877D0DDE90D129047761CA2
:10475000E0E0C4F30250022809D003280DD0D8F8B5
:10476000001004280DD00E6008F10408D2E0D8F83B
:104770000010F217C1E90062F6E7D8F800100E80C9
:10478000F2E70E70F0E718F8041B8DF80010002017
:104790008DF80100EB46012003E058F804BB4FF010
:1047A000FF3061074FF0000701D40AE07F1C574536
:1047B0000DDA8742FADB1BF807100029F6D106E074
:1047C0007F1C8742FCDB1BF807100029F8D1DDE9CC
:1047D0000D23A9EB07008146214600F0B1F83044D3
:1047E000C61904E0DDE90D121BF8010B90477F1E8E
:1047F000F8D22146484688E058F8040BC4F3025129
:104800004FF00A0B032900D100B2042900D140B2B5
:10481000002802DA40422D2102E0210505D52B2196
:104820008DF82410012104E006E0E10710D02021DA
:10483000F6E708AF089113E058F8040BC4F30251EF
:104840004FF00A0B032900D180B2042900D1C0B275
:104850000021EEE75946FBF7D7FC303107F8011D80
:104860000028F7D1ADEB070000F1200B600702D55F
:1048700024F4803401E04FF0010ADA4502DDAAEBAE
:104880000B0000E00020824600EB0B010898014479
:10489000A9EB01000A90E00306D4DDE90D232146CF
:1048A0000A9800F04DF806444FF0000908E009A905
:1048B00011F80900DDE90D12904709F10109761C94
:1048C00008998945F3DBE0030CD5DDE90D2321468A
:1048D0000A9800F035F8064404E0DDE90D123020B6
:1048E0009047761CBAF10001AAF1010AF5DC05E057
:1048F000DDE90D1217F8010B9047761CBBF10001A2
:10490000ABF1010BF4DC0A982146DDE90D2300F040
:1049100005F806446D1C97E6092801002DE9F041D1
:10492000044600251E461746880404D405E039468F
:104930002020B0476D1C641EF9D52846BDE8F081E3
:104940002DE9F041044600251E469046C80301D5D6
:10495000302700E02027880404D505E0414638468A
:10496000B0476D1C641EF9D52846BDE8F0810000F3
:1049700010B50446002084F80402401EC4F82C023E
:10498000204601F0A9FB08B1032010BDB4F8FE01D8
:10499000A0F52A41553901D0022010BD94F8360007
:1049A000B4F8371040EA01210848B0EB012F08D0D5
:1049B00094F85210B4F8532041EA0221B0EB012FD1
:1049C00001D1002010BD012010BD0000004641545F
:1049D000F0B50022184B144602EB420653F826505D
:1049E00085B1D0F80072BD420DD103EB8605D0F839
:1049F00008626F68B74206D12D89B0F80662B542E9
:104A000004D000E00124521C022AE5D3022A01D07E
:104A100079B904E05CB9022909D01220F0BD02EB9B
:104A2000420003EB80004089B0F5807F01D0002078
:104A3000F0BD1020F0BD00008402002030B5002140
:104A4000064A0C4601EB410352F82350854201D13E
:104A500042F82340491C0229F4D330BD84020020CF
:104A6000D0F82422D0F80002490A90F80202B1FBE3
:104A7000F0F0121D02CA19B1884203D3401AF8E7B8
:104A800000207047116808447047D0F81422891E2E
:104A9000921E8A4201D800207047D0F8282290F850
:104AA000020201FB002070472DE9F0410F0005468E
:104AB00006D001F061F902280BD20120BDE8F08197
:104AC000D5F80C621EB1D5F81402B04208D8012600
:104AD00006E0411CF2D0D5F814128142EED83E46D1
:104AE0003446D5F81402641CA04202D80224022ED7
:104AF0000AD32146284601F03FF938B1411CDDD0E8
:104B00000128DBD0B442ECD10020D7E76FF070422F
:104B10002146284601F0FBFA30B957B12246394602
:104B2000284601F0F4FA20B1012812D001242046D1
:104B3000C4E7C5F80C42D5F81002411CF7D0401E5E
:104B4000C5F8100295F8050240F0010085F805024D
:104B5000EDE74FF0FF34EAE72DE9F04789460C68AE
:104B600000E0641C21782F29FBD05C29F9D0D0F813
:104B700018520B222021284601F0A7FA00200146F6
:104B80000B460826E25C5B1C202A2FD92F2A2DD049
:104B90005C2A2BD02E2A01D0B04208D3082E32D165
:104BA0002E2A30D108200B268906090EEAE7802A32
:104BB00029D221A700E07F1C97F800C0BCF1000FAC
:104BC00002D09445F7D11EE0A2F14107192F02D877
:104BD00041F0020107E0A2F16107192F03D8203A42
:104BE00041F00101D2B22A54401CCBE71C44C9F861
:104BF0000040202A01D8042200E0002218B12878C1
:104C0000E52803D004E00620BDE8F08705202870E1
:104C1000082E01D18806010E01F00300012801D100
:104C200042F01002C1F38100012801D142F00802D4
:104C3000EA720020E8E70000222A2B2C3A3B3C3D98
:104C40003E3F5B5D7C7F0000401E022815D20C4B6E
:104C500000EB400203EB82014889B0F5807F05D06C
:104C600008B1401E80B2488110B104E00020FAE78C
:104C7000002043F822000020704702207047000007
:104C8000840200202DE9F041B0F806620446761C4B
:104C900030040F46000C37D0D4F8100298B3310717
:104CA00073D1401CC4F81002D4F80C12D4F80002DE
:104CB00031B190F80222521E12EA161F05D064E0AC
:104CC000B0F80802B0421FD95FE001F055F8054680
:104CD00001281ED9681C3AD0D4F80002D0F814126A
:104CE000A94249D87FB1D4F80C12FFF7DDFE0500C8
:104CF0000DD0012D0DD0681C29D0D4F8000201F090
:104D00003FFB20BB07E0FFE70420BDE8F081072060
:104D1000FBE70220F9E74FF400720021D4F800020B
:104D200001F0D3F92946D4F80002FFF7AEFED4F81B
:104D3000001200274FF00108C1F82C0211E000BF5B
:104D400080F80482D4F8000201F01AFB08B10120B7
:104D5000DBE7D4F80002D0F82C12491C7F1CC0F805
:104D60002C12D4F8000290F80212B942E8D8D0F818
:104D70002C12C91BC0F82C12C4F80C522946D4F8C6
:104D80000002FFF782FEC4F81002A4F80662D4F80D
:104D9000000206F00F0100EB4110C4F814020020DD
:104DA000B3E770B50446002100F036F810E0D4F8FF
:104DB0001012D4F8000201F08FF958B9D4F8140297
:104DC0000078E52809D040B101212046FFF75AFFBD
:104DD0000028ECD0042809D009E0D4F81012D4F847
:104DE000000201F079F9050003D013E00720054621
:104DF00010E0D4F814022022002104F5007401F020
:104E000064F9D4E905010B2201F056F9216801206B
:104E100081F80402284670BD70B5A0F80612D0F8DB
:104E200008320D460446012B40D0D4F80002D0F8D9
:104E3000141299423AD933B990F80012032906D1D5
:104E4000D0F824321BB190F80202060114E0B0F849
:104E50000812A9422AD9D0F8240214E000F08CFFED
:104E60000346401C20D0022B20D3D4F80002D0F8F7
:104E7000140298421AD9AD1BD4F80002B542194663
:104E8000ECD2FFF702FEC4F80C3278B100EB15103B
:104E9000C4F81002D4F8000205F00F0100EB411035
:104EA000C4F81402002070BD012070BD022070BD46
:104EB000084910B50B5C002253B901220A540A18A4
:104EC00001EB8000127A406801681046884702466C
:104ED000104610BD9C02002030B4054C231804EB92
:104EE00080001B7A406804691846A44630BC6047BD
:104EF0009C02002030B4054D2C1805EB8000247A6C
:104F0000406885682046AC4630BC60479C02002063
:104F1000044A111802EB8000097A4068426808468A
:104F2000104700009C02002030B4054D2C1805EB02
:104F30008000247A4068C5682046AC4630BC604793
:104F40009C02002010B5044600F00EFC00280DD194
:104F5000204601F045FA002808D1D4F82802FFF7CE
:104F600073FE002802D10021C4F8001210BD000019
:104F70002DE9FC5F0D46044601F032FA5FEA0009B4
:104F800073D194F8070200286FD1D4F824020127C6
:104F90004FF0020A002869D0691C33D0D4F80C0203
:104FA000A84200D20546C4F80852002D5CD0204625
:104FB000691EFFF755FD0146C4F81402D4F800023B
:104FC000FFF763FD00287CD0D4F800126D1E91F825
:104FD0000222521E02EA55221518B4F80802C00532
:104FE000E4D0D4F81822AA42E0D094F80602400691
:104FF00046D591F8010201232146FFF795FF0028CD
:1050000074D137E002C80091D4F81012834602250B
:1050100009B30026AD1C01918846761CD4F8000225
:1050200000F0AAFE014601284BD9481C5ED008F1C9
:1050300001008142F0D00098854206D8CBF800608C
:105040000BF10400019A04C08346D4F80002D0F8A2
:1050500014028842DDD8D4F8240205600098854205
:1050600005D80021CBF80010C2E09DE016E04FF01B
:105070001109BDE094F8060220F0400084F8060211
:10508000D4F8000201232A4690F801022146FFF7D6
:1050900031FF00282AD1C4F81852A9E0D4F80C0234
:1050A000A84204D294F80612890700D405464FF0AE
:1050B0000008D4F80802C4F808824DB3D4F80022DE
:1050C00000E06EE092F802124E0280B1691E401EAE
:1050D000B1FBF6F1B0FBF6F3994208D3711E884399
:1050E000C4F808022D1AD4F8141210E06EE0D4F8B7
:1050F000101251B900211046FFF7D6FC01460128D5
:105100004FD0481C62D0C4F81012C4F8141211BB5E
:1051100031E000BF94F806028007D4F8000205D5FC
:10512000FFF7C2FC010004D1354616E000F024FE72
:105130000146481C4AD0012933D9D4F80002D0F8DE
:10514000140288422DD9C4F81412D4F80802AD1BF9
:105150003044C4F80802B542DCD8D4F80802284428
:10516000C4F80802E80506D0D4F80002FFF78DFC69
:10517000B8B100EB5528B4F80802C0052CD0D4F81B
:105180001822424528D094F80602400614D5D4F8D7
:1051900000020123214690F80102FFF7C5FEA8B9DD
:1051A00004E084F807A20220BDE8FC9F94F8060200
:1051B00020F0400084F80602D4F8000201234246A1
:1051C00090F801022146FFF795FE18B184F80772A6
:1051D0000120E9E7C4F81882D4E98201884207D99E
:1051E000C4F80C0294F8060240F0200084F806028D
:1051F0004846D9E72DE9F74181B0904602980090E2
:10520000684600F01CFE040003D50B2004B0BDE886
:10521000F0810E4E002756F8245025B12846FFF79E
:105220000DFC85F800720198002801D080F800720A
:1052300046F8240002D0B8F1010F01D00020E5E7C4
:10524000002202A901A800F0D7FBDFE72C00002014
:105250002DE9F747ADF50B7D06000ED04FF00008A5
:1052600002F01F0727F001028CA980A8C6F800826F
:1052700000F0C2FB040005D0B4E009200DF50E7D5E
:10528000BDE8F08788A8869068468C9900F0E0FC1D
:10529000859D04000BD11DB1780803D0012102E0E7
:1052A000062404E000216846FFF792FB044617F04D
:1052B0001C0F5FD04FF0010AD4B1042C13D1002091
:1052C0004A4902E0401C022805D200EB400251F896
:1052D0002220002AF6D1022804D06846FFF761FD9B
:1052E000044600E01224859D47F0080754B179E098
:1052F000E87A10F0110F01D0072473E0780701D588
:1053000008246FE0380743D500F097FDA873010A21
:10531000E973010C2974000E687485F80B8085F818
:105320001C8085F81D8085F81E8085F81F80294621
:10533000809800F039FE81460021284600F0BDFF2C
:105340008099B9F1000F81F804A21FD080984946D6
:10535000D0F82CA200F07AFF040043D18099A9F183
:105360000100C1F80C025146809800F0B5FE04001F
:105370000AD037E0B4BBE87AC10601D5042431E095
:10538000B90701D5C007B7D1380701D547F02007C5
:105390008098D0F82C02C6E98705780801D0012151
:1053A00000E00021684600F0AFFDC6F82802D8B141
:1053B00086F8067286F807824746294606F5007683
:1053C000809800F0F1FD3061287FD5F81D1040EA8B
:1053D0000120C6E90270B761776280983060B0F84A
:1053E0000602B080204649E70224FBE78402002041
:1053F0000FB42DE9F0479AB00DF19009029000200A
:1054000003900DF154080490239810F8011B239089
:10541000002976D0252903D002A800F0F4FEF3E796
:10542000002510F8011B2E462390302902D02D298B
:1054300002D010E0012500E0022510F8011B2390A6
:1054400009E000BF06EB860001EB40062398303EE2
:1054500010F8011B2390A1F130000928F2D96C2922
:1054600001D04C2905D1239845F0040510F8011B03
:105470002390002945D0A1F161000A46192801D8DE
:10548000203AD2B24F2A42D006DC422A3DD0432AEB
:1054900038D0442AC0D13CE0532A0DD0552A38D008
:1054A000582AB9D11023680701D4442A33D059F8B7
:1054B000040B442A31D035E059F8047B002400E085
:1054C000641C385D0028FBD1A80704D50CE020211E
:1054D00002A800F098FE2046641CB042F7D303E017
:1054E00002A87F1C00F08FFE39780029F8D103E074
:1054F000202102A800F087FE2046641CB04283D21F
:10550000F6E753E019F8041B86E70223CBE70823EC
:10551000C9E70A23C7E759F8040B002802DA40421A
:1055200045F0080500244746B0FBF3F203FB1202E6
:10553000B0FBF3F0D2B2092A05D9782914D04FF084
:10554000070C6244D2B230323A55641C08B1102CB8
:10555000EAD3280703D52D2008F80400641C274649
:10556000E80704D0302003E04FF0270CE9E72020C3
:10557000824603E0514602A800F045FEA80703D486
:1055800038467F1CB042F5D34546641E02A8295D0B
:1055900000F039FE002CF8D103E0514602A800F0DB
:1055A00032FE38467F1CB042A9D2F6E703980028A5
:1055B00010DB024601AB05A9029800F031F948B9A9
:1055C00001990398884205D104981AB0BDE8F00704
:1055D0005DF814FB4FF0FF30F7E700002DE9F84FBE
:1055E00088460021994615460446196000F0F8FEE9
:1055F000002812D194F8070200280ED194F8060270
:10560000C00709D0D4E98201081A01274FF0020A25
:10561000854200D90546A2E00720BDE8F88F00BF0B
:10562000D4F80812C8057CD1D4F8000290F8022200
:10563000521E02EA512212F0FF0614D131B1D4F801
:10564000242232B12046FFF70BFA06E0D4F810020C
:1056500003E0D4F8141200F08FFB022823D3411C7E
:105660005BD0C4F81402D4F81412D4F80002FFF787
:105670000CFAC0B130440090680A5FEA000B2AD0EF
:10568000D4F8001206EB0B0291F80202824201D913
:10569000A0EB060B91F801025B464146009AFFF72A
:1056A00029FCD0BB03E084F807A20220B5E794F8F8
:1056B000060240060CD5D4F818120098081A58456E
:1056C00006D208EB40204FF40072214600F0F4FCB3
:1056D0004FEA4B2637E0D4F818220098824221D0B6
:1056E00094F8060240060ED5D4F8000201232146A4
:1056F00090F80102FFF718FC78B994F8060220F040
:10570000400084F80602D4F800020123214690F8F4
:105710000102009AFFF7EEFB20B184F80772012026
:105720007BE702E00098C4F81802B4F80802C0F35E
:105730000800C0F50076AE4200D92E460119324667
:10574000404600F0B9FCD4F80802B0443044C4F834
:105750000802D9F800008119AD1BC9F80010002D0E
:105760007FF45EAF002058E770B5044600F038FEC5
:10577000002811D194F806128A060DD5480612D5D4
:10578000D4F800020123214690F80102D4F818222F
:10579000FFF7CAFB08B1012070BD94F8060220F0A3
:1057A000400084F80602D4F81C12D4F8000200F07D
:1057B00093FC0028F0D1D4F82052E87A40F0200081
:1057C000E87294F80C022877B4F80C02000A6877A3
:1057D000D4F80C02000CA877D4F80C02000EE8777D
:1057E000D4F81012284604F5007400F066FD00F0AD
:1057F00024FBA875010AE975010C2976000E68766C
:105800000020A874E874A07920F02000A07121681D
:10581000012081F804022068BDE8704000F055BD09
:105820002DE9F84F8846002199461546044619602F
:1058300000F0D6FD002808D194F80702002804D112
:1058400094F80602800702D40720BDE8F88FD4F848
:105850000802012741194FF0020A81427BD3B9E0C7
:10586000D4F80812C80577D1D4F8002292F80202C1
:10587000401E00EA512010F0FF061ED131B1D4F8CD
:10588000240240B12046FFF7EBF809E0D4F81002FB
:1058900040B9002101E0D4F814121046FFF704F9D2
:1058A000002858D001283DD0411C6CD0C4F8140207
:1058B000D4F8101209B9C4F8100294F80602400690
:1058C00010D5D4F800020123214690F80102D4F843
:1058D0001822FFF729FBE8BB94F8060220F04000ED
:1058E00084F80602D4F81412D4F80002FFF7CDF8B9
:1058F000C0B130440090680A5FEA000B30D0D4F8A1
:10590000000206EB0B0290F802128A4201D9A1EBC9
:10591000060B90F801025B464146009AFFF704FB34
:10592000C0B903E084F807A202208EE7D4F8181269
:105930000098081A58450CD208EB40214FF4007229
:10594000204600F0B9FB94F8060220F0400084F8ED
:10595000060202E017E040E01CE04FEA4B262DE093
:10596000D4F818120098814211D0D4E982018842FB
:105970000DD2D4F800020123214690F80102009ACA
:10598000FFF7B8FA18B184F8077201205DE70098B4
:10599000C4F81802B4F80802C0F30800C0F5007695
:1059A000AE4200D92E4620443246414600F084FBE8
:1059B00094F8060240F0400084F80602D4F8080289
:1059C000B0443044C4F80802D9F800008119AD1B76
:1059D000C9F80010002D7FF443AFD4E9820188425A
:1059E00001D9C4F80C0294F8060240F0200084F8B3
:1059F0000602002029E700002DE9FF474FF00009CB
:105A00000746C0F800901646084600F018FA050050
:105A100003D50B2004B0BDE8F0878A4850F8254034
:105A2000A4B13C6094F8000228B194F80102FFF799
:105A30006FFAC1070CD084F80092E8B284F8010232
:105A4000FFF736FAC10708D00320E3E70C20E1E7AF
:105A50000EB1400704D40020DCE71EB1400701D599
:105A60000A20D7E7002529462046FEF781FF0128B6
:105A700023D100204FEA0D0704EB001191F8C22159
:105A800001F5DF712AB10A7AD1F8091042EA012141
:105A900000E0002147F82010401C0428ECD3002629
:105AA00057F826502DB129462046FEF761FF08B968
:105AB00009E00220761C042EF2D3032801D0E0BBBB
:105AC00001E00120A6E7B4F80B00B0F5007F60D13B
:105AD000E28A2AB994F82400D4F8251040EA012279
