:020000040800F2
:10000000183000209D01000813270008D1210008A6
:1000100011270008F5020008E14E0008000000006A
:100020000000000000000000000000004F28000851
:100030004103000800000000412700085128000883
:10004000B7010008B7010008B7010008B7010008B0
:10005000B701000883270008B7010008B7010008AE
:10006000B7010008B7010008B7010008B701000890
:10007000B7010008B7010008B7010008B701000880
:10008000B7010008B7010008B7010008B701000870
:10009000B7010008B7010008B7010008B701000860
:1000A000B7010008B7010008B7010008B701000850
:1000B000B7010008B7010008B7010008B701000840
:1000C000B7010008B7010008B7010008B701000830
:1000D000B7010008B7010008B7010008B701000820
:1000E000B7010008B7010008B7010008B701000810
:1000F000B7010008B7010008B7010008B701000800
:10010000B7010008B7010008B7010008B7010008EF
:10011000B7010008B7010008B7010008B7010008DF
:10012000B7010008B7010008B7010008B7010008CF
:10013000B7010008B7010008B7010008B7010008BF
:10014000B7010008B7010008B7010008352700080B
:10015000B7010008B7010008B7010008B70100089F
:10016000B7010008B7010008B7010008B70100088F
:10017000B7010008B7010008B7010008000000003F
:10018000B7010008B7010008DFF80CD000F06EF8E6
:1001900000480047056A00081830002006488047DC
:1001A00006480047FEE7FEE7FEE7FEE7FEE7FEE75C
:1001B000FEE7FEE7FEE7FEE70929000889010008DF
:1001C00040EA01039B0703D009E008C9121F08C0D9
:1001D000042AFAD203E011F8013B00F8013B521E59
:1001E000F9D27047D2B201E000F8012B491EFBD2D0
:1001F00070470022F6E710B513460A460446194632
:10020000FFF7F0FF204610BD2DE9F05F0546002006
:1002100092469B4688460646814640241BE0284677
:1002200041464746224600F042F853465A46C01A15
:10023000914110D311461846224600F029F82D1A94
:1002400067EB01084F4622460120002100F020F80C
:1002500017EB00094E41201EA4F10104DFDC4846E3
:1002600031462A464346BDE8F09F0000064C074D44
:1002700006E0E06840F0010394E807009847103476
:10028000AC42F6D3FFF784FFA0810008C0810008CC
:10029000202A04DB203A00FA02F100207047914046
:1002A000C2F1200320FA03F3194390407047202A3B
:1002B00004DB203A21FA02F00021704721FA02F310
:1002C000D040C2F12002914008431946704708B55A
:1002D00002F076F901F07DFF00204FF4A0734FF497
:1002E000F0720146009001F0F7FFBDE808401420CD
:1002F00000F014BAFEE7000010B500224FEA020138
:1003000000EB8203521CC3F87C130F2AF8D300229F
:100310004FF400738418521C84F81C119A42F9D3CC
:100320000170417001228270C0F8B8130276402338
:100330008371417680F81C1380F81D23002010BDC6
:1003400070470022AFF3008030B50E4B0546012008
:100350005C7A012C15D8587A00241C54587A03EB87
:10036000800045605D7A03F108002A54587A421CE7
:100370005A72303008703A2048702F208870CC7044
:10038000002030BD9C020020002229B101291FD08D
:10039000022920D04FF4407210490B6823F44073B7
:1003A0000B600B6813430B600A6822F0F8020A60C6
:1003B0000A68F82393FAA3F3B3FA83F3984040F062
:1003C000020002430A60086840F480300860704709
:1003D0004FF48072E0E74FF40072DDE7103C02401A
:1003E0001348016889050FD5016821F40071016087
:1003F000016841F400610160016821F4006101605D
:10040000016841F400710160016849050FD5016878
:1004100021F480610160016841F48051016001684C
:1004200021F480510160016841F4806101607047EE
:10043000003C024008490A6822F440720A600A68D7
:1004400042F004020A600A684FF4803343EA002055
:1004500002430A6070470000103C0240064A1368DD
:1004600023F44073136013681360136843F00103AF
:100470001360017070470000103C0240084910B53D
:100480000C6824F440740C600C6844F440740C60F4
:100490000C6844F001040C600260436010BD000071
:1004A000103C0240074A136823F44073136013683A
:1004B00043F480731360136843F0010313600180F9
:1004C00070470000103C0240074A136823F4407351
:1004D0001360136843F400731360136843F001035F
:1004E0001360016070470000103C02401749086823
:1004F000C206174805D5C26942F01002C261102237
:100500000A600A68920605D5C26942F00802C26113
:1005100020220A600A68520605D5C26942F0040228
:10052000C26140220A600A68120605D5C26942F01B
:100530000202C26180220A600A68920705D5C26978
:1005400042F02002C2610220086070470C3C024069
:100550006400002070B5114904460020C86100F015
:1005600097FB06460E4D09E0601C07D024B100F051
:100570008FFB801BA04201D9032070BD2868C003F7
:10058000F2D42868C00701D001202860286810F044
:10059000F200F2D0FFF7AAFF012070BD6400002036
:1005A0000C3C024070B5B3F5804F05D06FF0704140
:1005B00040F82210002070BD50F82240084B8E8970
:1005C0001C40D1E9003543EA05138D6889692D0285
:1005D00045EA06452B430B43234340F82230E9E725
:1005E0000000F0CFF0B50C6850F82430114A1340E9
:1005F000D1E90125D1E903672A433E4332434E69DD
:1006000032438E693243CE6932430E6A32434E6AB8
:1006100032438E6A3243CE6A3243CE6B096B324329
:100620000A431A43082D01D142F0400240F8242029
:100630000020F0BD8000F0FF30B500EB8202506872
:100640008D8900F04043D1E9000440EA04108C6831
:10065000240244EA054420430C8A074D05EB045468
:1006600020430C7D6D0105EB046489692043084338
:1006700018435060002030BD0000F0FF1C49884244
:1006800001D2002070471B49884201D201207047E7
:100690001949884201D2022070471849884201D284
:1006A000032070471649884201D20420704715493B
:1006B000884201D2052070471349884201D20620A2
:1006C00070471249884201D207207047104988427A
:1006D00001D2082070470F49884201D20920704793
:1006E0000D49884201D20A2070470B207047000054
:1006F000004000080080000800C000080000010859
:1007000000000208000004080000060800000808B5
:1007100000000A0800000C0800000E0831B500F0C7
:10072000B7FA009C0546601C00D0641C00F0B0FACB
:10073000401BA042FAD338BD2DE9F04704462248B9
:100740000F46017E01290AD00121804601764CF234
:1007500050394846FFF7FEFE020003D02FE002208A
:10076000BDE8F0874FF0FF3038602068174D012852
:1007700001D0A6681CE0207C6168FFF75BFE48465C
:10078000FFF7E8FE0246286820F00400286014E025
:10079000217C3046FFF7F8FD4846FFF7DBFE0200FC
:1007A000286820F0FA00286001D03E6005E0761C41
:1007B000D4E902100844B042EAD8FFF711FE002144
:1007C00088F818101046CBE764000020103C024067
:1007D0000348016841F000410160002070470000BB
:1007E000103C02402DE9F0471B4E05461446307E72
:1007F0001F468946012808D0012030764CF2503837
:100800004046FFF7A7FE18B114E00220BDE8F087CC
:100810009DB1012D16D0022D19D022463B464846E7
:10082000FFF72CFE4046FFF795FE0C490A6822F0C0
:1008300001020A6000213176E8E7E1B24846FFF79D
:100840000DFEEFE7A1B24846FFF72CFEEAE721468E
:100850004846FFF739FEE5E764000020103C0240FF
:1008600006480068002807DA044805490C3801608A
:10087000044901600020704701207047103C02408D
:1008800023016745AB89EFCD2DE9F041374886B0AC
:100890004FF00008016841F040010160016801F07B
:1008A00040010591016841F020010160016801F0FB
:1008B00020010591016841F010010160016801F01B
:1008C00010010591016841F008010160016801F023
:1008D00008010591016841F004010160006800F021
:1008E0000400059021480830016841F001010160D1
:1008F000006802240126CDE9006400F001000C2507
:10090000CDE9045069460394194800F0DFF8E0028D
:10091000CDE9000469461748039400F0D7F84FF674
:100920008070CDE9000469461348CDE9034500F025
:10093000CDF84CF23370CDE9000469460F48CDE99B
:10094000034500F0C3F80E4F24020022214638462A
:1009500000F099F9CDE90046CDE9038569463846AE
:1009600000F0B4F806B0BDE8F08100003038024075
:10097000001402400018024000100240000C024027
:10098000000802402DE9F04FDFF818B100224FF0C7
:1009900001094FF00F0A00BF09FA02F401EA04034B
:1009A000A34279D1066857000325BD40AE430660D7
:1009B000D60800EB8606D6F820C057074FEAD7685E
:1009C0000AFA08F72CEA070CC6F820C08668AE437E
:1009D00086604668A6434660C468AC43C46022F0A3
:1009E00003055D44D5F808689407270F0AFA07F451
:1009F000DFF8B4C02640604502D14FF0000C32E071
:100A0000DFF8A8C0604502D14FF0010C2BE0DFF801
:100A1000A0C0604502D14FF0020C24E0DFF894C082
:100A2000604502D14FF0030C1DE0DFF88CC060453B
:100A300002D14FF0040C16E0DFF880C0604502D10F
:100A40004FF0050C0FE0DFF878C0604502D14FF0A1
:100A5000060C08E0DFF86CC0604502D14FF0070CCF
:100A600001E04FF0080C0CFA07FCB44514D1D5F89E
:100A70000868A643C5F80868134C25689D4325609F
:100A8000241D25689D432560241D25689D43256000
:100A9000241D25689D432560521C102AFFF47CAF5D
:100AA000BDE8F08F00300140000002400004024029
:100AB00000080240000C02400010024000140240F6
:100AC00000180240001C0240003C01402DE9F84F94
:100AD000DFF87CB100224FF001084FF0030A4FF01D
:100AE0000F090BF1040E00BF0B6808FA02F4234053
:100AF000A3426ED14D68022D01D0122D0ED1D50822
:100B000000EB850CDCF820505607F70E09FA07F6C3
:100B1000B5430E69BE402E43CCF8206006685500F0
:100B20000F790AFA05FC07F0030726EA0C06AF4026
:100B3000374307604E68012E05D0022E03D0112ED8
:100B400001D0122E0ED18668CF6826EA0C06AF407F
:100B5000374387604668A6430C79C4F30014944079
:100B600034434460C6688C6826EA0C06AC403443C3
:100B7000C4604C68E40065D5364C256845F4804572
:100B80002560246822F0030504F480440094324C6C
:100B90002E19D6F8084895072F0F09FA07F5AC4328
:100BA0002E4DA84201D1002524E02D4DA84201D1AF
:100BB00001251FE02B4DA84201D102251AE02A4D44
:100BC000A84201D1032515E0284DA84202D10425F1
:100BD00010E037E0264DA84201D105250AE0254D59
:100BE000A84201D1062505E0234DA84201D10725E1
:100BF00000E00825BD402543C6F80858DBF8004052
:100C00005D464E689C43F60300D51C432C60DEF81D
:100C1000004075464E689C43B60300D51C432C60CB
:100C20000B4D08352C684E689C43F60200D51C43DA
:100C30002C60074D0C352C684E689C43B60200D5DD
:100C40001C432C60521C102AFFF44EAFBDE8F88FF5
:100C5000003C0140443802400030014000000240A6
:100C60000004024000080240000C02400010024054
:100C70000014024000180240001C024000690840B5
:100C800000D0012070470AB1816170470904FBE779
:100C9000014800687047000004000020D0F894026A
:100CA00002F0BBBAD0F8940202F0CBBA006803F0AD
:100CB00097BC006803F098BC01EB810100EBC10018
:100CC00090F85C00704701EB810100EBC100C06C43
:100CD000704710B5044690F89002012809D0012011
:100CE00084F89002206803F08AFC002084F89002C7
:100CF00010BD022010BDFEB50546DDE9096095F87E
:100D00009042089F012C1ED0012485F8904201EBEF
:100D1000810405EBC40402F07F0C04F8383F208105
:100D20006170E67184F802C04FEAD21C84F803C0F7
:100D300027710097CDE90160286803F005FD0021C7
:100D400085F89012FEBD0220FEBD70472DE9F0032C
:100D500001EB8104DDE90689DDE908C700EBC40485
:100D6000022684F83B2084F83F30B8F1000F0AD007
:100D700084F84260002553B1012B3FD0022B1DD0D7
:100D8000032B2AD120E0032584F84250F2E7B8F182
:100D9000010F22D10ABBBCF1000F10D1012284F84F
:100DA000512002E084F8425001E084F8426094F857
:100DB0005C20022A11D084F83D700EE02AB994F824
:100DC0005120002AF1D1EDE712B194F8502001E052
:100DD00094F8512092B184F84260C4E9119C84F8DF
:100DE0005C50E56484F8391084F85D50027C04F1AD
:100DF00038010068BDE8F00303F022BD84F84250DA
:100E0000EBE700002DE9F0410446006800250646A6
:100E100003F0F1FB01287DD1206803F0B4FF002826
:100E200078D0206803F0AFFF800203D521684FF42B
:100E300000104861206803F0A6FFC00203D52168B6
:100E40004FF480104861206803F09DFF400103D5F6
:100E500021684FF080604861206803F094FF8007AC
:100E600002D5216802204861206803F08CFF8000D1
:100E700010D5D6F8400420F02E00C6F840042046D5
:100E8000FFF710FF0121206803F062FF21684FF097
:100E900000504861206803F076FFC00102D520466B
:100EA00001F007F9206803F06EFF000705D5204622
:100EB00000F0C5F8216808204861206803F063FF4E
:100EC000800120D5206803F0B4FC07464FF00108EC
:100ED00012E000BF08FA05F038420CD006EB4510CE
:100EE000D0F80005E9B20004204602D500F0BDFEAE
:100EF00001E000F0D3FF6D1CA068A842EAD8216889
:100F00004FF000704861206803F03DFFC0060ED529
:100F1000206800E00BE0816921F01001816120462A
:100F200001F01EF92068816941F010018161BDE87E
:100F3000F08130B58BB0040026D0032084F89102F4
:100F4000204600F03DF8206803F0E6FA04F11001B5
:100F500028220D466846FFF733F994E80F0003F0A6
:100F600089FA0121206803F038FF282229466846C3
:100F7000FFF726F994E80F0003F026FD012084F81E
:100F8000910200200BB030BD0120FBE710B50068D6
:100F9000B0F1A04F0ED10848016821F08001016036
:100FA0004FF4C0510548FFF7EDFCBDE81040432069
:100FB00000F0DCB810BD00003438024000000240F0
:100FC00000B5006887B0B0F1A04F2ED118480021BD
:100FD000026842F001020260006800F00100059022
:100FE0004FF4C05000900220CDE9010103900A2087
:100FF000049069460F48FFF769FD0D48001D016820
:1010000041F0800101600A481430016841F48041D8
:1010100001600068002200F4804005900521432013
:1010200000F0BAF8432000F0ACF807B000BD0000B3
:101030003038024000000240006803F0B8BED0F82B
:10104000940202F048B910B5044690F890020128C5
:101050000DD0012084F89002206803F099FA012154
:10106000206803F07FFA002084F8900210BD02206F
:1010700010BD10B5044690F89002012809D0012057
:1010800084F89002206803F0BEFE002084F89002ED
:1010900010BD022010BD000002480168491C01601B
:1010A00070470000040000200B4810B5016841F4AF
:1010B00000710160016841F480610160016841F4E0
:1010C00080710160032000F087F8002000F006F82E
:1010D00000F018F8002010BD003C024010B5044696
:1010E00007484FF47A710068B0FBF1F000F0CEFCD5
:1010F00000222146501E00F04FF8002010BD0000D5
:101100000000002010B5032000F066F80022114610
:101110006FF00B0000F040F8002211466FF00A005B
:1011200000F03AF8002211466FF0090000F034F8A0
:1011300000221146501F00F02FF800221146101F08
:1011400000F02AF800221146901E00F025F8002237
:101150001146501E00F020F800221146052000F034
:101160001BF8BDE81040052000F00BB800F01F028E
:10117000012191404009800000F1E020C0F8801179
:10118000704700F01F02012191404009800000F1EA
:10119000E020C0F800117047F0B40E4B1B680C46FD
:1011A000C3F30223C3F10705042D00D90425191D3B
:1011B000072901D2002300E0DB1E012606FA05F113
:1011C000491E214099409E40761E16403143F0BC96
:1011D00001F0A0BA0CED00E0064900F00702086833
:1011E0004FF6FF03184040EA0220034A104308600C
:1011F000704700000CED00E00000FA052DE9F8430F
:10120000054600684FF00109C1074FF0000601D103
:10121000400733D5DFF82481C8F86860FFF738FD50
:101220000746474C05E000BFFFF732FDC01B022810
:1012300063D820680001F7D447F6C07191FAA1F194
:101240006868B1FA81F188404FF0E04292FAA2F268
:10125000A968B2FA82F291400843394984310860A2
:10126000C8F86890FFF714FD074604E0FFF710FD8B
:10127000C01B022841D820680001F7D528788007D4
:1012800052D52F484030016841F08051016000681C
:101290002C4C00F080500090206840F4807020605A
:1012A000FFF7F6FC074604E0FFF7F2FCC01B02283C
:1012B00023D82068C005F7D5214C7034206810F47D
:1012C000407020D0A98901F4407181421BD0206870
:1012D0001D4920F44070C1F800900E602060206825
:1012E000C00710D0FFF7D4FC064641F2883707E06C
:1012F000FFF7CEFC801BB84202D90320BDE8F8837B
:1013000020688007F4D5E9680D48C1F30122083050
:10131000032A0BD0016821F4F81101602068A98923
:10132000C1F30B01084320600020E7E70268074B88
:1013300022F4F81219400A430260EFE70000474226
:101340000038024000700040400E4742FFFCFF0F93
:101350002DE9F047DFF8649105460F46D9F8000003
:1013600000F00F01F8B28046B94208D2014689F870
:101370000010D9F8000000F00F00B84274D12878AE
:101380004F4C800705D52068A96820F0F00008437D
:1013900020602878C00759D0494968680839012871
:1013A0001AD002281BD0032819D009688907002900
:1013B0005ADA216821F0030101432160FFF768FC3C
:1013C0006968064641F28830012911D002291DD0F2
:1013D0000329824627D035E009688903E7E70968D1
:1013E0008901E4E7FFF754FC811B514501D926E050
:1013F00082462068C0F381000128F3D126E000BFB7
:10140000FFF746FC811B514501D918E08246206850
:10141000C0F381000228F3D118E000BFFFF738FCC9
:10142000811B51450BD82068C0F381000328F5D1FA
:101430000CE000BFFFF72CFC811B514502D90320B3
:10144000BDE8F087206810F00C0FF3D1D9F8001038
:10145000484601F00F01B94208D980F800800068C1
:1014600000F00F00B84201D00120E9E728784007DA
:1014700005D52068E96820F4E0500843206028780A
:10148000000706D52068296920F4604040EAC100C1
:10149000206000F057F82168F02292FAA2F201F0E1
:1014A000F001B2FA82F2D140064A515CC8400649C6
:1014B00008600020FFF712FE0020C1E7003C024058
:1014C00008380240586F0008000000200149012040
:1014D000C864704700004742014800687047000038
:1014E0000000002008480949006809684FF4E052EC
:1014F00092FAA2F201F4E051B2FA82F2D140044A27
:10150000515CC840704700000000002008380240CD
:10151000686F000808480949006809684FF460428C
:1015200092FAA2F201F46041B2FA82F2D140044A86
:10153000515CC8407047000000000020083802409D
:10154000686F000830B51948006810F00C011848A1
:1015500012D0441004290ED008290DD11349091FB7
:101560000A6802F03F030A68550247F6C07204D5C4
:10157000B4FBF3F003E0204630BDB0FBF3F00B68A2
:101580000968134092FAA2F2B2FA82F2D3405843A9
:101590004FF4403292FAA2F201F44031B2FA82F2F0
:1015A000D140491C4900B0FBF1F030BD0838024081
:1015B0000024F4002DE9F84F0546DFF8FC9200788E
:1015C000A9F1040BC007ABF1040449D0D9F800100D
:1015D0004846C1F38101012908D00068C0F38100A9
:1015E00002280AD1DBF80000400206D520688003FB
:1015F00036D5686800286ED032E06868B0F5803F64
:1016000010D0B0F5A02F206810D020F480302060DA
:10161000206820F4802020606868A0B1FFF738FBC4
:1016200006460CE0206840F48030F4E740F4802067
:101630002060F7E7FFF72CFB801B642871D8206837
:101640008003F7D50CE0FFF723FB064605E000BF5B
:10165000FFF71EFB801B6428F0D820688003F7D4B6
:101660002878964F80074FF0010A4FF0000841D5C7
:10167000D9F80010484611F00C0F08D00068C0F3EC
:10168000810002280AD1DBF80000400206D420685D
:10169000800713D5E86801281DD10FE0E868D8B1AC
:1016A000C7F800A0FFF7F4FA064604E0FFF7F0FAE7
:1016B000801B0228C2D820688007F7D52068F8224E
:1016C00092FAA2F22969B2FA82F220F0F80091406F
:1016D000084320600EE0ECE0C7F80080FFF7D8FA7E
:1016E000064604E0FFF7D4FA801B022819D82068C8
:1016F0008007F7D42878000724D57148696989B133
:10170000C0F800A0FFF7C4FA064604E0FFF7C0FAED
:10171000801B022805D868486C3000688007F5D522
:1017200010E07AE0C0F80080FFF7B2FA064604E065
:10173000FFF7AEFA801B02286FD85F486C30006854
:101740008007F5D42878400753D55B4838300168C6
:1017500041F080510160006800F0805000905948CD
:10176000016841F480710160FFF792FA064604E0D7
:10177000FFF78EFA801B02284FD852480068C00538
:10178000F6D54D4EA868683601280FD00528306878
:1017900010D020F001003060306820F0040030608C
:1017A000A868B8B1FFF774FA00900FE0306840F015
:1017B0000100F4E740F004003060F7E7FFF768FA53
:1017C0000099411A41F2883081426AD83068800716
:1017D000F4D50EE0FFF75CFA009007E0FFF758FA47
:1017E0000099411A41F2883081425AD83068800706
:1017F000F4D4A869E8B3D9F80010C1F38101022933
:1018000057D00228C7F8608003D0FFF741FA054699
:101810004AE0FFF73DFA064605E042E0FFF738FAF6
:10182000801B02283DD820688001F7D4D5E9070144
:10183000084347F6C07292FAA2F2696AB2FA82F2DB
:101840009140AA6A4FF0FF3303EB52024FF440334A
:1018500093FAA3F3B3FA83F39A40114308434FF08A
:10186000706292FAA2F2E96AB2FA82F291400843F7
:1018700000E01CE0CBF80000C7F860A0FFF708FA12
:10188000054604E0FFF704FA401B022809D8206847
:101890008001F7D50BE000BFFFF7FAF9401B0228E3
:1018A00002D90320BDE8F88F20688001F4D400201D
:1018B000F8E70120F6E70000083802400000474240
:1018C000800E47420070004010B500680B4641682A
:1018D0000D480140080CD870C1F304245C7001F07D
:1018E0003F049C70C1F34231197052B900F04AFFB5
:1018F000D870587800F046FF5870987800F042FF92
:101900009870002010BD00003FFFFF0010B50B468F
:101910000168896A596001680969C1F30E0199601B
:10192000006801680E480140C1F305401870C1F31A
:1019300006245C7001F07F049C70402404EA11418D
:10194000D97052B900F01EFF1870587800F01AFFD5
:101950005870987800F016FF9870002010BD0000B5
:101960007F7F7F0070B5040002D0607F10B106E079
:10197000012070BD00202077204600F041F80220B1
:1019800060772168CA204862216853204862204657
:1019900000F002FFFF210028206803D041620420EC
:1019A0006077E5E78268154B1A408260226890688C
:1019B00063681843D4E904352B43184390602268C8
:1019C000E068106120680269238942EA03420261EB
:1019D0002068C26822F08002C2602068026C22F493
:1019E000802202642068026CA3691A4302642068A2
:1019F000416201206077002070BD0000BFFF8FFFB3
:101A000000680349884202D10249012008607047FA
:101A1000002800403C0E474270B515460E460400B3
:101A200003D094F8490010B107E0012070BD0020F8
:101A300084F84800204600F01AF804F108012068F4
:101A4000FEF7D0FD3146A2682068FEF7F5FDD4E927
:101A500001022946236BFEF7A5FDA168206850F816
:101A6000212042F0010240F82120002070BDFEF745
:101A70000BBF4FF0E0210428086903D020F00400D8
:101A80000861704740F00400FAE7704710B5401E47
:101A9000B0F1807F01D3012010BD4FF0E0246061E0
:101AA0000F21601700F036FE0020A06107202061A2
:101AB000002010BD10B5FFF7E8FF10BD70B50400A1
:101AC00004D094F83900002510B106E0012070BD63
:101AD00084F83850204600F037F8242084F8390084
:101AE0002068C16821F40051C160204600F036FF33
:101AF0002068016921F4904101612068416921F069
:101B00002A0141612068C16841F40051C160E56368
:101B1000202084F8390084F83A00002070BD0000CD
:101B200000680649884208D10548016821F0100183
:101B30000160C0210348FEF725BF70470010014037
:101B4000443802400004024010B586B00446142117
:101B50006846FEF74EFB13492068884220D11248A0
:101B6000016841F010010160006800F0100005906C
:101B70000D481438016841F00201016000686946AF
:101B800000F002000590C02000900220019001208A
:101B9000029003200390072004900448FEF796FF6C
:101BA00006B010BD0010014044380240000402405D
:101BB0002DE9F843044690F839001F4616460D46B5
:101BC000202850D1A5B19EB194F8380001284AD000
:101BD000012084F838004FF00008C4F83C80212030
:101BE00084F83900FFF754F8A6848146E68426E09D
:101BF0000120BDE8F883E08C401EE084A0684B46DD
:101C0000B0F5805F4FF000024FF080012046009752
:101C100003D000F0F9FFE8B90DE000F0F5FFC8B916
:101C200028882168C0F308004860206908B16D1C4D
:101C300005E0AD1C03E0216815F8010B4860E08C5D
:101C40000028D8D14B46002240212046009700F0C2
:101C5000DBFF08B10320CCE7202084F8390084F8AA
:101C600038800020C5E70220C3E72DE9F05F064673
:101C70000068884600EB4814D4F808054FF0040BC0
:101C8000410708EB88004FF0050A4FF0100706EBFC
:101C9000C00508D5C4F808B5D4F80C0540F002001A
:101CA000C4F80C0532E0D4F80805800601D52020E0
:101CB0002AE0D4F808054FF00809000710D5D4F839
:101CC0000C0540F00200C4F80C0585F85DA0C4F8CE
:101CD0000875C4F808954146306802F090FC15E09C
:101CE000D4F80805400511D5D4F80C0540F00200E1
:101CF000C4F80C054146306802F081FCC4F8087550
:101D000085F85D904FF48060C4F80805D4F80805A4
:101D100080050ED5D4F80C0540F00200C4F80C057F
:101D2000414604F5A164306802F069FC4FF400708C
:101D30008DE0D4F808054FF00001C0074FF0010214
:101D400036D0306930B1A86CD4F81035C3F3120323
:101D5000C01AE86485F85D20A965C4F8082595F8DF
:101D60003F0020B1022802D003280ED019E0D4F899
:101D70000C0540F00200C4F80C05414604F5A164CE
:101D8000306802F03CFC27600BE0D4F8000540F01E
:101D90000050C4F8000585F85C2041463046FEF747
:101DA000D4FF15F8500F80F001002870BDE8F09FB7
:101DB000D4F80805800733D5D4F80C0520F00200CC
:101DC000C4F80C0595F85D000223012806D005280B
:101DD00007D0062808D0082806D018E085F85C202F
:101DE00015E085F85CA012E0A86D421CAA650328E6
:101DF00003D9A96585F85CB001E085F85C30D4F8BA
:101E0000000520F0804040F00040C4F80005C4F810
:101E1000083595F85C2041463046FEF796FFC5E749
:101E2000D4F80805000614D5D4F80C0540F00200DB
:101E3000C4F80C05A86D4146401CA865062085F82D
:101E40005D0004F5A164306802F0D9FB80202060B9
:101E5000ACE7D4F80805C006A8D595F83F000328DC
:101E600009D1D4F80C0540F00200C4F80C05414635
:101E7000306802F0C4FB032085F85D00C4F80875E3
:101E800095F83F0008B1022890D1D4F8000520F061
:101E9000804040F00040C4F8000587E72DE9F04796
:101EA000026802EB4114D4F808254FF0040C5207E5
:101EB00009D5C4F808C5D4F80C0540F00200C4F8F0
:101EC0000C05BDE8F087D4F8082501EB81039206E4
:101ED0004FF0020600EBC30514D52022C4F80825F4
:101EE00095F83D20012AECD185F85DC0D4F80C2589
:101EF00042F00202C4F80C25006802F080FB85F86D
:101F00005C60DEE7D4F808254FF0000352060FD5D9
:101F100085F85DC0AB65D4F80C2542F00202C4F828
:101F20000C25006804F5A16402F069FB402010E074
:101F3000D4F8082592050ED5D4F80C2542F00202FB
:101F4000C4F80C25006804F5A16402F058FB4FF4B6
:101F500000702060B5E7D4F808254FF00108D207DB
:101F600010D0AB65D4F80C2542F00202C4F80C2561
:101F7000006804F5A16402F042FBC4F8008085F813
:101F80005D809EE7D4F808254FF0080912074FF04E
:101F9000050A0DD5C4F80895D4F80C2542F00202C4
:101FA000C4F80C25006802F02AFB85F85DA088E7DC
:101FB000D4F808254FF01007D20610D5AB65D4F839
:101FC0000C2542F00202C4F80C25006804F5A16457
:101FD00002F015FB032085F85D00276071E7D4F857
:101FE000082512060FD5D4F80C2542F00202C4F8D9
:101FF0000C25006804F5A16402F001FB062085F8B9
:102000005D008020A5E7D4F80825520511D5D4F845
:102010000C2542F00202C4F80C25006804F5A16406
:1020200002F0EDFA27604FF48060206085F85D9043
:1020300047E7D4F8082592078CD5D4F80C2522F070
:102040000202C4F80C2595F85D20012A0AD0032A63
:1020500026D0042A13D0052A16D0062A17D0082A1B
:1020600015D01FE085F85C8095F83F20022A19D131
:1020700095F8512082F0010285F8512012E085F890
:102080005C6085F83D300DE085F85CA00AE0AA6D43
:10209000571CAF65032A03D9AB6585F85CC001E026
:1020A00085F85C60C4F8086595F85C20FEF74DFE85
:1020B00007E77CB504680546D4F840040190D4F8DD
:1020C000400420F02E000090019880070DD5019863
:1020D000C00706D0A06920F00051A1612846FEF794
:1020E000DDFD009840F002000090019800072CD51B
:1020F000009840F008000090019840071AD5A869A0
:10210000022803D0E86803280CD00FE00198C0F340
:1021100041400228286803D0012102F019FE05E0A1
:102120000221FAE74EF66020C4F804042846FEF7C0
:10213000B5FD0AE0D4F8400420F02E00C4F84004B5
:102140002868816941F000518161019880060098FA
:1021500002D540F020000090C4F840047CBD00008F
:102160002DE9F041024600680646016AC1F3434387
:1021700001F00F07C1F30A14022B25D1002C23D044
:1021800007EB870102EBC105696C00291CD02246D0
:1021900002F0FDFD686C20446864E86C2044E8644B
:1021A00006EB4710D0F81015084A11420CD0D0F8B1
:1021B000001521F0804141F00041C0F8001515F8EC
:1021C000500F80F001002870BDE8F0810000F81F7A
:1021D000FEE72DE9F0414FF0D844E02020800020B8
:1021E00060800721618010216180092161801727AB
:1021F00067800B22628041266680892262804B22A2
:1022000062800A2262800C2363800E23638018257B
:1022100065801B2565800F2565804FF0E10CA4F8D3
:1022200000C0608067801A2767800427678063800A
:10223000062363802F2363804523638043236380C9
:1022400002236380628061804FF0320CA4F802C0E8
:102250004FF0360CA4F802C06580F7252580A9252B
:102260006580512565802C25658082256580C02587
:102270002580112565806180C12121806680C5216E
:1022800021806080628080216180B1212180B02125
:1022900061806580B42121806380B62121806380C4
:1022A00022216180B7212180C6216180BE21218049
:1022B00060806780E92121806080042000F0A0F820
:1022C0003A2020805520608025807820FEF726FA6D
:1022D00029202080BDE8F08170B51D461446049E7B
:1022E00000F072F804FB05F03146BDE8704000F0E4
:1022F0005FB80000F0B5203A1C46D6B218230C2275
:10230000059D00F061F84FF0D8402C210180124B60
:1023100006EB4602002103EB02160022735CDF0786
:1023200001D0458000E04480521C5B08D2B2082AEC
:10233000F5D3491CCBB20021F25CD70701D0458010
:1023400000E04480491C5208C9B20429F5D35B1C43
:10235000D9B23029E1D3F0BD846F00082DE9F847E8
:102360009A4616460D4604464FF4F0774FF4A0788F
:10237000DDF8249017E000BF04F10C00B84202D948
:1023800000241835ADB205F11800404501D90024EC
:102390002546534629462046CDF80090FFF7AAFF70
:1023A0000C34A4B2761C3278002AE5D1BDE8F88757
:1023B00010B500224FF0D8432C241C8001E0598036
:1023C000521C8242FBD310BD30B54FF0D8442A25B1
:1023D0002580050A6580C5B265801044401E020A4A
:1023E0006280C0B260802B202080080A6080C8B262
:1023F0006080C818401E010A6180C0B2608030BD94
:10240000F0B53627002201232A253F242B26790602
:102410004FF0DF0C012806D0022813D0032814D077
:1024200004281FD121E00F80082048800D804A80B9
:102430004A804B804C800E804A804A804B80A1F8B5
:1024400002C00FE00F80682011E00F80C820488094
:102450000D804A804A804B804C800E804A804A80A2
:102460004B804C802C200880F0BD0F80A820488035
:102470000D804A804A804B80A1F802C0EDE710B57C
:102480001446B0F5F07F0CD2B1F5A07F09D201233C
:102490001A46FFF799FF2146BDE810400120FFF7DB
:1024A00087BF10BD10B58CB0002205A92548FFF7E5
:1024B0002DFA00220AA92348FFF706FA9DF82830D2
:1024C000214C9DF814009DF8162054F823309DF8F7
:1024D00015108DE80F009DF82A309DF829209DF8F1
:1024E0002B101AA002F0FEFC132221A1224803F0B7
:1024F000D3FBA4F1080148701F48D0F80C1203F078
:102500005BFA9DF828309DF814009DF8162054F8C9
:10251000233001AC9DF8151084E80F009DF82A00C7
:1025200000909DF829309DF82B2014A1124803F04B
:1025300083FC114803F02AFA1EA002F0D3FC0CB071
:1025400010BD0000CC0A00203800002032302532B7
:10255000642D2532642D253264092532643A2532F2
:10256000643A25326409252D3973090D0A000000EB
:102570006C6F672E74787400A00800200D0A32304A
:102580002532642D2532642D253264092532643AC2
:102590002532643A25326409252D3973097570672F
:1025A00072616465207375636365737366756C0D22
:1025B0000A000000616464206C6F670D0A0000006F
:1025C00000B5144887B04FF02041016012494160C6
:1025D0000621816000211022C160C0E904128161DE
:1025E000C16112020162C0E90912C1620163416363
:1025F000816341640220CDE900010520CDE902019B
:10260000049105916A46069111460248FFF704FAC3
:1026100007B000BDEC0A0020040100A030B587B06F
:1026200014216846FDF7E5FD19480024016841F0D2
:1026300010010160016801F010010591016841F08D
:1026400080010160016801F080010591016841F09D
:102650000201016000680F4D00F0020005900022A9
:10266000C0212846FEF70FFB0720CDE9000469468C
:1026700028460294FEF72AFAC02000900120CDE9F6
:102680000104694628460394FEF720FA07B030BDDE
:1026900030380240001002400C4810B50A49016071
:1026A00000217F22C0E90112FF22C0E9032141611C
:1026B0008161FFF757F9002804D0BDE8104004A05D
:1026C00002F010BC10BD000000280040CC0A002021
:1026D000426F6F746C6F6164657220525443206561
:1026E00072726F720D0A00000848074901604FF4CA
:1026F000E1314160002181600C22C160C0E9041217
:102700008161C161FFF7DAB9001001403C1300207C
:10271000FEE770470907090E002806DA00F00F00EF
:1027200000F1E02080F8141D704700F1E02080F8EF
:10273000001470470148FEF765BB00007C1B0020B9
:1027400070472DE9F0478846DDE90819121A4A4317
:10275000642192FBF1F101441F468EB204460CE065
:10276000454606E04A4629462046FFF788FE6D1C8E
:10277000ADB2BD42F6D3641CA4B2B442F0D3BDE8FE
:10278000F0877047010901EB810100F00F0000EBB9
:102790004100C0B27047000070B504460068C168CF
:1027A000490614D44FF0FF31C160FEF771FA0546B7
:1027B0004FF47A7607E000BFFEF76AFA401BB0429A
:1027C00001D9032070BD2068C0684006F4D5002000
:1027D00070BD2DE9F04786B04FF0000817460E4651
:1027E0000446CDF81480B0F1006F2DD3A0072BD193
:1027F000FEF736F8254604EB87074FF001094FF046
:10280000020A11E02868401C0DD02846CDF800804F
:10281000FDF734FF02AA05A982E801066846FDF724
:102820008BFF08B10CE02D1DBD42EBD308E0002367
:10283000214602203268FDF7D5FF18B9241D361D48
:10284000BC42F4D3FDF7C4FF06B0BDE8F087704783
:1028500010B5FEF721FCBDE81040FFF72BB90000D2
:1028600030B5274897B00025016841F080510160DC
:10287000006800F0805015902248016841F48041C2
:1028800001600068022400F480401590012000904F
:10289000000401908001CDE90640082008904FF423
:1028A000A870CDE9090407200B906846FEF782FE68
:1028B0000CA90F2081E831004FF4A0500F90E002E6
:1028C000109005210CA8FEF743FDFEF7FFFDE00187
:1028D0001490119411A8FEF791FCFEF7FDFD4FF442
:1028E0007A71B0FBF1F0FFF7D1F80420FFF7C1F8DF
:1028F00000221146501EFEF74FFC17B030BD0000FD
:1029000040380240007000401048016841F47001F6
:1029100001600F48016841F0010101600C4A00218B
:102920000832116002680B4B1A400260031D0A4A0C
:102930001A60026822F48022026005480C300160AF
:1029400002495806803908607047000088ED00E0B1
:1029500000380240FFFFF6FE103000242DE9F04160
:1029600004460068016921F44052E16811430161A5
:102970002168C86849F20C6290432369A268E5693E
:102980001A4363692B431A430243CA6021684869AA
:1029900020F44072A06910434861E1696425B1F5F3
:1029A000004F9748974A21684FF032083FD0914234
:1029B00001D081427CD1FEF7ADFD00EBC00101EBFF
:1029C000001061688900B0FBF1F6FEF7A3FD00EB93
:1029D000C00101EB001061688900B0FBF1F0B0FBB1
:1029E000F5F06FF01801484306EB800108EB011089
:1029F000B0FBF5F000F0F006FEF78CFD00EBC00137
:102A000001EB001061688900B0FBF1F0B0FBF5F05C
:102A100006EB0016FEF77EFD00EBC00101EB001097
:102A200061688900B0FBF1F7FEF774FDD2E09142D6
:102A300001D081423DD1FEF76DFD00EBC00101EBFD
:102A4000001061684900B0FBF1F0B0FBF5F0060141
:102A5000FEF760FD00EBC00101EB0010616849006A
:102A6000B0FBF1F7FEF756FD00EBC00101EB0010E3
:102A700061684900B0FBF1F0B0FBF5F06FF01801B0
:102A8000484307EB800108EBC100B0FBF5F000F014
:102A9000F80006EB4006FEF73DFD00EBC00101EB40
:102AA000001061684900B0FBF1F7FEF733FD3CE030
:102AB00055E0FEF717FD00EBC00101EB0010616867
:102AC0004900B0FBF1F0B0FBF5F00601FEF70AFD9E
:102AD00000EBC00101EB001061684900B0FBF1F7A9
:102AE000FEF700FD00EBC00101EB0010616849003A
:102AF000B0FBF1F0B0FBF5F06FF01801484307EBC5
:102B0000800108EBC100B0FBF5F000F0F80006EB27
:102B10004006FEF7E7FC00EBC00101EB0010616826
:102B20004900B0FBF1F7FEF7DDFC00EBC00101EB63
:102B3000001061684900B0FBF1F0B0FBF5F06FF0F8
:102B40001801484307EB800108EBC100B0FBF5F02A
:102B500000F00700216830448860BDE8F081FEF78E
:102B6000C1FC00EBC00101EB001061688900B0FB03
:102B7000F1F6FEF7B7FC00EBC00101EB0010616855
:102B80008900B0FBF1F0B0FBF5F06FF0180148439D
:102B900006EB800108EB0110B0FBF5F000F0F00649
:102BA000FEF7A0FC00EBC00101EB0010616889009A
:102BB000B0FBF1F0B0FBF5F006EB0016FEF792FC6F
:102BC00000EBC00101EB001061688900B0FBF1F778
:102BD000FEF788FC00EBC00101EB00106168890082
:102BE000B0FBF1F0B0FBF5F06FF01801484307EBD4
:102BF000800108EB0110B0FBF5F000F00F00A9E731
:102C000000140140001001402DE9F041984617469C
:102C10000E460446069D1DE0681C1BD02DB1FEF734
:102C200037F8A0EB0800A84214D92068C16821F445
:102C3000D071C1602068416921F00101416120200B
:102C400084F8390084F83A00002084F83800032022
:102C5000BDE8F0812068006836EA000004D000205A
:102C6000B842D9D00020F3E70120F9E710B50022DF
:102C70004FF6FF7300EB8204B4F87C43240409D4BC
:102C80009A4205D000EB820041F40041C0F87C1369
:102C9000D0B210BD521CD2B20B2AEBD31A46F7E7C2
:102CA0007FB51C46012501AE0023009586E80E0085
:102CB00002232A46214600F099FB04B0002070BD93
:102CC0007FB51D4690F81D33089C03B100240123F5
:102CD000CDE90031CDE9022402230022294600F08B
:102CE00085FB04B0002070BD10B500F086FA00200E
:102CF00010BD8278012A07D1022202740122427497
:102D0000002242828182C2820022114600F00FB866
:102D10007FB51C46012501AE0023009586E80E0014
:102D20002A46214600F062FB04B0002070BD70B559
:102D300004460120A3780546012B09D0022B06D1B9
:102D4000204600F00AF948B1022800D1A57070BDF4
:102D5000A160A28125760221A17070BDA57000211D
:102D6000217670BD7FB51D4690F81D33089C03B1D8
:102D700000240123CDE90031CDE9022400231A46C5
:102D8000294600F033FB04B0002070BD1FB50023BE
:102D90001446CDE900310822CDE902231A46214626
:102DA00000F024FB04B0002010BDFDF7B7BC70B5E7
:102DB000002400F2323004EB840505EBC40500EB7F
:102DC0004505EE7B0A358E4201D0FF2909D1AE7947
:102DD000964201D0FF2A04D1ED799D4207D0FF2B06
:102DE00005D0641C64B2022CE5DBFF2070BDE0B2AC
:102DF00070BD0B2907D200EB8100B0F87C13C1F342
:102E00000E01C0F87C130020704730B48578029C16
:102E1000012D0FD141F0800101740621417403217D
:102E20004282B1EB122F02D140F2094100E00021B1
:102E30008182C482224630BC1946FFF778BF0A88D7
:102E400003781A440A80017808447047F8B50E46A2
:102E500000F11C05009104462B464FF4007200213E
:102E6000FFF7D3FF070005D13246294604F232307E
:102E700001F0D2F83846F8BD38B50D460091044649
:102E800000F58E734FF480720021FFF7BEFF010042
:102E90003DD104F5487094F81C21027094F81D216E
:102EA000427094F81E2194F81F31082D02EB032282
:102EB000428094F82021027194F82121427194F803
:102EC0002221827194F82321C27120D994F82421FF
:102ED00094F8253102EB0322028194F8262194F81C
:102EE000273102EB0322428194F8282194F82931FA
:102EF00002EB0322828194F82A21827394F82B2119
:102F0000C27394F82C21027494F82D21427408465F
:102F100038BDF8B51C461646009341F4407200F5E2
:102F20008E731D460021FFF770FF002814D16978C9
:102F3000032911D129788A1EA24200DC14460021FF
:102F4000A2B2AD1C04E06B5C891C06F8013B89B29F
:102F50009142F8D300213170F8BD2DE9F84F0446B5
:102F60000125007E0B262F464FF009084FF0070978
:102F70004FF0050B4FF00D0A0C281ED2DFE800F0D1
:102F8000A9060E212C38445C67788495627904F197
:102F900010012046FFF7FAFE02200DE0617920467D
:102FA00000F095F9012877D1207CE18A00F08000BB
:102FB00021B180283BD1032020768AE0802814D0DC
:102FC0002FE0D4F8B803E0812379A2892046A168D4
:102FD000FFF79EFE0420EFE72179204600F077F905
:102FE000012802D0052841D056E084F8188070E00E
:102FF00000976379A2892046A168FFF7B3FED4F851
:10300000B803E0810620D7E76179204600F05FF938
:10301000012806D0052807D0022808D0042809D0A6
:1030200057E084F8189054E00C2020761EE084F8D5
:1030300018B04EE026764BE0002223791146204658
:10304000FFF766FED4F8B803E0810820B4E72179E1
:10305000204600F03CF9012804D0042823D005289C
:1030600004D036E084F818A0002532E0032530E0D3
:1030700000970022637911462046FFF773FED4F8CB
:10308000B803E0810A2097E76179204600F01FF934
:10309000012804D00228A8D0042804D019E0002573
:1030A00084F818A015E0267613E0607E401CC0B2BC
:1030B0006076022805D8204600F088F92776A770A8
:1030C00007E0D4F8C423062120469047002060760C
:1030D00002252846BDE8F88FFEB504460126407853
:1030E0000025374604F58E7208286CD2DFE800F020
:1030F00004161D434A53576208212046FFF7BCFEC1
:10310000002860D194F82703A071677094F81D130C
:103110000091CDE9015094F81C3319E012212046AA
:10312000FFF7AAFE30BB022033E00121204601F068
:10313000B4F8F8B90220FFF738FE84F81C730320B6
:103140006070A07994F81D13CDE900153B460290FC
:1031500021798022204600F055FFA07994F81D13B4
:103160000091CDE9015094F81C336179002220468A
:1031700000F048FF27E009212046FFF767FE10BB5B
:10318000042006E0B4F834132046FFF75FFED0B900
:103190000520607017E094F82E13062502E094F8DD
:1031A0002F13072521B1FF232046FFF7B2FE50B9A8
:1031B000657008E094F8301321B1FF232046FFF733
:1031C000A8FE00B900263046FEBD70B50D460400CD
:1031D00011D084F8BC230020C4F87403C4F8780329
:1031E0002046FDF789F80DB1C4F8C453204600F01D
:1031F00081F8002070BD022070BD10B50024D0F809
:10320000C003FDF766FD30B1012801D0022801D0CE
:10321000022400E00124204610BD10B5017819B148
:103220000178012909D00AE0012180F81E13D0F8A5
:10323000C42322B10421904701E002210170002043
:1032400010BD10B5044600F0C1F821792046FFF703
:10325000D0FD61792046FFF7CCFD002084F81E03E5
:10326000D4F8C42312B1052120469047204600F02F
:103270009DF803202070002010BD10B5C820FDF778
:103280004DFA002010BDD0F8C003FDF71CBD10B5ED
:103290000124D0F8C003FDF70CFD20B1012805D0B2
:1032A000022803D101E0002400E00224204610BDE2
:1032B000D0F8C00301EB810100EBC10090F83B1096
:1032C00011B190F85000704790F851007047D0F855
:1032D000C003FDF7F1BCD0F8B813491CC0F8B8130F
:1032E00001780A2905D1D0F87413002901D0896921
:1032F0000847704710B5044690F8BC03012819D15F
:103300000D484FF0A0410022C0F89442C4F8C00319
:103310000160082181600321C0E903120221C0E994
:103320000612FDF706FE0448FDF7C0FC01462046E4
:1033300000F029F8002010BD7C1B0020FEB508AC71
:1033400094E8E0008DE8E0000024D0F8C003FDF729
:10335000D2FC30B1012801D0022801D0022400E0C3
:1033600001242046FEBD10B50024D0F8C003FDF7AF
:1033700063FE30B1012801D0022801D0022400E010
:103380000124204610BDC0F8B8137047D0F8C00320
:1033900001EB810100EBC10090F83B1011B180F806
:1033A000502001E080F851200020704710B5002423
:1033B000D0F8C003FDF747FE30B1012801D0022844
:1033C00001D0022400E00124204610BD10B50024E5
:1033D000D0F8C003FDF74DFE30B1012801D002281E
:1033E00001D0022400E00124204610BD2DE9FF4158
:1033F0000AAC94E8E0108DE8E0100024D0F8C00397
:10340000FDF7A4FC30B1012801D0022801D002242C
:1034100000E0012404B02046BDE8F081034602200C
:10342000D3F87413C9692AB1012A05D189791846DC
:10343000FFF75FBCC979FAE770470000D0F8740362
:103440000549C069416505498165012100F8501FA2
:103450008170002070470000555342435040302097
:103460002DE9F84F0746D0F8740301263546C469A4
:103470004FF00B0A4FF00A0B94F850004FF0090977
:103480004FF007080C2845D2DFE800F0D2061125DE
:103490002E4852757EA7AFCB84F86110022084F8C5
:1034A0005000009563791F2204F1540159E06179BD
:1034B0003846FFF70CFF012802D002287ED03FE0FB
:1034C000E06D002829D094F86000000601D50320A3
:1034D0004BE0052049E0237962893846D4F88C1006
:1034E000FFF7DEFB042040E021793846FFF7EFFECE
:1034F00001284FD16289E06D90420CD9D4F88C102C
:10350000801A1144C4F88C10E0656BD023793846DA
:10351000FFF7C6FB8CE00020E06563E0009563796F
:1035200022893846D4F88C10FFF7CAFB06201CE02D
:1035300061793846FFF7CBFE012804D00228C8D0B5
:10354000052815D074E02289E06D9042E3D9D4F8C3
:103550008C10801A1144C4F88C10E06542D000959C
:1035600063793846FFF7ACFB62E084F850005FE017
:1035700084F850B05CE023790D2204F178013846DC
:10358000FFF78EFB0820F0E721793846FFF79FFE12
:10359000012802D005281DD04AE004F8505F3846C3
:1035A000A570D7F87413CC692179FFF76CFE0D284C
:1035B0000CD12149A06F884208D100E036E0A16D0E
:1035C000E06F884202D194F8840008B102262FE00F
:1035D00000262DE084F850902AE000223846FFF7BC
:1035E0001DFF38B984F8508022E001223846FFF7E9
:1035F00015FF10B1042811D01AE061793846FFF7A1
:1036000057FEC0F10100C2B261793846FFF7BEFE35
:10361000217900223846FFF7B9FEDBE784F850A095
:1036200006E0384600F015F8060001D184F8505045
:103630003046BDE8F88F000055534253A122027472
:10364000FE2242740022428282820122C282FFF75D
:103650006EBB21210174FF214174002141828182CE
:10366000C1820A46FFF763BB70B5D0F87413012519
:10367000CC69A17B21B1022902D0032928D121E004
:103680002146FFF7DBFF00210546032801D015B1D5
:103690001EE0002521602078401C206000200223CD
:1036A0000CE000BF00EB800202EBC00204EB8202E0
:1036B000401C82F8923082F8C110C0B22268824267
:1036C000F0D805E00021FFF714FB08B9E07BA073F8
:1036D000284670BD10B51446D0F874230078D3691D
:1036E0000A2801D0022010BD01EB810000EBC100CF
:1036F00003EB8001342220469031FCF761FD00206D
:1037000010BD70B50546D0F874030026C469617910
:1037100039B12846FFF7E8FA61792846FFF769FBD7
:103720006671217939B12846FFF7DEFA21792846FA
:10373000FFF75FFB2671D5F87403C06920B103F071
:1037400017F8D5F87403C661002070BDFEB50546B4
:10375000D0F8740302245023017906222846FFF78B
:1037600026FB0146FF287DD0284600F08BFDE001B6
:1037700003F012FAD5F874130446C86195F81F03D4
:1037800000EB800101EBC00005EB400090F848031E
:1037900001060CD5E07195F81F0300EB800101EBE9
:1037A000C00005EB4000B0F84A0360810BE0A07157
:1037B00095F81F0300EB800101EBC00005EB400012
:1037C000B0F84A03208195F81F0300EB800101EB5C
:1037D000C00005EB400090F8500301060CD5E071E5
:1037E00095F81F0300EB800101EBC00005EB4000E2
:1037F000B0F8520360810BE0A07195F81F0300EB55
:10380000800101EBC00005EB4000B0F852032081BD
:103810000020A4F8F800A4F8FA0020736073A073E5
:10382000A1792846FFF722FA6071E1792846FFF76F
:103830001DFA20712846FFF701FE682104F190006F
:10384000FCF7D7FC208995F81D1302260091CDE9DD
:10385000016095F81C33A2796179284600F0D2FB0B
:10386000608900E016E095F81D130091CDE9016034
:1038700095F81C33E2792179284600F0C3FB2179C1
:1038800000222846FFF782FD617900222846FFF7D3
:103890007DFD00242046FEBD2DE9F0470746D0F807
:1038A00074034FF0010AC469207B10B101287DD157
:1038B00035E1B4F8F800216801254FF0000888428E
:1038C00075D200EB800101EBC00004EB8000022602
:1038D00080F89150B4F8F8004FF0050900EB800132
:1038E00001EBC00104EB810292F8901009295DD22E
:1038F000DFE801F0055C26910CBA5C5CF200042064
:1039000082F89000D7F8B803C4F8FC00B4F8F800C7
:1039100000EB800101EBC00104EB8102C1B238462B
:103920009F3200F08DF940B9B4F8F80000EB800147
:1039300001EBC00004EB8000B8E002287DD09BE0E2
:10394000C1B2384600F0A0FA10B1022833D093E09B
:10395000B4F8F80000EB800101EBC00004EB80003C
:1039600090F8921011B180F8C15001E080F8C18048
:10397000B4F8F820032002EB820101EBC20104EB52
:10398000810181F89000B4F8F81001EB810202EB9C
:10399000C10104EB810181F89180B4F8F81001EBCA
:1039A000810202EBC10104EB810101E0B9E0ADE06D
:1039B00081F89280B5E0B4F8F80000EB800101EBEB
:1039C000C00004EB800090F89210022902D080F829
:1039D000C15001E080F8C180B4F8F81001EB810219
:1039E00002EBC10104EB810181F89090B4F8F8007A
:1039F00000EB800101EBC00004EB800080F89150E7
:103A0000B4F8F80000EB800101EBC00004EB80008B
:103A100080F8926085E0C1B23846943200F0AEF989
:103A200000288AD1B4F8F80000EB800101EBC00057
:103A300004EB800080F8905000E00AE0B4F8F81041
:103A400001EB810202EBC10104EB810181F891805D
:103A500031E0B4F8F81001EB810202EBC10104EB94
:103A6000810181F890905CE0C1B238469C3200F050
:103A7000C2F920B1022823D004282ED051E0B4F896
:103A8000F80000EB800101EBC00004EB800090F82F
:103A90009C10062901D002290BD1D7F8B813D4F80D
:103AA000FC20891A42F21072914202D280F8906092
:103AB00037E080F8905034F8F80F401C208030E058
:103AC000B4F8F810082001EB810202EBC10104EB0D
:103AD000810181F8900024E014E0B4F8F80000EBD4
:103AE000800101EBC00004EB800080F89050B4F836
:103AF000F80000EB800101EBC00004EB800080F8CF
:103B000091600EE0401CA4F8F8000AE0A4F8F880E8
:103B10002573D7F8C42302213846904701E04FF0BF
:103B2000000A5046BDE8F0872DE9F843D0F8742329
:103B300001EB810303EBC103D269012502EB83048E
:103B4000082794F890302E46052B22D000224FF003
:103B50000508062B02D0072B2AD10CE00023009287
:103B60001A4600F0CDF80BE002280FD018E000BF95
:103B700084F890701BE0002300921A4600F0AAF926
:103B80000028F1D184F89060002511E084F890803D
:103B90000EE004F19C0200F02EF920B1022807D0BB
:103BA0000428E5D004E004F8906F0220607002253C
:103BB0002846BDE8F8832DE9F8430446D0F874039D
:103BC000089E0F46C56994F81E0360B120780A2844
:103BD00009D107EB870000EBC70005EB800090F8E8
:103BE0009010012902D00220BDE8F8830621297334
:103BF00080F89010A5F8FA7039462046009600F03B
:103C00007FF8D4F8B88340F271204FF001094643A1
:103C100009E0D4F8B813A1EB0800B0EB061F0CD8EC
:103C200094F81E0348B139462046FFF77DFF01286E
:103C3000EFD085F80C900020D6E785F80C90D2E7FD
:103C400070B51546D0F874230226D46994F8522032
:103C5000012A02D0022A51D128E024228020E265E4
:103C600084F860000A2084F862000020C4F8630031
:103C7000C4F86700A4F86B00122384F8633049018C
:103C800084F8641084F8650084F8660084F867207E
:103C900084F86800012084F85000022084F8520063
:103CA00004F110000126C4F88C0027E0FFF7D8FBD0
:103CB000060023D122212846FCF79BFA54F88C0FEA
:103CC0001022007800F01F0068702068007840091A
:103CD000287020684078C009A87020688168C5F8FD
:103CE0000310C068C5F80700216805F10C00103109
:103CF000FCF766FA2068006AC5F81D00304670BD02
:103D00002DE9F041154602461F46D2F874330220D1
:103D1000069EDC6994F85230012B06D0022B2BD181
:103D2000BDE8F0411046FFF79BBB7002E0658020C4
:103D300084F860000A2084F86200102104F1630016
:103D4000FCF757FA282084F86300280E84F86500F1
:103D5000280C84F86600280A84F8670084F8685004
:103D6000300A84F86A0084F86B60012004F8500F70
:103D70000220A0700120E763BDE8F08170B516460F
:103D8000D0F874230125D46994F85220012A02D076
:103D9000022A2ED11AE00820E065802084F8600015
:103DA0000A2084F86200102104F16300FCF721FA74
:103DB000252084F86300012084F85000022084F854
:103DC000520004F11000C4F88C0012E0FFF748FB29
:103DD00005000ED154F88C0F4188427849BA00781A
:103DE00062F31F4141EA006030602068C08840BA39
:103DF000B080284670BD70B5154602460E46D2F812
:103E000074130220CC6994F85210012914D00229AD
:103E100011D131461046FFF723FB00280BD154F88F
:103E20008C1F897801F00F0129702168097B697066
:103E30002168497BA97070BD0E258020E56584F856
:103E400060000A2084F86200102104F16300FCF78E
:103E5000D0F9032084F86300700184F86400002026
:103E600084F8650084F8660084F8675084F8680078
:103E7000012084F85000022084F8520004F1100060
:103E8000C4F88C00012070BD70B502460220D2F843
:103E90007433DC6994F85230012B06D0022B18D110
:103EA000BDE870401046FFF7DBBA0025E56584F8F1
:103EB00060500A2084F86200102104F16300FCF7CE
:103EC00098F984F86350012004F8500F0220A07084
:103ED000012070BD2DE9F041154602461F46D2F87B
:103EE00074330220069EDC6994F85230012B06D010
:103EF000022B2BD1BDE8F0411046FFF7B1BA70029A
:103F0000E065002084F860000A2084F86200102137
:103F100004F16300FCF76DF92A2084F86300280E91
:103F200084F86500280C84F86600280A84F8670085
:103F300084F86850300A84F86A0084F86B600120C5
:103F400004F8500F0220A0700120E763BDE8F08163
:103F500000207047D0F874230078D2690A2808D16D
:103F600001EB810000EBC10002EB800090F89100B2
:103F700008B100207047012070472DE9F84304463E
:103F8000D0F87403089E0F46C56994F81E0360B10B
:103F900020780A2809D107EB870000EBC70005EB62
:103FA000800090F89010012902D00220BDE8F8832B
:103FB0000721297380F89010A5F8FA703946204639
:103FC0000096FFF787FFD4F8B88340F271204FF0D6
:103FD0000109464309E0D4F8B813A1EB0800B0EB9F
:103FE000061F0CD894F81E0348B139462046FFF747
:103FF0009BFD0128EFD085F80C900020D6E785F8CE
:104000000C90D2E7FEB508AF97E870008DE870001D
:10401000FFF794F90020FEBD2DE9F84105460B7825
:104020002B704B786B708B78CC78084603EB0423AD
:104030006B800B792B714B796B718B79AB71CB7971
:10404000EB710027017A2972092A57D90921ADF8A5
:1040500000104EE06946FEF7F2FE4178042946D191
:1040600007EB870101EBC70105EB4108017888F8F0
:104070000A10417888F80B10817888F80C10C17804
:1040800088F80D10017988F80E10417988F80F1022
:10409000817988F81010C17908F10A0488F81110A4
:1040A000017A2172002618E06946FEF7C8FE4178C1
:1040B000052912D108EBC60102780A7542784A75C3
:1040C00082788A75C278CA7502794379761C02EBC8
:1040D00003220A8382798A7676B22179B14204DD9D
:1040E0006988BDF800209142DED87F1C7FB2022F84
:1040F00004DA6A88BDF800108A42ABD8BDE8F881BE
:10410000FEB5044602208DF8000021780020082723
:104110000C2605460B2913D2DFE801F006A41399FB
:10412000A4428250575F920094F81E03002807D0E3
:1041300001202070C820FEF738FE2046FFF713F953
:1041400090E06420FEF731FE2046FFF7A0F884F8E7
:104150001D030520207000212046FEF787FD6071B9
:1041600080212046FEF782FD20710146A07994F857
:104170001D230092CDE9015094F81C338022204683
:10418000FFF740FFA07994F81D130091CDE901508D
:1041900094F81C33617900222046FFF733FF61E079
:1041A0002046FEF799FFD0BB84F81F5394F83103E3
:1041B000012801D007203FE0277053E0D4F8C42342
:1041C0006AB3012120469047F6E794F8371320465A
:1041D00000F071F818BB09202EE0D4F87813F1B183
:1041E000C4F8745394F8412304EB8001D1F87013A0
:1041F0000B79934201D1C4F87413401C10F0FF00F6
:10420000F2D0D4F87403C8B1816820468847A8B9B1
:1042100006202070D4F8C42303212046904721E0D3
:10422000D4F8740350B10169204688478DF8000026
:104230009DF80000B0B90A20207013E0267011E04C
:10424000D4F8740370B14169204688470AE02046DB
:10425000FCF752F8D4F8740320B1C16820468847AF
:10426000C4F874530020FEBD002211B1D0F8783399
:1042700013B10222104670470123C0F87833C0F80A
:104280007013F7E70246002092F836338B4202D9CA
:1042900082F81F137047022070478278012A06D1E6
:1042A000002202740523437441828282C28200226A
:1042B0001146FEF73CBD8278012A06D10022027425
:1042C0000923437441828282C28200221146FEF792
:1042D0002EBD10B50446FFF769F801212046FEF710
:1042E000CCFF002010BD000001290AD0054802299A
:1042F00005D0042905D0052903D1022100E00121C0
:1043000001707047300000200020704730B58DB03C
:104310001546012449B1012909D0022910D00329E9
:104320000ED004240DB0204630BD0024FAE701462B
:104330006A460948FFF7CEF90028F3D1019808E052
:1043400001466A460448FFF7C5F90028EAD1BDF8DE
:1043500008002860E9E70000A80200202DE9F043EA
:1043600081468FB01C4616460D46880713D04FF481
:1043700000780127641E26D33219154B494615488B
:104380000097FFF718FC68B905EB44204246104936
:10439000FBF716FFEEE700930B4649460D48FFF783
:1043A0000AFC80B101AA49460A48FFF793F99DF833
:1043B0001100042809D0282807D03A2805D0012068
:1043C0000FB0BDE8F0830020FAE70320F8E7000013
:1043D00084000020A802002010B5014601240348F3
:1043E000FFF7B8FD00B10024204610BDA802002050
:1043F0002DE9F04381460D4600208FB01C4616463D
:10440000890714D001274FF40078641E15D305EBFB
:10441000442142461548FBF7D3FE3219134B494657
:1044200013480097FFF7A9FD0228EED107E000939B
:104430002B4649460E48FFF7A0FD00280FD001AAE1
:1044400049460B48FFF746F99DF8110004280BD0A8
:10445000272807D0282807D03A2805D001200FB0F8
:10446000BDE8F0830220FAE70320F8E7840000208B
:10447000A802002070B50446049D06990D980129F4
:104480000CD0E06840F04000E060204600F028F8E2
:104490004FF48030A063012D16D01DE0A16B21F4F4
:1044A0008031A163E1680D4A1140E160E16821F4C7
:1044B0004011E160012803D1E06840F48010E06021
:1044C000204600F00DF8E6E7A06840F00600A06086
:1044D000A06840F02000A060002070BDBFFFBDFFBD
:1044E00001220C4902E0521C8A420BD80369002BBE
:1044F000F9DA026942F001020261012204E0521C71
:104500008A4201D9032070470369DB07F7D10020F5
:1045100070470000400D0300816821F001018160B7
:104520000020704730B50246012400230C4800EA01
:10453000C44040F0004502F5A06000EB4110056169
:1045400002F5A06000EB4110036823F0804343F0C4
:10455000004302F5A06000EB41100360002030BD75
:104560000000F81F08B5D0F8402422F02E02009277
:10457000D20405D4012909D1009941F4805103E006
:1045800021B9009921F48051C0F84014002008BDE1
:10459000816841F0010181600020704700211022F4
:1045A0000261054A491C914201D903207047036901
:1045B000DB06F7D400207047400D030000222023C3
:1045C00043EA811101610549521C8A4201D9032045
:1045D000704703699B06F7D400207047400D030025
:1045E000D0F8080480B2704708B5D0F840040090B5
:1045F000C0F3414008BD406900F00100704710B5AC
:104600000246002302F5A06000EB41100068C0F3F1
:10461000814040B102F5A06000EB41100068C0F39A
:104620008140022846D102F5A06000EB41100068ED
:1046300040F0804402F5A06000EB41100460D06AB5
:1046400000F47F0048BB02F5A06000EB4110006859
:1046500020F0004402F5A06000EB4110046002F578
:10466000A06000EB4110006840F0004402F5A0603B
:1046700000EB4110046000BF581C0346B0F57A7F80
:1046800000D909E002F5A06000EB4110006800F0DD
:104690000040B0F1004FEFD053E002F5A06000EB16
:1046A0004110006840F0004402F5A06000EB4110AA
:1046B000046046E002F5A06000EB4110006840F0A5
:1046C000804402F5A06000EB411004604FF482606A
:1046D000805880B248BB02F5A06000EB4110006832
:1046E00020F0004402F5A06000EB4110046002F5E8
:1046F000A06000EB4110006840F0004402F5A060AB
:1047000000EB4110046000BF581C0346B0F57A7FEF
:1047100000D909E002F5A06000EB4110006800F04C
:104720000040B0F1004FEFD00BE002F5A06000EBCD
:104730004110006840F0004402F5A06000EB411019
:104740000460002010BD0000F0B5DDE906564FF012
:10475000FF3C00EB4114059FC4F808C535B1012D9D
:1047600021D0022D02D0032D2AD114E040F29D4C1D
:10477000C4F80CC55FEA026C05D500BFD4F80CC5BF
:104780004CF4807C1AE0B0F1A04F19D0D4F80CC5DD
:104790004CF0600C12E040F29D6CC4F80CC55FEA6E
:1047A000026CEBD40CE040F2252CC4F80CC55FEA97
:1047B000026C05D5D4F80CC54CF4C07CC4F80CC50B
:1047C000D0F818C44FF0010E0EFA01FE4CEA0E0CA0
:1047D000C0F818C4816941F0007181614FF0FE504A
:1047E00000EA83504FF4F04101EAC22108434FF43C
:1047F000004101EA02210843022F10D05FF00001BE
:1048000040EA41404FF4402101EA85410843C6F3A4
:104810000A010843C4F80005032D02D007E0012176
:10482000EEE7D4F8000540F00050C4F80005002081
:10483000F0BD014640F21440405880B2704700007D
:104840002DE9F84F05460C4616464FF0000BDA46A8
:1048500000274FF48078B946B5F1A04F1CD02079DD
:10486000D0B94EB96079012806D161782846FFF7A2
:1048700059FE0020BDE8F88F012E0DD1607805F5B6
:10488000A06101EB4010C06820F06002607801EB8D
:104890004010C26000206071206968B121892069E0
:1048A0000844401EB0FBF1F087B2474505DD47469E
:1048B00020897843206100E00127E07810B1208949
:1048C000784320612069C0F312003E4901EAC741E4
:1048D0000843A17A4FF0C04202EA4171084361786F
:1048E00005F5A06202EB4111086136B1607805F56B
:1048F000A06101EB4010E26842614FF481604059D1
:1049000000F0010080F0010B607805F5A06101EB7B
:104910004010006820F00052607801EB4010026007
:10492000607801EB4010006840EA4B72607801EB60
:1049300040100260607801EB4010D0F8009029F040
:10494000804949F00049607801EB4010C0F80090C0
:10495000AEBBE07898BB206988B3E07930B101281C
:1049600013D0022803D003281ED10DE000BF206918
:10497000C01CC0F38F0AE86A80B2504503D2A86910
:1049800040F02000A86110E000BF2069C01CC0F307
:104990008F0A4FF48260405980B2504503D2A86913
:1049A00040F08060A86100E000BF00BF00200090E0
:1049B000208A83B262782846E16800F07DFA002000
:1049C00058E700000000F81F2DE9F047174604469D
:1049D0000025DDF82090C0F8005E806B20F4802078
:1049E000A063A06B20F40020A063A06B40F4001033
:1049F000A0634FF0A048032B06D1444504D0D4F85F
:104A0000000440F0040003E0D4F8000420F00400A7
:104A1000C4F8000410212046FFF7D0FD2046FFF720
:104A2000BDFD0020461E06E004EB4011C1F80865FC
:104A3000C1F80C55401C8742F6D801212046FFF7EB
:104A400091FDC820FBF76AFEA5616661444505D16A
:104A5000802060620C48A0620C4805E04FF40070B2
:104A600060620B48A0620B48C4F80001B9F1000F66
:104A700003D1A06940F01000A061A0690649084375
:104A8000A0610020BDE8F08780006000E0004000E9
:104A9000000200010003E000080020A32DE9F04F10
:104AA0008DB000244FF48068CDF80080274645463D
:104AB000234665A20521AA200A94FDF74FFC002396
:104AC00065A2282114200095FDF748FC002365A26B
:104AD00028214FF4E1700095FDF740FC012262A10E
:104AE000624801F0ABF8624D687018B161A000F047
:104AF000F9F9FEE7012263A1654801F0CDF868707D
:104B0000011E03D063A000F0EDF9FEE76048D0F885
:104B10000C6265A0314600F0E5F9DFF8A0A1A946D6
:104B20004FF4006B4546CDF830A003AB5A466449BC
:104B3000574801F077FA89F80100BDF80C201444B9
:104B400050BB4AB35E490C9801F0CCFE6420604330
:104B5000B0FBF6F0804601465AA000F0C3F9424689
:104B60005CA10BA800F0CEF900230BAA28214FF47A
:104B7000CD700095FDF7F2FB1FFA88F0CDE9000536
:104B80003E234FF4C8722A219620FDF7DAFD0C98D7
:104B900000F500600C90C8E721464FA000F0A2F994
:104BA0003B4800F0F3FEB4420AD04FA000F09AF95F
:104BB000002352A2C8218C200095FDF7CFFBFEE711
:104BC000DAF8040054460821B1EB106F31D14FA040
:104BD00000F088F9FDF766FC002355A2C8218C205F
:104BE0000095FDF7BBFB57480068401C0ED0FBF753
:104BF00037FE0B20079001200890022009900597AE
:104C00000AA905A8FBF798FDFBF7E2FD4FF47A70BF
:104C1000FBF784FD4C48FCF7B9F929484038FCF70C
:104C20007FFF4A480760204601F04BFE0DB0BDE80B
:104C3000F08F002331A2C8218C200095FDF78EFB58
:104C400029A000F04FF9F1E7557067726164696E51
:104C5000672E2E2E000000004D61696E20426F61AC
:104C60007264000025000000303A00007006002049
:104C7000300000204D6F756E74206661696C65644C
:104C80000D0A00007570646174612E62696E000027
:104C9000A00800204F70656E206661696C65643AFB
:104CA00025640D0A0000000046696C652073697A6E
:104CB000653A2564427974650D0A00000000010818
:104CC0007C130020577269746525346425250D0A0C
:104CD0000000000025336400546F74616C3A256451
:104CE000427974650D0A0000557067726164652031
:104CF0006661696C65640D0A00000000557067729A
:104D0000616465204661756C74210000557067729E
:104D100061646520737563636573736564202C6AD1
:104D2000756D7020746F204170700D0A00000000D6
:104D30005570677261646520436F6D706C65746552
:104D40006421000000000E087C1B00203C0E47423E
:104D5000D0F8002422F00302C0F80024D0F8002488
:104D600001F003031A43C0F80024012902D00229EC
:104D700003D006E04BF6803101E041F27071C0F8DB
:104D8000041400207047416980690840704710B5DD
:104D900003460020D21C920803F5805303E01C68F0
:104DA00041F8044B401C9042F9D3084610BD38B579
:104DB0000446D0F8400420F02E00009040F48070AB
:104DC000C4F840040A2004F58864FBF7A7FC0098A7
:104DD00020F480702060002038BD10B5C26822F039
:104DE000C042C260012901D021B107E0C16841F091
:104DF000005102E0C16841F08041C1603220FBF700
:104E00008DFC002010BDF0B505460027A86820F0F5
:104E10000100A86010212846FFF7D0FB2846FFF7C5
:104E2000BDFB002411E005F5A06000EB441006680E
:104E300046F0804626F0004626F4004605F5A060C0
:104E400000EB44100660601CC4B20F2CEBDD0024A4
:104E500023E005F5A06000EB4410066846F08046AC
:104E600046F0004626F4004605F5A06000EB44102D
:104E7000066000BF781C0746B0F57A7F00D909E0CC
:104E800005F5A06000EB4410006800F00040B0F1B0
:104E9000004FEFD000BF601CC4B20F2CD9DD4FF023
:104EA000FF3140F21440415108466861A86840F063
:104EB0000100A8600020F0BD30B50024039D6DB94D
:104EC000DB1C9B0800EB023000F5805004E000BFC3
:104ED00051F8042B0260641C9C42F9D3002030BDC1
:104EE000FEE700000FB4054B10B503A9044A029871
:104EF00000F02CF810BC5DF814FB000059670008A6
:104F0000580000200FB4084B10B504A902AA03985A
:104F100000F01CF8044602A9002000F048FA2046E0
:104F200010BC5DF814FB0000AF53000802E008C895
:104F3000121F08C1002AFAD170477047002001E013
:104F400001C1121F002AFBD1704700002DE9FF4F5D
:104F50008DB00F460546002606E025280BD0DDE97A
:104F60000F1290476D1C761C28780028F5D111B0DF
:104F70003046BDE8F08F0024A246A1460122EC494C
:104F800000E0044315F8013F203B02FA03F0084219
:104F9000F7D128782A2810D06FF02F022878A0F1B6
:104FA0003001092914D80AEB8A0102EB410144F0CF
:104FB000020400EB010A6D1CF0E701CF5FEA000A72
:104FC00003D544F40054CAF1000A44F002046D1CF5
:104FD00028782E2817D115F8010F44F004042A2848
:104FE0000ED06FF02F022878A0F1300109290AD8DD
:104FF00009EB890102EB410100EB01096D1CF2E7AD
:1050000057F8049B6D1C28786C280FD006DC4C28C0
:1050100017D068280DD06A2814D104E0742810D065
:105020007A280FD10DE044F400140AE044F480140F
:1050300001E044F440146978814202D104F58014FF
:105040006D1C6D1C2A786E2A1FD00CDC632A31D0AF
:1050500004DC002A8BD0582A11D1A3E0642A68D03E
:10506000692A0CD165E0732A2ED004DC6F2A73D034
:10507000702A04D19BE0752A6FD0782A6ED0104632
:10508000DDE90F129047761C50E1C4F3025002286C
:1050900006D0032809D0042801CF09D0066045E1D5
:1050A00001CFF117C0E9006140E101CF06803DE189
:1050B00006703BE117F8040B8DF8000000208DF816
:1050C0000100EB46012003E057F804BB4FF0FF302E
:1050D00061074FF0000102D40DE008F1010188469C
:1050E00049450FDA8045F8DB1BF808100029F4D198
:1050F00008E008F1010188468142FADB1BF808103C
:105100000029F6D1DDE90F23AAEB080081462146EC
:1051100000F036F9304400EB080604E0DDE90F1238
:105120001BF8010B9047B8F10108F7D22146484619
:10513000F7E00A21C4F302534FF0000B0891022B51
:1051400004D001CFC117032B09D00AE0FF1D27F0BF
:105150000707F7E8020108E032E01FE020E000B2B4
:10516000C117042B01D140B2C117031E71F1000316
:1051700007DA4FF0000CD0EB0C006CEB01012D2393
:1051800002E0230504D52B238DF82430012303E00E
:10519000E30701D02023F7E7984658E00A2110E002
:1051A00010210EE010204FF0000B08900CE01021B1
:1051B0004FF0000B44F004044FF00809089103E09D
:1051C00008214FF0000B0891C4F30253022B04D0C6
:1051D00001CF0021032B06D006E0FF1D27F00707B3
:1051E000F7E8020103E080B2042B00D1C0B24FF017
:1051F000000823072BD5702A07D0DDF820C08CF0DB
:10520000100C5CEA0B0C05D00EE040238DF8243026
:10521000012308E050EA010306D030238DF8243042
:105220008DF8252002239846DDF820C08CF0080C6C
:105230005CEA0B0C0BD150EA010301D1630706D5E0
:1052400030238DF824304FF00108A9F10109582AC4
:1052500004D038A20B9208AA0A920BE03AA2F9E70E
:105260005B46089AFAF7D0FF0B9B9B5C0A9A521E8A
:105270000A92137050EA0102F2D10A98ADEB0000D5
:1052800000F1200B600702D524F4803401E04FF0D8
:105290000109D94502DDA9EB0B0000E0002000EB7D
:1052A0000B0141440890AAEB010AE00306D4DDE9B2
:1052B0000F232146504600F063F806444FF00009E2
:1052C00008E009A911F80900DDE90F12904709F17A
:1052D0000109761CC145F4DBE0030CD5DDE90F23A1
:1052E0002146504600F04CF8064404E0DDE90F1278
:1052F00030209047761C0899481E08900029F5DC5C
:1053000008E00A980A990078491C0A91DDE90F1211
:105310009047761CBBF10001ABF1010BF1DC21469B
:105320005046DDE90F2300F019F806446D1C1BE61A
:10533000092801003031323334353637383961626B
:10534000636465660000000030313233343536372F
:105350003839414243444546000000002DE9F04100
:10536000044600251E461746880404D405E0394645
:105370002020B0476D1C641EF9D52846BDE8F08199
:105380002DE9F041044600251E469046C80301D58C
:10539000302700E02027880404D505E04146384640
:1053A000B0476D1C641EF9D52846BDE8F0810A6837
:1053B000531C0B601070704710B50446002084F831
:1053C0000402401EC4F82C02204601F02BFC08B158
:1053D000032010BDB4F8FE01A0F52A41553901D0D3
:1053E000022010BD94F83600B4F8371040EA0121CD
:1053F0000848B0EB012F08D094F85210B4F85320AD
:1054000041EA0221B0EB012F01D1002010BD0120A3
:1054100010BD000000464154F0B50022184B144660
:1054200002EB420653F8265085B1D0F80072BD4217
:105430000DD103EB8605D0F808626F68B74206D13C
:105440002D89B0F80662B54204D000E00124521C58
:10545000022AE5D3022A01D079B904E05CB9022915
:1054600009D01220F0BD02EB420003EB800040891E
:10547000B0F5807F01D00020F0BD1020F0BD00000D
:105480008402002030B50021064A0C4601EB41039E
:1054900052F82350854201D142F82340491C022989
:1054A000F4D330BD84020020D0F82422D0F80002CA
:1054B000490A90F80202B1FBF0F0121D02CA19B1BC
:1054C000884203D3401AF8E7002070471168084467
:1054D0007047D0F81422891E921E8A4201D80020FB
:1054E0007047D0F8282290F8020201FB0020704794
:1054F0002DE9F0410F00054606D001F061F90228C0
:105500000BD20120BDE8F081D5F80C621EB1D5F8B0
:105510001402B04208D8012606E0411CF2D0D5F8AA
:1055200014128142EED83E463446D5F81402641C6B
:10553000A04202D80224022E0AD32146284601F0B6
:105540003FF938B1411CDDD00128DBD0B442ECD1A9
:105550000020D7E76FF070422146284601F07DFB1E
:1055600030B957B122463946284601F076FB20B1C2
:10557000012812D001242046C4E7C5F80C42D5F812
:105580001002411CF7D0401EC5F8100295F8050224
:1055900040F0010085F80502EDE74FF0FF34EAE73F
:1055A0002DE9F04789460C6800E0641C21782F291A
:1055B000FBD05C29F9D0D0F818520B2220212846C4
:1055C00001F029FB002001460B460826E25C5B1C2B
:1055D000202A2FD92F2A2DD05C2A2BD02E2A01D079
:1055E000B04208D3082E32D12E2A30D108200B2603
:1055F0008906090EEAE7802A29D221A700E07F1C4C
:1056000097F800C0BCF1000F02D09445F7D11EE01E
:10561000A2F14107192F02D841F0020107E0A2F1DF
:105620006107192F03D8203A41F00101D2B22A5460
:10563000401CCBE71C44C9F80040202A01D80422B2
:1056400000E0002218B12878E52803D004E0062005
:10565000BDE8F08705202870082E01D18806010ECC
:1056600001F00300012801D142F01002C1F38100D2
:10567000012801D142F00802EA720020E8E70000A8
:10568000222A2B2C3A3B3C3D3E3F5B5D7C7F000059
:10569000401E022815D20C4B00EB400203EB8201A6
:1056A0004889B0F5807F05D008B1401E80B248819E
:1056B00010B104E00020FAE7002043F822000020A7
:1056C0007047022070470000840200202DE9F0415D
:1056D000B0F806620446761C30040F46000C37D042
:1056E000D4F8100298B3310773D1401CC4F81002EB
:1056F000D4F80C12D4F8000231B190F80222521EF4
:1057000012EA161F05D064E0B0F80802B0421FD9B3
:105710005FE001F055F8054601281ED9681C3AD013
:10572000D4F80002D0F81412A94249D87FB1D4F8B5
:105730000C12FFF7DDFE05000DD0012D0DD0681C09
:1057400029D0D4F8000201F0C1FB20BB07E0FFE73D
:105750000420BDE8F0810720FBE70220F9E74FF4C1
:1057600000720021D4F8000201F055FA2946D4F85D
:105770000002FFF7AEFED4F8001200274FF0010838
:10578000C1F82C0211E000BF80F80482D4F80002B6
:1057900001F09CFB08B10120DBE7D4F80002D0F84F
:1057A0002C12491C7F1CC0F82C12D4F8000290F86F
:1057B0000212B942E8D8D0F82C12C91BC0F82C123A
:1057C000C4F80C522946D4F80002FFF782FEC4F850
:1057D0001002A4F80662D4F8000206F00F0100EBF4
:1057E0004110C4F814020020B3E770B5044600214C
:1057F00000F036F810E0D4F81012D4F8000201F0EE
:1058000011FA58B9D4F814020078E52809D040B14B
:1058100001212046FFF75AFF0028ECD0042809D0C8
:1058200009E0D4F81012D4F8000201F0FBF90500E9
:1058300003D013E00720054610E0D4F8140220221C
:10584000002104F5007401F0E6F9D4E905010B220A
:1058500001F0D8F92168012081F80402284670BDC2
:1058600070B5A0F80612D0F808320D460446012B98
:1058700040D0D4F80002D0F8141299423AD933B982
:1058800090F80012032906D1D0F824321BB190F809
:105890000202060114E0B0F80812A9422AD9D0F891
:1058A000240214E000F08CFF0346401C20D0022BA1
:1058B00020D3D4F80002D0F8140298421AD9AD1BB4
:1058C000D4F80002B5421946ECD2FFF702FEC4F844
:1058D0000C3278B100EB1510C4F81002D4F80002B5
:1058E00005F00F0100EB4110C4F81402002070BD58
:1058F000012070BD022070BD084910B50B5C00226C
:1059000053B901220A540A1801EB8000127A406848
:105910000168104688470246104610BD9C020020D0
:1059200030B4054C231804EB80001B7A40680469EE
:105930001846A44630BC60479C02002030B4054D98
:105940002C1805EB8000247A406885682046AC4618
:1059500030BC60479C020020044A111802EB800012
:10596000097A406842680846104700009C020020FF
:1059700030B4054D2C1805EB8000247A4068C568CA
:105980002046AC4630BC60479C02002010B504465F
:1059900000F00EFC00280DD1204601F0C7FA0028C7
:1059A00008D1D4F82802FFF773FE002802D10021A5
:1059B000C4F8001210BD00002DE9FC5F0D4604463E
:1059C00001F0B4FA5FEA000973D194F807020028E5
:1059D0006FD1D4F8240201274FF0020A002869D0C1
:1059E000691C33D0D4F80C02A84200D20546C4F892
:1059F0000852002D5CD02046691EFFF755FD014678
:105A0000C4F81402D4F80002FFF763FD00287CD02C
:105A1000D4F800126D1E91F80222521E02EA55229D
:105A20001518B4F80802C005E4D0D4F81822AA4228
:105A3000E0D094F80602400646D591F80102012311
:105A40002146FFF795FF002874D137E002C8009186
:105A5000D4F810128346022509B30026AD1C01912B
:105A60008846761CD4F8000200F0AAFE0146012800
:105A70004BD9481C5ED008F101008142F0D000985B
:105A8000854206D8CBF800600BF10400019A04C0EF
:105A90008346D4F80002D0F814028842DDD8D4F846
:105AA000240205600098854205D80021CBF800103B
:105AB000C2E09DE016E04FF01109BDE094F8060247
:105AC00020F0400084F80602D4F8000201232A46A0
:105AD00090F801022146FFF731FF00282AD1C4F8CF
