:020000040800F2
:10000000C82F00209D010008A3240008BD2100087E
:10001000A1240008590200088350000800000000D5
:10002000000000000000000000000000A5250008FE
:100030009D02000800000000B1240008A725000868
:10004000B7010008B7010008B7010008B7010008B0
:10005000B7010008B3240008B7010008B701000881
:10006000B7010008B7010008B7010008B701000890
:10007000B7010008B7010008B7010008B701000880
:10008000B7010008B7010008B7010008B701000870
:10009000B7010008B7010008B7010008B701000860
:1000A000B7010008B7010008B7010008B701000850
:1000B000B7010008B7010008B7010008B701000840
:1000C000B7010008B7010008B7010008B701000830
:1000D000B7010008B7010008B7010008B701000820
:1000E000B7010008B7010008B7010008B701000810
:1000F000B7010008B7010008B7010008B701000800
:10010000B7010008B7010008B7010008B7010008EF
:10011000B7010008B7010008B7010008B7010008DF
:10012000B7010008B7010008B7010008B7010008CF
:10013000B7010008B7010008B7010008B7010008BF
:10014000B7010008B7010008B7010008A52400089E
:10015000B7010008B7010008B7010008B70100089F
:10016000B7010008B7010008B7010008B70100088F
:10017000B7010008B7010008B7010008000000003F
:10018000B7010008B7010008DFF80CD000F052F802
:1001900000480047D16E0008C82F0020064880475D
:1001A00006480047FEE7FEE7FEE7FEE7FEE7FEE75C
:1001B000FEE7FEE7FEE7FEE751260008890100089A
:1001C00040EA01039B0703D009E008C9121F08C0D9
:1001D000042AFAD203E011F8013B00F8013B521E59
:1001E000F9D27047D2B201E000F8012B491EFBD2D0
:1001F00070470022F6E710B513460A460446194632
:10020000FFF7F0FF204610BD30B50B460146002039
:100210002022012409E021FA02F59D4205D303FAC8
:1002200002F5491B04FA02F52844151EA2F1010249
:10023000F1DC30BD064C074D06E0E06840F00103FC
:1002400094E8070098471034AC42F6D3FFF7A0FFBC
:10025000EC7300080C740008FEE70021002200EB9C
:100260008103C3F87C23491C0F29F8D300214318CC
:1002700083F81C21491CB1F5007FF8D3027042704D
:1002800001218170C0F8B823017640238371427642
:1002900080F81C2380F81D1300207047704700224F
:1002A000AFF3008010B4844601200F4B5C7A012C20
:1002B00017D8587A00241C54587A03EB8000C0F8F1
:1002C00004C0587A03F1080C00F80C20587A421C3C
:1002D0005A72303008703A2048702F208870CC70E5
:1002E000002010BC70470000B81B0020002200292D
:1002F00005D001291FD0022920D04FF440721149A6
:100300000B6823F440730B600B681A430A600A6899
:1003100022F0F8020A600A68F82393FAA3F3B3FA0A
:1003200083F3984040F0020010430860086840F4EE
:100330008030086070474FF48072E0E74FF400723D
:10034000DDE70000103C02401448016811F4007F12
:100350000FD0016821F400710160016841F400616F
:100360000160016821F400610160016841F40071DD
:100370000160016811F4806F0FD0016821F4806181
:100380000160016841F480510160016821F48051ED
:100390000160016841F4806101607047003C0240E7
:1003A00008490A6822F440720A600A6842F00402AE
:1003B0000A600A684FF4803343EA00201043086063
:1003C00070470000103C0240064A136823F4407353
:1003D000136013681360136843F001031360017026
:1003E00070470000103C02400A49D1F800C02CF4CC
:1003F000407CC1F800C0D1F800C04CF4407CC1F88A
:1004000000C0D1F800C04CF0010CC1F800C002607F
:1004100043607047103C0240074A136823F440735E
:100420001360136843F480731360136843F001038F
:100430001360018070470000103C0240074A1368B7
:1004400023F440731360136843F40073136013685C
:1004500043F001031360016070470000103C02404C
:100460001A49086810F0100F194805D0C26942F007
:100470001002C26110220A600A6812F0200F05D033
:10048000C26942F00802C26120220A600A6812F0C2
:10049000400F05D0C26942F00402C26140220A60E6
:1004A0000A6812F0800F05D0C26942F00202C261F0
:1004B00080220A600A6812F0020F05D0C26942F079
:1004C0002002C26102200860704700000C3C02401C
:1004D000201B002070B5044614490020C86100F0BC
:1004E0000DFB0646124D286810F4803F0ED0B4F183
:1004F000FF3F07D024B100F001FB801BA04201D9CF
:10050000032070BD286810F4803FF0D1286810F0F7
:10051000010F01D001202860286810F0F20F03D0ED
:10052000FFF79EFF012070BD002070BD201B002042
:100530000C3C02401C49884201D2002070471B49F4
:10054000884201D2012070471949884201D2022015
:1005500070471849884201D20320704716498842E3
:1005600001D2042070471549884201D20520704706
:100570001349884201D2062070471249884201D2AD
:10058000072070471049884201D2082070470F4960
:10059000884201D2092070470D49884201D20A20C1
:1005A00070470B20704700000040000800800008E2
:1005B00000C0000800000108000002080000040854
:1005C000000006080000080800000A0800000C08E7
:1005D00000000E0831B500F091FA0546009CB4F118
:1005E000FF3F00D0641C00F089FA401BA042FAD300
:1005F00038BD00002DE9F04104460F46DFF8988031
:1006000098F8180001280AD0012088F818004CF248
:100610005030FFF75FFF0246100003D035E00220A4
:10062000BDE8F0814FF0FF30386020681B4E012894
:1006300015D0A568E0682844A84224D9217C284622
:10064000FFF754FE4CF25030FFF744FF024630688B
:1006500020F0FA00306010000FD03D6013E0207CE5
:100660006168FFF79DFE4CF25030FFF733FF024602
:10067000306820F00400306005E06D1CA168E0687F
:100680000844A842DAD8FFF75FFE002088F8180077
:100690001046BDE8F0810000201B0020103C024005
:1006A0000348016841F000410160002070470000EC
:1006B000103C02402DE9F0410646884614461D468E
:1006C0001A4F387E012807D0012038764CF250307E
:1006D000FFF700FF18B115E00220BDE8F081AEB1D0
:1006E000012E18D0022E1BD022462B464046FFF783
:1006F0007BFE4CF25030FFF7EDFE0D490A6822F008
:1007000001020A6000213976BDE8F081E1B240467D
:10071000FFF75AFEEDE7A1B24046FFF77DFEE8E79E
:1007200021464046FFF78AFEE3E70000201B002039
:10073000103C02400648006810F0004F06D0064802
:10074000044901600549016000207047012070479D
:10075000103C024023016745043C0240AB89EFCDC9
:100760002DE9F04F0022DFF854914FF0030E09F10C
:10077000040A4FF00F080AF1040B012303FA02F4F4
:1007800001EA0403A3427AD105684FEA420C0EFA4B
:100790000CFC25EA0C050560D50800EB85052E6AE2
:1007A0005707FF0E08FA07F7BE432E62856825EA51
:1007B0000C058560456825EA04044460C46824EAA1
:1007C0000C0CC0F80CC022F0030C0CF1804404F5B2
:1007D0009834D4F808C895072E0F08FA06F505EAEC
:1007E0000C07A0F1804CBCF5003C4ED0A0F1804C31
:1007F000BCF5013C4CD0A0F1804CBCF5023C4AD089
:10080000A0F1804CBCF5033C48D0A0F1804CBCF575
:10081000043C46D0A0F1804CBCF5053C44D0A0F18E
:10082000804CBCF5063C42D0A0F1804CBCF5073CA6
:1008300040D04FF0080C0CFA06FCBC451FD1D4F890
:1008400008C82CEA050CC4F808C8D9F800C02CEA7E
:10085000030CC9F800C0DAF800C02CEA030CCAF88F
:1008600000C0DBF800C02CEA030CCBF800C0DFF8B6
:1008700050C0DCF8004024EA0303CCF80030521CDE
:10088000102AFFF47AAFBDE8F08F4FF0000CD2E7EA
:100890004FF0010CCFE74FF0020CCCE74FF0030C08
:1008A000C9E74FF0040CC6E74FF0050CC3E74FF063
:1008B000060CC0E74FF0070CBDE70000003C01400C
:1008C0000C3C01402DE9F84F0022DFF80082DFF8F0
:1008D0000092DFF800A24FF0030E0F27012303FA66
:1008E00002F50B682B40AB427DD1D1F804C0BCF1BE
:1008F000020F02D0BCF1120F12D14FEAD20C00EB62
:100900008C0CDCF820605407E40E07FA04FB26EA9E
:100910000B06D1F810B00BFA04F43443CCF82040A5
:1009200006684FEA420C0EFA0CF4A64391F804B0A4
:100930000BF0030B0BFA0CFB4BEA060606604E6845
:10094000012E05D0022E03D0112E01D0122E11D16E
:100950008668A643D1F80CB00BFA0CFB4BEA0606EE
:100960008660466826EA05050E79C6F300169640AD
:1009700035434560C56825EA04048D6805FA0CFC1A
:100980004CEA040CC0F80CC0D1F804C01CF0805F25
:100990007DD0D8F800C04CF4804CC8F800C0D8F81E
:1009A00000C00CF4804CCDF800C022F0030C0CF118
:1009B000804404F59834D4F808C895072D0F07FA39
:1009C00005F62CEA0606A0F1804CBCF5003C64D08C
:1009D000A0F1804CBCF5013C62D0A0F1804CBCF58C
:1009E000023C60D000E052E0A0F1804CBCF5033C3A
:1009F0005CD0A0F1804CBCF5043C5AD0A0F1804CF6
:100A0000BCF5053C58D0A0F1804CBCF5063C56D056
:100A1000A0F1804CBCF5073C54D04FF0080C0CFA08
:100A200005FC4CEA060CC4F808C8D9F800C02CEA4A
:100A3000030C4C6814F4803F01D04CEA030CC9F855
:100A400000C0254CD4F800C02CEA030C4D6815F406
:100A5000003F01D04CEA030CC4F800C0DAF800C033
:100A60002CEA030C4C6814F4801F01D04CEA030CF0
:100A7000CAF800C0194CD4F800C02CEA030C4D6829
:100A800015F4001F01D04CEA030CC4F800C0521C3E
:100A9000102AFFF423AFBDE8F88F4FF0000CBEE73B
:100AA0004FF0010CBBE74FF0020CB8E74FF0030C1E
:100AB000B5E74FF0040CB2E74FF0050CAFE74FF08D
:100AC000060CACE74FF0070CA9E7000044380240E1
:100AD000003C0140083C0140043C01400C3C01400A
:100AE0000069084201D00120704700207047002AA9
:100AF00001D0816170470904816170470148006835
:100B00007047000028000020D0F8940202F0BCBA20
:100B1000D0F8940202F0CDBA006803F0A5BE0068D8
:100B200003F0A6BE01EB810100EBC10090F85C0070
:100B3000704701EB810100EBC100C06C704710B53C
:100B4000044694F89002012809D0012084F890020C
:100B5000206803F09AFE002084F8900210BD022065
:100B600010BDF0B583B004460A9E099D089894F81C
:100B700090C2BCF1010F24D04FF0010C84F890C258
:100B800001EB810C04EBCC0C8CF83830ACF84060F5
:100B90008CF839108CF83F5002F07F078CF83A70CF
:100BA000C2F3C0178CF83B708CF83C00029601959C
:100BB0000090206803F013FF002184F8901203B026
:100BC000F0BD03B00220F0BD70472DE9F003DDF861
:100BD0001C90099F089E069D01EB810C00EBCC0C3C
:100BE0008CF83B208CF83F304FF00208002D0AD0E3
:100BF0008CF84280002453B1012B4AD0022B1CD028
:100C0000032B48D132E003248CF84240F2E7012D57
:100C100041D122BB16B901228CF851209CF85120F9
:100C200042B18CF842809CF85C20022A33D08CF8C8
:100C30003D7030E08CF84240F5E72AB19CF8502036
:100C40008AB18CF8428026E09CF8512042B18CF8A1
:100C500042809CF85C20022A1DD08CF83D701AE07E
:100C60008CF84240F5E78CF8424014E02AB19CF839
:100C700050205AB18CF842800DE09CF8512012B1FE
:100C80008CF8428007E08CF8424004E08CF8424047
:100C900001E08CF84240CCF84490CCF848608CF8E5
:100CA0005C40CCF84C408CF839108CF85D40027CEC
:100CB0000068BDE8F0030CF1380103F015BF2DE921
:100CC000F041044626680025304603F0DAFD01288D
:100CD00076D1206804F023F9002871D0206804F050
:100CE0001EF910F4001F03D021684FF40010486172
:100CF000206804F014F910F4801F03D021684FF429
:100D000080104861206804F00AF910F0806F03D069
:100D100021684FF080604861206804F000F910F00D
:100D2000020F02D0216802204861206804F0F7F821
:100D300010F0005F10D0D6F8400420F02E00C6F866
:100D400040042046FFF7E4FE0121206804F0CAF8C1
:100D500021684FF000504861206804F0E0F810F07E
:100D6000807F02D0204601F08BF9206804F0D7F88C
:100D700010F0080F05D0204600F0EBF8216808209D
:100D80004861206804F0CBF810F0007F25D020687F
:100D900003F0A4FE8046A06800281AD9012707FAAC
:100DA00005F010EA080F10D006EB4510D0F800054A
:100DB00010F4004F05D0E9B2204600F019FF04E01E
:100DC0001EE0E9B2204601F03AF86D1CA068A84286
:100DD000E5D821684FF000704861206804F09FF862
:100DE00010F0100F0CD02068816921F01001816192
:100DF000204601F0A9F92068816941F01001816164
:100E0000BDE8F0812DE9F0418AB00446002C40D0C5
:100E1000032084F89102204600F05AF8206803F07D
:100E2000ADFC04F11000D4F82C8090E80F10A76AF4
:100E3000666A8DE80F10CDF81C8006970596616BE9
:100E4000206B0991089094E80F00251D03F03EFCEB
:100E50000121206804F091F805F10C00D5F82880F4
:100E600090E80F106F6A2E6A8DE80F10CDF81C8085
:100E700006970596296BE86A0991089094E80F0097
:100E800003F0FEFE012084F891020AB00020BDE8C4
:100E9000F0810AB00120BDE8F081000010B50068C3
:100EA000B0F1A04F0ED10848016821F08001016027
:100EB0004FF4C0510548FFF753FCBDE810404320F4
:100EC00000F0DEB810BD00003438024000000240DF
:100ED00000B587B00068B0F1A04F2CD100211748B1
:100EE000026842F001020260006800F00100019017
:100EF0004FF4C050029002200390049105900A2004
:100F0000069002A90E48FFF7DDFC0E48016841F08B
:100F1000800101600C48016841F480410160006873
:100F200000F48040019000220521432000F0C0F829
:100F3000432000F0B1F807B000BD00003038024097
:100F4000000002403438024044380240006803F098
:100F5000FCBFD0F8940202F0FAB810B5044694F839
:100F6000900201280DD0012084F89002206803F03F
:100F70004FFC0121206803F02BFC002084F8900234
:100F800010BD022010BD10B5044694F8900201284F
:100F900009D0012084F89002206804F005F80020B0
:100FA00084F8900210BD022010BD000002480168C4
:100FB000491C0160704700002800002010B50B4854
:100FC000016841F400710160016841F480610160D1
:100FD000016841F480710160032000F09DF8002059
:100FE00000F006F800F018F8002010BD003C0240A8
:100FF00010B5044607484FF47A720068B0FBF2F06F
:1010000000F0F2FC00222146501E00F051F80020B2
:1010100010BD00002C00002010B5032000F07CF86B
:10102000002211466FF00B0000F042F8002211463A
:101030006FF00A0000F03CF8002211466FF0090042
:1010400000F036F800221146501F00F031F800225F
:101050001146101F00F02CF800221146901E00F0DF
:1010600027F800221146501E00F022F800221146F7
:10107000052000F01DF8BDE81040052000F00CB878
:1010800000F01F01012202FA01F14009800000F185
:10109000E020C0F88011704700F01F01012202FA21
:1010A00001F14009800000F1E020C0F80011704714
:1010B00010B4184B1B68C3F30223C3F1070CBCF137
:1010C000040F01D94FF0040C1C1D072C01D2002382
:1010D00000E0DB1E012404FA0CFCACF1010C0CEA6C
:1010E0000101994004FA03F35B1E1A4011430028E2
:1010F00008DA00F00F0000F1E020090180F8141D6B
:1011000010BC704700F1E020090180F8001410BC09
:10111000704700000CED00E000F00700064A11687F
:101120004FF6FF03194041EA002040F0FD7040F007
:1011300080601060704700000CED00E02DE9F05F6A
:1011400004460E46DFF8D091D9F80000F7B200F05F
:101150000F00B0420AD289F80070D9F8000000F000
:101160000F00B04202D00120BDE8F09F2078DFF8E8
:10117000AC8110F0020F07D0D8F80000A16820F071
:10118000F0000843C8F80000207810F0010F51D09B
:1011900060686349012808D002280DD003280BD0CD
:1011A000096811F0020F2ED00AE0096811F4003F1F
:1011B00006D10120BDE8F09F096811F0007F1FD023
:1011C000D8F8001021F003010843C8F80000FFF729
:1011D00095FC0546606841F2883A012816D002283D
:1011E00029D003283CD0D8F8000010F00C0F51D0C3
:1011F000FFF784FC401B504547D90320BDE8F09F12
:101200000120BDE8F09F0120BDE8F09FD8F8000064
:1012100000F00C0004283DD0FFF770FC401B504547
:1012200002D90320BDE8F09FD8F8000000F00C00C0
:101230000428F1D12EE0D8F8000000F00C000828B6
:1012400028D0FFF75BFC401B504502D90320BDE8C6
:10125000F09FD8F8000000F00C000828F1D119E048
:10126000D8F800004FF00C0B3BEA000012D0FFF75B
:1012700045FC401B504502D90320BDE8F09FD8F83B
:1012800000003BEA0000F2D104E0D8F8000010F0C2
:101290000C0FADD1D9F8000000F00F00B0420AD910
:1012A00089F80070D9F8000000F00F00B04202D0B9
:1012B0000120BDE8F09F207810F0040F07D0D8F887
:1012C0000000E16820F4E0500843C8F800002078EE
:1012D00010F0080F08D0D8F80000216920F4604011
:1012E00040EAC100C8F8000000F058F8D8F8001033
:1012F000F02292FAA2F201F0F001B2FA82F2D140A9
:10130000084A515CC840084908600020FFF770FE99
:101310000020BDE8F09F0000003C02400838024079
:1013200000380240747300082C000020014901209D
:10133000C8647047000047420148006870470000D9
:101340002C00002000B5FFF7F7FF074909684FF4AC
:10135000E05292FAA2F201F4E051B2FA82F2D140E4
:10136000024A515CC84000BD08380240847300083E
:1013700000B5FFF7E1FF074909684FF4604292FAB0
:10138000A2F201F46041B2FA82F2D140024A515C09
:10139000C84000BD083802408473000810B41F48DC
:1013A000006810F00C011E481BD04FEA600C0429A5
:1013B00016D0082915D11B4A116801F03F011368A6
:1013C00013F4800F47F6C0730DD0BCFBF1F0116829
:1013D000194093FAA3F3B3FA83F3D94048430CE0DE
:1013E000604610BC7047B0FBF1F01168194093FAE9
:1013F000A3F3B3FA83F3D940484311684FF4403262
:1014000092FAA2F201F44031B2FA82F2D140491CC0
:101410004900B0FBF1F010BC7047000008380240F2
:101420000024F400043802402DE9F84F0446DFF8A8
:101430001C842078A8F1040710F0010FA7F104051F
:1014400060D0D8F8000000F00C00042809D0D8F8CB
:10145000000000F00C0008280DD1386810F4800F4F
:1014600009D0286810F4003F4CD06068002849D1AA
:101470000120BDE8F88F6068B0F5803F14D0B0F56A
:10148000A02F16D0286820F480302860286820F427
:1014900080202860606810B3FFF730FB064628689C
:1014A00010F4003F0ED02DE0286840F48030286012
:1014B000F0E7286840F480202860286840F48030F5
:1014C0002860E7E7FFF71AFB801B642802D9032096
:1014D000BDE8F88F286810F4003FF3D012E0FFF762
:1014E0000DFB0646286810F4003F0BD0FFF706FB03
:1014F000801B642802D90320BDE8F88F286810F407
:10150000003FF3D12078DFF8489310F0020F4FF03E
:10151000000663D0D8F800004FF0F80B10F00C0F65
:1015200016D0D8F8000000F00C00082803D1386865
:1015300010F4800F0CD0E068C8B30120C9F8000097
:10154000FFF7DCFA8246286810F0020F16D022E07E
:10155000286810F0020F05D0E068012802D00120B1
:10156000BDE8F88F28689BFAABF22169B2FA82F2E3
:1015700020F0F8009140084328602FE0FFF7BEFA02
:10158000A0EB0A00022802D90320BDE8F88F2868E2
:1015900010F0020FF2D028689BFAABF22169B2FA80
:1015A00082F220F0F80091400843286016E0FFE73F
:1015B000C9F80060FFF7A2FA8246286810F0020F0F
:1015C0000CD0FFF79BFAA0EB0A00022802D90320F7
:1015D000BDE8F88F286810F0020FF2D1207810F0E3
:1015E000080F34D09B48DFF870B26169C1B10121A6
:1015F0000160FFF783FA8246DBF8000010F0020F6B
:1016000025D1FFF77BFAA0EB0A00022802D90320BC
:10161000BDE8F88FDBF8000010F0020FF1D016E003
:101620000660FFF76BFA8246DBF8000010F0020F4D
:101630000DD0FFF763FAA0EB0A00022802D90320BD
:10164000BDE8F88FDBF8000010F0020FF1D1207830
:1016500010F0040F43D08148016841F080510160CF
:10166000006800F080500090DFF8F4B1DBF8000073
:1016700040F48070CBF80000FFF740FA8246DBF8B8
:10168000000010F4807F0DD1FFF738FAA0EB0A00BC
:10169000022802D90320BDE8F88FDBF8000010F41F
:1016A000807FF1D0A068DFF8BCB1012818D00528F0
:1016B0001DD0DBF8000020F00100CBF80000DBF8C3
:1016C000000020F00400CBF80000A06868B3FFF72A
:1016D00015FA8246DBF8000010F0020F14D03CE04F
:1016E000DBF8000040F00100CBF80000EDE7DBF88C
:1016F000000040F00400CBF80000DBF8000040F0F0
:101700000100CBF80000E0E7FFF7F8F9A0EB0A01D1
:1017100041F28830814202D90320BDE8F88FDBF81E
:10172000000010F0020FEFD017E0FFF7E7F9824654
:10173000DBF8000010F0020F0FD0FFF7DFF9A0EB8D
:101740000A0141F28830814202D90320BDE8F88FB6
:10175000DBF8000010F0020FEFD1A069F0B3D8F869
:10176000001001F00C0108296CD0022810D0C9F833
:101770006060FFF7C3F90446286810F0007F5ED070
:10178000FFF7BCF9001B022855D90320BDE8F88FEC
:10179000C9F86060FFF7B2F90646286810F0007FCC
:1017A0000BD0FFF7ABF9801B022802D90320BDE85C
:1017B000F88F286810F0007FF3D1216AE0694FF0BC
:1017C000FF3340EA010247F6C07191FAA1F1606A65
:1017D000B1FA81F100FA01F1A06A00E02FE003EB19
:1017E00050004FF4403393FAA3F3B3FA83F39840D5
:1017F000084310434FF0706292FAA2F2E16AB2FA23
:1018000082F29140084338600120C9F86000FFF778
:1018100075F90446286810F0007F10D1FFF76EF9C3
:10182000001B022802D90320BDE8F88F286810F0B9
:10183000007FF3D003E0286810F0007FA0D10020E3
:10184000BDE8F88F0120BDE8F88F0000083802409D
:1018500000004742800E4742743802404038024040
:10186000007000407038024000B50B4600684068C8
:1018700020F0C00121F07F41080CD870C1F3042C86
:1018800083F801C001F03F0C83F802C0C1F342317C
:101890001970002A0AD100F00DFED870587800F0B7
:1018A00009FE5870987800F005FE9870002000BD81
:1018B00000B50B460168896A596001680969C1F37E
:1018C0000E019960006800680F490140C1F30540AE
:1018D0001870C1F3062C83F801C001F07F0C83F867
:1018E00002C001F48001090CD970002A0AD100F06D
:1018F000E1FD1870587800F0DDFD5870987800F020
:10190000D9FD9870002000BD7F7F7F0010B5044690
:10191000002C02D0607F10B106E0012010BD002035
:101920002077204600F044F8022060772168CA2022
:101930004862216853204862204600F0C4FDFF2120
:1019400028B12068416204206077012010BD206822
:10195000826822F0400222F4E002826020688268FD
:101960006368D4F814C01A43236943EA0C031A438A
:1019700082602268E068106120680269238942EA77
:10198000034202612068C26822F08002C2602068BF
:10199000026C22F4802202642068026CA3691A435C
:1019A00002642068416201206077002010BD0000C1
:1019B0000068A0F18041B1F5205102D10149012018
:1019C000086070473C0E47424FF0E021042804D0E5
:1019D000086920F0040008617047086940F00400BD
:1019E0000861704770470000401EB0F1807F01D34E
:1019F000012070474FF0E0214861044AF020107048
:101A000000208861072008610020704723ED00E076
:101A100010B5FFF7E7FF10BD70B50446002C04D0E9
:101A200094F83900002510B106E0012070BD84F85B
:101A30003850204600F042F8242084F8390020680D
:101A4000C16821F40051C160204600F02DFE2068DD
:101A5000016921F4904101612068416921F02A0166
:101A600041612068C16841F40051C160E5632020F4
:101A700084F8390084F83A00002070BD10B5006881
:101A8000A0F18041B1F5883112D10A48016821F0F6
:101A900010010160084C40212046FEF761FE8021C4
:101AA0002046FEF75DFEBDE810402520FFF7E8BAAE
:101AB00010BD0000443802400004024010B586B05A
:101AC0000068A0F18041B1F588311DD10F4801684F
:101AD00041F010010160006800F01000009040200B
:101AE000019002200290012003900320049007201F
:101AF0000590074C01A92046FEF7E4FE80210191E4
:101B000001A92046FEF7DEFE06B010BD44380240B3
:101B1000000402402DE9F84304460D4691461E4656
:101B200094F83900202802D00220BDE8F8834DB394
:101B3000B9F1000F26D094F83800012825D00120F3
:101B400084F838000027E763212084F83900FEF785
:101B5000D5FF8046A4F82490A4F82690E08CA0B38A
:101B6000E08C401EE084A068B0F5805F10D0434652
:101B7000002280212046009600F038FFF0B10320BB
:101B8000BDE8F8830120BDE8F8830220BDE8F883B2
:101B90004346002280212046009600F027FF10B126
:101BA0000320BDE8F88328882168C0F30800486056
:101BB000206908B16D1C05E0AD1C03E0216815F833
:101BC000010B4860E08C0028CAD143460022402126
:101BD0002046009600F00AFF10B10320BDE8F8830C
:101BE000202084F8390084F838700020BDE8F8839C
:101BF0002DE9F05F06460F46306800EB4714D4F835
:101C0000080507EB870110F0040F4FF004084FF0B0
:101C100005094FF0100A06EBC10508D0C4F8088585
:101C2000D4F80C0540F00200C4F80C0537E0D4F8F5
:101C3000080510F0200F03D02020C4F808052EE07E
:101C4000D4F808054FF0080B10F0080F10D0D4F8A6
:101C50000C0540F00200C4F80C0585F85D90C4F84E
:101C600008A5C4F808B53946306802F00EFE16E043
:101C7000D4F8080510F4806F11D0D4F80C0540F0AA
:101C80000200C4F80C053946306802F0FEFDC4F8C5
:101C900008A585F85DB04FF48060C4F80805D4F855
:101CA000080510F4007F0FD0D4F80C0540F00200B6
:101CB000C4F80C053946306802F0E7FD4FF40070B7
:101CC000C4F80805BDE8F09FD4F808054FF00003FC
:101CD00010F0010F4FF0010236D0306930B1A86C1E
:101CE000D4F81015C1F31201401AE86485F85D209C
:101CF000AB65C4F8082595F83F0020B1022802D052
:101D000003280DD018E0D4F80C0540F00200C4F808
:101D10000C053946306802F0B8FDC4F808A50BE0A0
:101D2000D4F8000540F00050C4F8000585F85C20A8
:101D300039463046FEF748FF95F8500080F0010024
:101D400085F85000BDE8F09FD4F8080510F0020FA8
:101D500034D0D4F80C0520F00200C4F80C0595F836
:101D60005D000221012806D0052807D0062808D0EA
:101D7000082806D018E085F85C2015E085F85C900E
:101D800012E0A86D421CAA65032803D9AB6585F84B
:101D90005C8001E085F85C10D4F8000520F08040FC
:101DA00040F00040C4F80005C4F8081595F85C2020
:101DB00039463046FEF708FFBDE8F09FD4F8080525
:101DC00010F0800F14D0D4F80C0540F00200C4F8D5
:101DD0000C05A86D401CA865062085F85D003946F5
:101DE000306802F052FD8020C4F80805BDE8F09F7D
:101DF000D4F8080510F0100FF8D095F83F0003282C
:101E000009D1D4F80C0540F00200C4F80C0539469D
:101E1000306802F03AFD032085F85D00C4F808A59B
:101E200095F83F0008B10228E0D1D4F8000520F071
:101E3000804040F00040C4F80005BDE8F09F2DE967
:101E4000F047026802EB4114D4F808254FF0040370
:101E500012F0040F09D0C4F80835D4F80C0540F08E
:101E60000200C4F80C05BDE8F087D4F8082501EBA2
:101E7000810C12F0200F4FF0020600EBCC0515D0BC
:101E80002022C4F8082595F83D20012AEBD185F8D9
:101E90005D30D4F80C2542F00202C4F80C2500682D
:101EA00002F0F3FC85F85C60BDE8F087D4F8082503
:101EB0004FF0000C12F0400F11D085F85D30C5F8DE
:101EC00058C0D4F80C2542F00202C4F80C25006872
:101ED00002F0DBFC4020C4F80805BDE8F087D4F828
:101EE000082512F4007F0ED0D4F80C2542F002022F
:101EF000C4F80C25006802F0C8FC4FF40070C4F868
:101F00000805BDE8F087D4F808254FF0010712F066
:101F1000010F10D0C5F858C0D4F80C2542F00202C9
:101F2000C4F80C25006802F0B0FCC4F8087585F808
:101F30005D70BDE8F087D4F808254FF0080912F06D
:101F4000080F4FF005080ED0C4F80895D4F80C25FA
:101F500042F00202C4F80C25006802F096FC85F8F5
:101F60005D80BDE8F087D4F808254FF0100A12F024
:101F7000100F11D0C5F858C0D4F80C2542F0020259
:101F8000C4F80C25006802F080FC032085F85D0091
:101F9000C4F808A5BDE8F087D4F8082512F0800F32
:101FA00010D0D4F80C2542F00202C4F80C250068C9
:101FB00002F06BFC062085F85D008020C4F808055F
:101FC000BDE8F087D4F8082512F4806F12D0D4F859
:101FD0000C2542F00202C4F80C25006802F055FC02
:101FE000C4F808A54FF48060C4F8080585F85D9032
:101FF000BDE8F087D4F8082512F0020FF8D0D4F825
:102000000C2522F00202C4F80C2595F85D20012A67
:102010000AD0032A15D0042A16D0052A19D0062A78
:102020001AD0082A18D023E085F85C7095F83F2074
:10203000022A1DD195F8512082F0010285F8512025
:1020400016E085F85C6013E085F85C6085F83DC0BB
:102050000EE085F85C800BE0AA6D571CAF65032A83
:1020600004D9C5F858C085F85C3001E085F85C609B
:10207000C4F8086595F85C20FEF7A6FDBDE8F0877A
:1020800030B583B005462C68D4F840040290D4F8EB
:1020900040040190019820F02E000190029810F069
:1020A000020F0ED0029810F0010F06D0A06920F0A8
:1020B0000051A1612846FEF727FD019840F002007B
:1020C0000190029810F0080F31D0019840F00800FC
:1020D0000190029810F0040F1ED0A869022803D0C6
:1020E000E868032810D013E0029800F4C020B0F58F
:1020F000802F04D00121286802F0F4FE08E00221BC
:10210000286802F0EFFE03E04EF66020C4F80404F5
:102110002846FEF7F9FC0AE0D4F8400420F02E002F
:10212000C4F840042868816941F000518161029837
:1021300010F0200F03D0019840F02000019001988A
:10214000C4F8400403B030BD2DE9F04103461868DF
:102150000746016A01F00F06C1F34342C1F30A15B5
:10216000022A26D1002D24D006EB860103EBC10400
:10217000616C00291DD0AAB202F0D5FE606C284423
:102180006064E06C2844E06407EB4610D0F810155A
:10219000094A11420DD0D0F8001521F0804141F0DC
:1021A0000041C0F8001594F8500080F0010084F858
:1021B0005000BDE8F08100000000F81FFEE70000BD
:1021C00070B586B000252A48016841F01001016011
:1021D000016801F010010091016841F010010160F7
:1021E000016801F010010091016841F010010160E7
:1021F000016801F010010091016841F010010160D7
:10220000016801F010010091016841F010010160C6
:10221000006800F0100000900124019402950394DE
:10222000144E01A93046FEF74DFB022001900295A5
:10223000039401A93046FEF745FB04200190029566
:10224000039401A93046FEF73DFB0820019002955A
:10225000039401A93046FEF735FB1020019002954A
:10226000039401A93046FEF72DFB06B070BD0000B7
:102270003038024000100240F0B587B023480168B2
:1022800041F080010160016801F080010191016865
:1022900041F010010160016801F010010191016835
:1022A00041F010010160006800F010000190184F2B
:1022B00000224FF400713846FEF719FC154E00223B
:1022C00020213046FEF713FC002240213046FEF765
:1022D0000EFC70150290012403940225059502A9B5
:1022E0003846FEF7EFFA202102910394059502A9E2
:1022F0003046FEF7E7FA402002900394059502A9C4
:102300003046FEF7DFFA07B0F0BD0000303802407B
:10231000001C02400010024010B58CB0002207A93A
:102320002648FFF7C5FA002206A92448FFF79CFAC1
:102330009DF81800224C9DF81D209DF81C3054F883
:10234000200001929DF81E100093029103909DF8C9
:102350001A309DF819209DF81B101AA002F092FE69
:10236000132221A1224803F0D3FDA4F108014870F3
:102370001F48D0F80C1203F00FFC9DF818009DF8D0
:102380001C309DF81E1054F82000019304909DF815
:102390001D209DF81A000292039100909DF81930BB
:1023A0009DF81B2013A1124803F08EFE104803F085
:1023B000DDFB1EA002F066FE0CB010BD801B0020ED
:1023C0000800002032302532642D2532642D25325C
:1023D00064092532643A2532643A25326409252D90
:1023E0003973090D0A0000006C6F672E7478740051
:1023F0005C0600200D0A32302532642D2532642D12
:10240000253264092532643A2532643A253264095A
:10241000252D397309757067726164652073756362
:102420006365737366756C0D0A0000006164642057
:102430006C6F670D0A00000082B000210C48026832
:1024400042F002020260006800F0020001900A48B7
:10245000084A02604FF4E13242608160C16001616C
:102460000C2242618161C16102B0FFF7D5BA000060
:102470003038024000100140401B00200748064948
:102480000160002141607F228260FF22C260016101
:1024900041618161FFF73ABA00280040801B0020AB
:1024A000FEE770470148FEF70ABC000088180020CC
:1024B00070477047010901EB8101490000F00F00EE
:1024C0000844C0B2704770B504462068C16811F076
:1024D000400F17D14FF0FF31C160FEF70FFB0546EB
:1024E0002068C06810F0400F0CD1FEF707FB401BBE
:1024F000B0F57A7F01D9032070BD2068C06810F064
:10250000400FF2D0002070BD2DE9F04F87B0044697
:102510000F4616464FF00008C146CDF80490B4F1BE
:10252000006F3AD314F0030F37D1FEF703F92546B5
:1025300004EB86061A482C4685421CD2B5421AD2B4
:102540004FF0010A4FF0020B2868B0F1FF3F0FD0A7
:10255000CDF808902846FDF7EDFF0490CDF814A0C3
:10256000CDF818B001A902A8FEF744F818B900E0A8
:102570002D1DB542E8D3B8F1000F0CD1B4420AD2F8
:102580000023214602203A68FEF794F818B9241D6A
:102590003F1DB442F4D3FEF783F807B0BDE8F08FD7
:1025A0000000FF1F704710B5FEF700FDBDE81040AA
:1025B000FFF72EBA30B593B000252348016841F0EB
:1025C00080510160006800F0805000901F48016851
:1025D00041F480410160006800F4804000900120D7
:1025E00006900004079002240C9480010D900820AE
:1025F0000E904FF4A8700F9010940720119006A829
:10260000FEF712FF0F200190029403954FF4A050A3
:102610000490E0020590052101A8FEF78FFDFEF76A
:1026200085FEFEF789FE4FF47A71B0FBF1F0FFF7FB
:10263000DBF90420FFF7C8F900221146501EFEF70F
:1026400037FD13B030BD000040380240007000403C
:102650000F48016841F4700101600E48016841F0C3
:10266000010101600C4A00211160026822F410226D
:1026700022F080720260031D084A1A60026822F488
:1026800080220260064801600649580608607047CB
:1026900088ED00E000380240083802401030002485
:1026A0000C38024008ED00E02DE9F04104462068B6
:1026B000016921F44051E268114301612068C16859
:1026C00021F4037121F414412369A268D4F81CC0D9
:1026D0001A43636943EA0C031A431143C16020683B
:1026E000416921F44071A26911434161E069BC4A2A
:1026F000BC49BD4D3226B0F5004F5ED020688842FF
:1027000002D0904240F01281FEF732FE00EBC00191
:1027100001EB001061688900B0FBF1F7FEF728FEBD
:1027200000EBC00101EB001061688900B0FBF1F023
:10273000A5FB001040096FF01801484307EB80002B
:1027400006EB0010A5FB0010400900F0F007FEF7B3
:102750000FFE00EBC00101EB001061688900B0FBC7
:10276000F1F0A5FB0010400907EB0017FEF700FE93
:1027700000EBC00101EB001061688900B0FBF1F8CB
:10278000FEF7F6FD00EBC00101EB00106168890067
:10279000B0FBF1F0A5FB001040096FF018014843B1
:1027A00008EB800006EB0010A5FB00102168C0F3C9
:1027B000431038448860BDE8F0812068884201D029
:1027C000904259D1FEF7D4FD00EBC00101EB00109F
:1027D00061684900B0FBF1F0A5FB0010400907015A
:1027E000FEF7C6FD00EBC00101EB00106168490077
:1027F000B0FBF1F8FEF7BCFD00EBC00101EB0010EF
:1028000061684900B0FBF1F0A5FB001040096FF0D2
:102810001801484308EB800006EBC000A5FB001040
:10282000400900F0F80007EB4007FEF7A1FD00EBC0
:10283000C00101EB001061684900B0FBF1F8FEF740
:1028400097FD00EBC00101EB001061684900B0FB8F
:10285000F1F0A5FB001040096FF01801484308EBA8
:10286000800006EBC000A5FB00102168C0F34210F9
:1028700038448860BDE8F081FEF764FD00EBC001DC
:1028800001EB001061684900B0FBF1F0A5FB0010FE
:1028900040090701FEF756FD00EBC00101EB0010F7
:1028A00061684900B0FBF1F8FEF74CFD00EBC00198
:1028B00001EB001061684900B0FBF1F0A5FB0010CE
:1028C00040096FF01801484308EB800006EBC00098
:1028D000A5FB0010400900F0F80007EB4007FEF7E9
:1028E00031FD00EBC00101EB001061684900B0FB55
:1028F000F1F8FEF727FD00EBC00101EB0010616865
:102900004900B0FBF1F0A5FB001040096FF0180181
:10291000484308EB800006EBC000A5FB00102168CF
:10292000C0F3421038448860BDE8F081FEF70AFD2C
:1029300000EBC00101EB001061688900B0FBF1F70A
:10294000FEF700FD00EBC00101EB0010616889009B
:10295000B0FBF1F0A5FB001040096FF018014843EF
:1029600007EB800006EB0010A5FB0010400900F00B
:10297000F007FEF7E7FC00EBC00101EB0010616817
:102980008900B0FBF1F0A5FB0010400907EB001730
:10299000FEF7D8FC00EBC00101EB00106168890074
:1029A000B0FBF1F8FEF7CEFC00EBC00101EB00102C
:1029B00061688900B0FBF1F0A5FB001040096FF0E1
:1029C0001801484308EB800006EB0010A5FB00103F
:1029D0002168C0F3431038448860BDE8F0810000EE
:1029E00000140140001001401F85EB512DE9F0411A
:1029F0000446069D884617461E462068006838EA49
:102A0000000020D00020B84227D1B5F1FF3F1CD0F4
:102A100025B1FEF773F8801BA84216D92068C1685B
:102A200021F4D071C1602068416921F00101416148
:102A3000202084F8390084F83A00002084F8380017
:102A40000320BDE8F0810120DDE72068006838EA56
:102A5000000005D00020B842D7D00020BDE8F081AA
:102A60000120F8E770B504460D46204600F0FAF85C
:102A7000A0F57F42FF3A05D004EB800245F4004107
:102A8000C2F87C13C0B270BD30B585B01D460124BC
:102A90004FF0000C029201910223CDF80CC000947B
:102AA0002246294600F0F5FB05B0002030BD30B5C8
:102AB00085B08C4608991D4690F81D43002C00D027
:102AC00000210124029203910223CDF804C0009456
:102AD0000022294600F0DDFB05B0002030BD10B516
:102AE00000F0BCFA002010BD8278012A07D1022232
:102AF000027401224274002242828182C282002238
:102B0000114600F013B830B585B01D464FF0000CEB
:102B10000124029201916346CDF80CC00094224634
:102B2000294600F0B6FB05B0002030BD70B5044664
:102B30000120A3780125012B09D0022B06D12046C4
:102B400000F0ECF848B1022800D1A57070BDA1607A
:102B5000A28125760221A17070BDA5700021217689
:102B600070BD30B585B08C4608991D4690F81D4360
:102B7000002C00D000210124002302920391CDF803
:102B800004C000941A46294600F083FB05B00020DB
:102B900030BD10B584B0144600234FF0080C0191ED
:102BA00000931A46CDF808C00393214600F071FB4C
:102BB00004B0002010BDFDF70DBD30B44FF0000C87
:102BC00000F232340CEB8C0000EBCC0004EB400044
:102BD0000A3045798D4201D0FF2909D18579954286
:102BE00001D0FF2A04D1C07998420BD0FF2B09D025
:102BF0000CF101004FFA80FCBCF1020FE2DB30BCAB
:102C0000FF20704730BC0CF0FF0070470B2907D243
:102C100000EB8100B0F87C13C1F30E01C0F87C1307
:102C20000020704730B48C4602998478012C10D172
:102C30004CF0800C80F810C04FF0060C80F811C0EA
:102C4000428202F47F42B2F5407F07D000228282A6
:102C5000C1820A4630BC1946FFF768BF40F20942FC
:102C60008282F5E70146002001EB8002B2F87C2366
:102C700012F4004F05D0401CC0B20B28F4D34FF61D
:102C8000FF7070470A8803781A440A800178084464
:102C90007047F8B504460E4604F11C052B464FF468
:102CA0000072002120460096FFF7BCFF071E05D1E9
:102CB0003246294604F2323001F050FA3846F8BD67
:102CC000F8B504460D4604F58E734FF4807200216A
:102CD00020460095FFF7A6FF061E06D12A4604F5FA
:102CE0008E7104F5487001F092FA3046F8BDF8B5DF
:102CF000044616461D4641F4407204F58E730021C9
:102D000020460095FFF78EFF071E05D12A46314663
:102D100004F58E7001F0CAFA3846F8BD38B504469D
:102D20000125207E0C2880F0D280DFE800F0D0065C
:102D300010313D4F5D788498A6BB627904F1100193
:102D40002046FFF726FF0220207600F0C0B8617908
:102D5000204600F0F8F9012802D0042815D0B6E08A
:102D6000207C00F08000E18A39B1802802D0052063
:102D70002076ACE003202076A9E0802802D007204E
:102D80002076A4E009202076A1E00B2020769EE0AA
:102D9000D4F8B803E0812379A2892046A168FFF71F
:102DA000B2FE0420207692E02179204600F0CBF993
:102DB000012801D109212176052802D0042802D05A
:102DC00085E0032583E00B20207680E00120009041
:102DD0006379A2892046A168FFF7C3FED4F8B8033F
:102DE000E0810620207672E06179204600F0ABF9A0
:102DF000012806D0052807D0022809D004280AD0C7
:102E000065E00720207662E00C20207603255EE056
:102E1000052020765BE00B202076022557E000227B
:102E2000237911462046FFF76EFED4F8B803E081FF
:102E3000082020764BE02179204600F084F9012813
:102E400004D0042806D0052807D040E00D202076C5
:102E500000253CE00B20207639E0032537E00120F7
:102E600000900022637911462046FFF77AFED4F8DD
:102E7000B803E0810A20207629E06179204600F03D
:102E800062F9012804D0022806D0042807D01EE0E9
:102E900000250D2020761AE00920207617E00B206F
:102EA000207614E0607E401CC0B26076022806D80E
:102EB000204600F0D8F901202076A07007E0D4F871
:102EC000C42306212046904700206076022528462C
:102ED00038BDF0B583B0044601256078002601278F
:102EE000082858D2DFE800F0042831586069788754
:102EF00008212046FFF7E4FE00284CD194F8270370
:102F0000A071677094F81D1302900196009194F8D7
:102F10001C3321798022204601F011F9A07994F820
:102F20001D1302900196009194F81C3361790022E0
:102F3000204601F004F96BE012212046FFF7C0FEA5
:102F4000002865D10220607062E00121204601F076
:102F5000A8FA00285CD10220FFF72DFE3B4684F83A
:102F60001C7303206070A07994F81D1302900196E1
:102F7000009121798022204601F0E1F8A07994F8AF
:102F80001D1302900196009194F81C336179002280
:102F9000204601F0D4F83BE009212046FFF779FEF6
:102FA00030BB0420607033E0B4F834132046FFF7E0
:102FB00070FEE8B9052060702AE094F82E1306260A
:102FC00041B1FF2304F58E722046FFF790FE78B9D9
:102FD00066701DE066701BE094F82F13072641B160
:102FE000FF2304F58E722046FFF781FE00B966705C
:102FF0000EE066700CE094F8301341B1FF2304F545
:103000008E722046FFF773FE10B9002500E0002500
:1030100003B02846F0BD01780A2905D1D0F8741311
:10302000002901D089690847704770B504460D46EC
:10303000002C11D084F8BC230020C4F87403C4F819
:1030400078032046FDF709F90DB1C4F8C4532046B2
:1030500000F084F8002070BD022070BD10B500247F
:10306000D0F8C003FDF76BFD30B1012806D002286F
:1030700006D0032806D00224204610BD0224FBE718
:103080000124F9E70224F7E710B50178002903D0FD
:103090000178012909D00AE0012180F81E13D0F837
:1030A000C42322B10421904701E0022101700020D5
:1030B00010BD10B50446204600F0D5F82179204611
:1030C000FFF7A4FD61792046FFF7A0FD002084F8FA
:1030D0001E03D4F8C42312B1052120469047204690
:1030E00000F0ABF803202070002010BD10B590F860
:1030F000BC03C820FDF76EFA002010BDD0F8C00355
:10310000FDF717BD10B50124D0F8C003FDF707FD8A
:1031100020B1012805D0022803D101E0002400E0FD
:103120000224204610BDD0F8C00301EB810100EB62
:10313000C10090F83B10002902D090F85000704771
:1031400090F851007047D0F8C003FDF7EBBCD0F801
:10315000B813491CC0F8B813FFF75DBF10B504469B
:1031600094F8BC03012819D10D48C0F89442C4F862
:10317000C0034FF0A0410160082181600321C160BC
:103180000021016102228261C161FDF73BFE04481A
:10319000FDF7C2FC0146204600F03BF8002010BDC0
:1031A0008818002070B584B00646DDF824C00A9D5A
:1031B00008980024CDF804C002950090D6F8C0030A
:1031C000FDF7CFFC30B1012807D0022807D0032833
:1031D00007D0022404B0204670BD0224FAE701247F
:1031E000F8E70224F6E710B50024D0F8C003FDF795
:1031F000ADFE30B1012806D0022806D0032806D043
:103200000224204610BD0224FBE70124F9E7022432
:10321000F7E7C0F8B8137047D0F8C00301EB81019D
:1032200000EBC10090F83B10002902D080F850203C
:1032300001E080F851200020704710B50024D0F83C
:10324000C003FDF78AFE30B1012806D0022806D05F
:10325000032806D00224204610BD0224FBE70124E7
:10326000F9E70224F7E710B50024D0F8C003FDF712
:103270008AFE30B1012806D0022806D0032806D0E5
:103280000224204610BD0224FBE70124F9E70224B2
:10329000F7E7F0B585B00746DDF82CC00D9E0C9D14
:1032A0000A980024CDF804C0039602950090D7F840
:1032B000C003FDF78AFC30B1012807D0022807D0EF
:1032C000032807D0022405B02046F0BD0224FAE707
:1032D0000124F8E70224F6E703460220D3F874132A
:1032E000C969002A05D0012A07D189791846FFF754
:1032F000FBBBC9791846FFF7F7BB7047D0F87403DA
:10330000C0690549416505498165012180F8501072
:1033100080F85210002070475553424350403020EF
:10332000F8B506460125D6F87403C46994F8500030
:103330000C2880F01081DFE800F08806163E497105
:103340007EAEB9D3E3FD84F86110022084F850000A
:103350000120009063791F2204F154013046FFF7E9
:10336000A6FB00F0F8B861793046FFF7ECFE0128C3
:1033700005D0022817D0052819D000F0ECB8E06D70
:1033800068B194F8600010F0800F04D0032084F836
:10339000500000F0E0B8052084F85000DBE0072082
:1033A00084F85000D7E0012084F85000D3E00A20D0
:1033B00084F85000CFE0237962893046D4F88C102D
:1033C000FFF762FB042084F85000C4E02179304606
:1033D000FFF7B9FE012802D005281BD0BBE06289A7
:1033E000E06D904207D9D4F88C101144C4F88C10C9
:1033F000801AE06501E00020E065E06D30B12379DE
:103400003046D4F88C10FFF73FFBA4E0072084F887
:103410005000A0E0092084F850009CE001200090BA
:10342000637922893046D4F88C10FFF740FB0620E0
:1034300084F850008FE061793046FFF784FE012860
:1034400004D002281FD0052821D084E02289E06D15
:10345000904207D9D4F88C101144C4F88C10801A0B
:10346000E06501E00020E065E06D40B101200090E2
:1034700063793046D4F88C10FFF719FB6BE0072016
:1034800084F8500067E0052084F8500063E00A20CB
:1034900084F850005FE023790D2204F17801304672
:1034A000FFF7F2FA082084F8500054E02179304602
:1034B000FFF749FE012802D005280DD04BE001207E
:1034C00084F8500084F85200304600F097F808B1B4
:1034D000022540E000253EE0092084F850003AE053
:1034E00000223046FFF7F8FE10B1042804D032E085
:1034F000072084F850002EE00B2084F850002AE0CA
:1035000001223046FFF7E8FE10B1042816D022E071
:1035100061793046FFF707FEC0F10100C2B2617960
:103520003046FFF779FE217900223046FFF774FE1E
:10353000092000E006E084F850000CE00B2084F83D
:10354000500008E0304600F013F80546280002D18C
:10355000012084F850002846F8BDA1220274FE2202
:1035600042740022428282820122C282FFF7DEBAC6
:1035700021210174FF214174002141828182C18295
:1035800000221146FFF7D2BA70B50246D2F8740392
:10359000C4690125A07B002804D0022802D003289A
:1035A00029D121E021461046FFF7D7FF0546002329
:1035B000032D01D123600025EDB92078401C206047
:1035C0000021002817D9022001EB810202EBC10281
:1035D00004EB820282F8920082F8C130491CC9B221
:1035E00022688A42F0D806E000211046FFF77CFAF4
:1035F00008B9E07BA073284670BD000070B5D0F814
:103600007413CC6901252179FFF778FD0D2801D0CD
:10361000022514E00B49A06F88420FD1A16DE06F25
:1036200088420CD194F8840020B1012807D00228E8
:1036300002D004E0002502E0022500E00225284631
:1036400070BD0000555342532DE9F001D0F874339A
:10365000DB6900780A2803D0BDE8F001022070473A
:1036600001EB810000EBC10003EB800000F19C0442
:10367000D0F898C094E8F001D0F89430D0F89010C9
:10368000C2F808C00C32A2E8F001203A5360116081
:10369000D0F8B8C0D0F8BC40D0F8B430D0F8B010F2
:1036A000D0F8C000C2F828C0D4625362116210631F
:1036B000BDE8F0010020704770B50546D5F87403E9
:1036C000C46900266179002907D02846FFF707FA68
:1036D00061792846FFF79AFA6671217939B128464F
:1036E000FFF7FDF921792846FFF790FA2671D5F802
:1036F0007403C06920B103F07BFAD5F87403C66186
:10370000002070BD70B584B005460224D5F874035E
:103710005023062201792846FFF74FFAFF287DD073
:103720000146284600F0B2FEE00103F01DFCD5F88A
:103730007413C861044695F81F0300EB800101EB88
:10374000C00005EB400090F8480310F0800F0CD04B
:10375000E07195F81F0300EB800101EBC00005EB61
:103760004000B0F84A0360810BE0A07195F81F0398
:1037700000EB800101EBC00005EB4000B0F84A030C
:10378000208195F81F0300EB800101EBC00005EBE1
:10379000400090F8500310F0800F0CD0E07195F8C5
:1037A0001F0300EB800101EBC00005EB4000B0F807
:1037B000520360810BE0A07195F81F0300EB8001BC
:1037C00001EBC00005EB4000B0F85203208100205F
:1037D000A4F8F800A4F8FA0020736073A073A1792C
:1037E0002846FFF73FF96071E1792846FFF73AF97B
:1037F00020712846FFF782FD682104F19000FCF754
:10380000F8FC208995F81D1302260290019600917C
:1038100095F81C33A2796179284600E019E000F0A0
:103820008EFC608995F81D1302900196009195F821
:103830001C33E2792179284600F081FC21790022AD
:103840002846FFF7E9FC617900222846FFF7E4FCEF
:10385000002404B0204670BD2DE9F0470546D5F898
:103860007403C4694FF00108207B002804D00128AC
:1038700040F0998100F095B9B4F8F800216801266C
:103880004FF0000A884280F0838100EB800101EB59
:10389000C00004EB800080F89160B4F8F8100227B3
:1038A00001EB810000EBC10004EB80004FF0050943
:1038B00090F89020092A80F07681DFE802F00588F0
:1038C0004ECE0CF58888F400042180F89010D5F8CD
:1038D000B803C4F8FC00B4F8F81001EB810000EB69
:1038E000C10004EB800000F19F02C9B2284600F03D
:1038F00009FA014649B9B4F8F80000EB800202EB7E
:10390000C00004EB800080F89070022903D00429E5
:103910000DD000F048B9B4F8F80000EB800101EBDD
:10392000C00004EB800080F8909000F03CB9B4F83F
:10393000F80000EB800101EBC00004EB800080F890
:103940009060B4F8F80000EB800101EBC00004EBDC
:10395000800080F8917000F026B9C9B2284600F0C6
:1039600018FB014608002ED1B4F8F80000EB8002E5
:1039700002EBC00004EB800090F8922012B180F8B6
:10398000C16001E080F8C1A0B4F8F800032200EBA8
:10399000800303EBC00004EB800080F89020B4F8B3
:1039A000F80000EB800202EBC00004EB800080F81E
:1039B00091A0B4F8F80000EB800202EBC00004EB29
:1039C000800080F892A0022902D0042930D0EAE0D9
:1039D000B4F8F80000EB800101EBC00004EB8000BC
:1039E00090F89210022902D080F8C16001E080F8BE
:1039F000C1A0B4F8F80000EB800101EBC00004EBBB
:103A0000800080F89090B4F8F80000EB800101EBA2
:103A1000C00004EB800080F89160B4F8F80000EB7F
:103A2000800101EBC00004EB800080F89270BAE0E6
:103A3000B4F8F80000EB800101EBC00004EB80005B
:103A400080F89060B4F8F80000EB800101EBC00052
:103A500004EB800080F89170A5E000F19402C9B2F7
:103A6000284600F004FA20B102281ED0042827D0EE
:103A700099E0B4F8F80000EB800101EBC00004EB22
:103A8000800080F89060B4F8F80000EB800101EB52
:103A9000C00004EB800080F891A0B4F8F800401C4E
:103AA000A4F8F8007FE06FE01FE0B4F8F80000EB46
:103AB000800101EBC00004EB800080F8909072E080
:103AC000B4F8F80000EB800101EBC00004EB8000CB
:103AD00080F89060B4F8F80000EB800101EBC000C2
:103AE00004EB800080F891705DE000F19C02C9B2A7
:103AF000284600F002FA014601BBB4F8F80000EBDA
:103B0000800202EBC00004EB800090F89C20062AA3
:103B100001D0022A0BD1D5F8B823D4F8FC30D21A40
:103B200042F210739A4202D280F890703BE080F823
:103B30009060B4F8F800401CA4F8F800022902D004
:103B400004290CD02FE0B4F8F800082100EB800223
:103B500002EBC00004EB800080F8901023E0B4F882
:103B6000F80000EB800101EBC00004EB800080F85E
:103B70009060B4F8F80000EB800101EBC00004EBAA
:103B8000800080F891700EE0481CA4F8F8000AE06C
:103B9000A4F8F8A02673D5F8C4230221284690473C
:103BA00001E04FF000084046BDE8F0872DE9F843FA
:103BB0008446DCF87403C069012501EB810202EB45
:103BC000C10200EB8204012694F890000827052822
:103BD00035D000224FF00508062802D0072841D131
:103BE00016E0002300921A46604600F0F4F820B177
:103BF000022806D0042807D034E084F8906000251D
:103C000030E084F890802DE084F89070022529E05F
:103C1000002300921A46604600F0E2F920B1022823
:103C200006D0042807D01DE084F89060002519E034
:103C300084F8908016E084F89070022512E004F178
:103C40009C02604600F059F928B984F8906002217E
:103C500084F891100225022804D0042802D184F8A7
:103C6000907002252846BDE8F8832DE9F843044604
:103C7000089F8846D4F87403C56994F81E03002889
:103C80000CD020780A2809D108EB880000EBC80086
:103C900005EB800090F89010012902D00220BDE8C9
:103CA000F8830621297380F89010A5F8FA80414620
:103CB0002046009700F08FF8D4F8B86341462046BC
:103CC000FFF774FF4FF00109012811D140F2712074
:103CD0004743D4F8B803801BB0EB071F0DD894F806
:103CE0001E0350B141462046FFF760FF0128F0D087
:103CF00085F80C900020BDE8F88385F80C90022030
:103D0000BDE8F88370B5034615460226D3F8740360
:103D1000C46994F85200012802D0022859D128E041
:103D20002422E265802084F860000A2084F8620082
:103D30000020C4F86300C4F86700A4F86B001223E5
:103D400084F86330490184F8641084F8650084F8CD
:103D5000660084F8672084F86800012084F8500029
:103D6000022084F8520004F11000C4F88C000126EF
:103D70002FE01846FFF7D4FA064656BB2221284604
:103D8000FCF737FAD4F88C00007800F01F00687058
:103D9000D4F88C00007840092870D4F88C00407862
:103DA000C009A870D4F88C008168C5F80310C068F9
:103DB000C5F80700D4F88C000169E9604169296100
:103DC00081696961C069A861D4F88C00006AC5F88E
:103DD0001D00304670BD3FB404460220D4F8742361
:103DE000D26992F852C0BCF1010F07D0BCF1020FAA
:103DF0003AD104B0204630BCFFF792BA0698400290
:103E0000D065802082F860000A2082F862000020DD
:103E1000C2F86300C2F86700C2F86B00C2F86F0016
:103E2000282082F863009DF80B0082F865009DF859
:103E30000A0082F866009DF8090082F867009DF884
:103E4000080082F868009DF8190082F86A009DF861
:103E5000180082F86B00012082F85000022082F8DE
:103E60005200C2F88C30012004B030BC704770B5ED
:103E7000844615460120DCF87423D46994F8523046
:103E8000012B1BD0022B18D16046FFF749FA0028FE
:103E900013D1D4F88C10CA788B7842EA03224B787D
:103EA00009781B0443EA016111432960D4F88C109E
:103EB000CA79897942EA0121A98070BD0821E165AA
:103EC000802184F860100A2184F862100021C4F86F
:103ED0006310C4F86710C4F86B10C4F86F10252184
:103EE00084F86310012184F85010022184F85210E4
:103EF00004F11001C4F88C1070BD70B5034615466E
:103F00000220D3F87423D46994F85220012A15D0E2
:103F1000022A12D11846FFF703FA00280DD1D4F86F
:103F20008C10897801F00F012970D4F88C10097B6E
:103F30006970D4F88C10497BA97070BD0E22E265BF
:103F4000802084F860000A2084F862000020C4F811
:103F50006300C4F86700C4F86B00C4F86F00032363
:103F600084F86330490184F8641084F8650084F8AB
:103F7000660084F8672084F86800012084F8500007
:103F8000022084F8520004F11000C4F88C000120D3
:103F900070BD84460220DCF87423D26992F8523056
:103FA000012B04D0022B1AD16046FFF7B9B90020CB
:103FB000D06582F860000A2182F86210C2F86300BE
:103FC000C2F86700C2F86B00C2F86F0082F86300A5
:103FD000012082F85000022082F852000120704730
:103FE0003FB404460220D4F87423D26992F852C038
:103FF000BCF1010F07D0BCF1020F39D104B020464B
:1040000030BCFFF78DB906984002D065002082F8D9
:1040100060000A2182F86210C2F86300C2F86700EB
:10402000C2F86B00C2F86F002A2082F863009DF886
:104030000B0082F865009DF80A0082F866009DF882
:10404000090082F867009DF8080082F868009DF872
:10405000190082F86A009DF8180082F86B000120B0
:1040600082F85000022082F85200C2F88C30012001
:1040700004B030BC704700207047D0F87423D26978
:1040800000780A2801D00020704701EB810000EB86
:10409000C10002EB800090F8910008B10020704749
:1040A000012070472DE9F8430446089F8846D4F85C
:1040B0007403C56994F81E0300280CD020780A28E0
:1040C00009D108EB880000EBC80005EB800090F8F0
:1040D0009010012902D00220BDE8F883072129733E
:1040E00080F89010A5F8FA80414620460097FFF727
:1040F00077FFD4F8B86341462046FFF757FD4FF0ED
:104100000109012811D140F271204743D4F8B803C6
:10411000801BB0EB071F0DD894F81E0350B1414629
:104120002046FFF743FD0128F0D085F80C900020D1
:10413000BDE8F88385F80C900220BDE8F88330B51F
:1041400083B0DDF818C0089D079CCDF800C002952B
:104150000194FFF727F803B0002030BD2DE9F843A4
:104160000546884600260878287048786870887860
:10417000CB7800EB03206880087928714879687152
:104180008879A871C879E871087A2872092A3CD917
:104190000920009032E069464046FEF773FD8046F4
:1041A00098F80100042829D106EB860000EBC60030
:1041B00005EB400707F10A094146484600F063F85D
:1041C000002410E069464046FEF75CFD804698F802
:1041D0000100052807D107EBC4001430414600F068
:1041E00042F8601C44B299F80400A04204DD6888DB
:1041F000BDF800108842E5D8701C46B2022E04DAE1
:104200006888BDF800108842C5D8BDE8F8830B78EF
:1042100003704B7843708B7891F803C003EB0C2349
:1042200043800B7903714B7943718B798371CB791F
:10423000C371082A16D90A7A4B7A02EB032202814B
:104240008A7ACB7A02EB032242810A7B4B7B02EB18
:10425000032282818A7B8273CA7BC2730A7C0274C6
:10426000497C417470470A7802704A7842708A78B3
:104270008270CA78C2700A794B7902EB032282807D
:104280008979817170470A7802704A7842708A7819
:104290008270CA78C2700A7902714A7942718A7949
:1042A0008271CA79C271097A017270474378032B0F
:1042B00015D10378A3F1020C944500DC9A1E92B24A
:1042C000831C0020002A08D913F800C081F800C020
:1042D000491C801C80B29042F6D3002008707047C1
:1042E00030B585B0044602200490002021780B29C7
:1042F00080F0B880DFE801F006B613AAB643935405
:104300005E68A30094F81E03002845D001202070A9
:10431000C820FEF750FC2046FEF765FFA2E06420AF
:10432000FEF749FC2046FEF7EDFE84F81D0305204C
:10433000207000212046FEF795FB60718021204609
:10434000FEF790FB2071A27994F81D3300250292AC
:1043500001950093014694F81C3380222046FFF714
:10436000EEFEA07994F81D1302900195009194F847
:104370001C33617900222046FFF7E1FE72E02046FF
:10438000FEF7A7FD00286DD184F81F0394F83103D0
:10439000012802D00720207064E00820207061E02E
:1043A000D4F8C423002A5DD001212046904708207C
:1043B000207057E094F83713204600F080F800286A
:1043C00050D1092020704DE0D4F87813002949D04D
:1043D0000021C4F8741394F8412304EB8001D1F850
:1043E00070130B79934201D1C4F87413401CC0B20E
:1043F0000028F2D0D4F8740370B181682046884751
:1044000010B10C2020702DE006202070D4F8C423B9
:1044100003212046904725E00C20207022E0D4F8AC
:10442000740348B101692046884704909DF8100044
:1044300008B90A20207015E00C20207012E0D4F892
:10444000740378B14169204688470BE02046FBF7AA
:1044500004FFD4F8740328B1C168204688470020BF
:10446000C4F8740305B0002030BD002200290AD032
:10447000D0F878330BB1022206E00123C0F878337C
:10448000C0F8701300E0022210467047002290F836
:1044900036338B4202D980F81F1300E00222104607
:1044A00070478278012A06D10022027405234374E2
:1044B00041828282C28200221146FEF737BB827897
:1044C000012A06D1002202740923437441828282A8
:1044D000C28200221146FEF729BB10B504462046D1
:1044E000FEF7ABFE01212046FEF700FE002010BDC6
:1044F000012908D00648022906D0042903D005293D
:1045000001D1022101707047012101707047000044
:10451000000000200020704730B58DB01546012402
:10452000002909D0012909D0022912D003291CD061
:1045300004240DB0204630BD0024FAE701466A4647
:104540001048FFF781F80028F3D101982860002473
:10455000EFE701466A460B48FFF776F80028E8D1F6
:10456000BDF8080028600024E3E701466A460548D4
:10457000FFF76AF80028DCD1BDF8080028600024A5
:10458000D7E70000640000202DE9F0438FB081469A
:104590000E4617461C46002516F0030F17D04FF0A5
:1045A000010806E006EB44204FF400721949FBF7BE
:1045B00007FE641E13D33A19164B49461648CDF828
:1045C0000080FFF752FB0546002DEBD007E0334695
:1045D0003A46494610480094FFF747FB054685B127
:1045E00002AA49460C48FFF72FF89DF81500042849
:1045F0000BD0282809D03A2807D001200FB0BDE8F9
:10460000F0830FB00020BDE8F08303200FB0BDE8B9
:10461000F0830000C41B00206400002010B50124BA
:1046200001460348FFF729FD00B10024204610BDD4
:10463000640000202DE9F0418EB080460D461646FC
:10464000002015F0030F15D05C1E1AD3012705EBCF
:1046500044214FF400721B48FBF7B2FD3219194B8D
:10466000414619480097FFF71DFD022809D0641E36
:10467000EDD206E000932B46324641461248FFF742
:1046800011FD90B101AA41460F48FEF7DDFF9DF8EC
:104690001100042811D027280BD028280DD03A2843
:1046A0000BD001200EB0BDE8F0810EB00020BDE8B7
:1046B000F08102200EB0BDE8F08103200EB0BDE80D
:1046C000F0810000C41B0020640000200FB410B56E
:1046D0000446089801280DD0E06840F04000E060F2
:1046E000204600F02DF84FF48030A0630698012892
:1046F00019D020E0A06B20F48030A063E06820F0A7
:10470000400020F48400E060E06820F44010E060A5
:104710000F98012803D1E06840F48010E060204643
:1047200000F00EF8E2E7A06840F00600A060A06884
:1047300040F02000A060002010BC5DF814FB0000D9
:1047400000210D4A491C914201D903207047036999
:1047500013F0004FF6D00021036943F00103036119
:10476000491C914201D903207047036913F0010FDE
:10477000F6D1002070470000400D0300816821F051
:10478000010181600020704710B403460A464FF0D3
:10479000010C00210D4800EACC4040F0004003F538
:1047A000A06404EB4214206103F5A06000EB42100A
:1047B000016821F0804141F0004103F5A06000EB69
:1047C00042100160002010BC704700000000F81F7C
:1047D00081B0D0F840240092009A22F02E0200927C
:1047E000009A12F4805F06D1012904D1009A42F4A4
:1047F0008052C0F84024009A12F4805F05D021B99D
:10480000009921F48051C0F84014002001B0704795
:10481000816841F001018160002070470021102271
:104820000261064A491C914201D90320704703697D
:1048300013F0100FF6D1002070470000400D030068
:104840000022202343EA811101610649521C8A4259
:1048500001D903207047036913F0200FF6D100201F
:1048600070470000400D0300D0F8080480B2704784
:1048700081B0D0F8400400900098C0F3414001B0EE
:104880007047406900F0010070470246002302F5BE
:10489000A06000EB41100068C0F3814040B102F518
:1048A000A06000EB41100068C0F3814002284AD1AB
:1048B00002F5A06000EB4110006840F0804002F576
:1048C000A06C0CEB411CCCF80000D06A00F47F0017
:1048D00058BB02F5A06000EB4110006820F00040DA
:1048E00002F5A06C0CEB411CCCF8000002F5A060B6
:1048F00000EB4110006840F0004002F5A06C0CEBAA
:10490000411CCCF8000000BF581C0346B0F57A7F6C
:1049100000D909E002F5A06000EB4110006800F04A
:104920000040B0F1004FEFD057E002F5A06000EB7F
:104930004110006840F0004002F5A06C0CEB411CF7
:10494000CCF8000049E002F5A06000EB41100068DF
:1049500040F0804002F5A06C0CEB411CCCF800004C
:10496000D2F8100480B258BB02F5A06000EB4110F1
:10497000006820F0004002F5A06C0CEB411CCCF864
:10498000000002F5A06000EB4110006840F000401C
:1049900002F5A06C0CEB411CCCF8000000BF581CC9
:1049A0000346B0F57A7F00D909E002F5A06000EB7C
:1049B0004110006800F00040B0F1004FEFD00CE073
:1049C00002F5A06000EB4110006840F0004002F5E5
:1049D000A06C0CEB411CCCF80000002070472DE9C6
:1049E000F001059E079D069C4FF0FF3700EB411C30
:1049F000CCF80875002C06D0012C2AD0022C02D04D
:104A0000032C33D117E040F29D47CCF80C7512F01F
:104A1000800F06D0DCF80C7547F48077CCF80C7565
:104A200024E0B0F1A04F21D0DCF80C7547F060070E
:104A3000CCF80C751AE040F29D67CCF80C7512F0BA
:104A4000800F13D0DCF80C7547F48077CCF80C7528
:104A50000CE040F22527CCF80C7512F0800F05D041
:104A6000DCF80C7547F4C077CCF80C75D0F81874E6
:104A70004FF0010808FA01F13943C0F818148169B0
:104A800041F0007181614FF0FE5000EA83504FF415
:104A9000F04101EAC221084302F0800140EA01210D
:104AA000022E0FD0002041EA40404FF4402101EA9D
:104AB00084410843C5F30A010843CCF80005032CE0
:104AC00002D007E00120EEE7DCF8000540F00050DE
:104AD000CCF800050020BDE8F00170470146D1F890
:104AE000140480B2704700002DE9F84F05460C46CB
:104AF00090464FF0000BD94600264FF4807A0027ED
:104B0000B5F1A04F21D02079F8B9B8F1000F09D143
:104B10006079012806D161782846FFF735FE00202C
:104B2000BDE8F88FB8F1010F0FD1607805F5A061ED
:104B300001EB4010C06820F06001607805F5A062CC
:104B400002EB4010C16000206071206968B12189CA
:104B500020690844401EB0FBF1F086B2564505DDE1
:104B6000564620897043206100E00126E07810B1AC
:104B70002089704320612069C0F312003F4901EA97
:104B8000C6410843A17A4FF0C04202EA4171014395
:104B9000607805F5A06202EB40100161B8F1000FEA
:104BA00004D0607802EB4010E1684161D5F8080458
:104BB00000F0010080F0010B607805F5A06101EBC9
:104BC0004010006820F00051607805F5A06202EB0B
:104BD000401001606078114601EB4010006840EA27
:104BE0004B71607802EB401001606078114601EB78
:104BF0004010076827F0804747F00047607801EBD6
:104C000040100760B8F1000F36D1E078002833D1AA
:104C10002069002830D0E07930B1012813D0022873
:104C200003D003281DD10DE000BF2069C01CC0F3D4
:104C30008F09E86A80B2484503D2A86940F0200095
:104C4000A8610FE000BF2069C01CC0F38F09D5F830
:104C5000100480B2484503D2A86940F08060A86182
:104C600000E000BF00BF00200090208A83B262787D
:104C70002846E16800F0EDF9002051E70000F81F38
:104C80000FB470B504460025C4F8005EA06B20F494
:104C90008020A063A06B20F40020A063A06B40F4F0
:104CA0000010A0630798032809D1B4F1A04F06D0E3
:104CB000D4F8000440F00400C4F8000405E0D4F87F
:104CC000000420F00400C4F8000410212046FFF77F
:104CD000B7FD2046FFF7A2FD0020461E06990029D9
:104CE00009D904EB4011C1F80865C1F80C55401C06
:104CF00006998142F5D801212046FFF769FDC820B9
:104D0000FBF768FCA5616661B4F1A04F0AD04FF4CF
:104D1000007060620D48A0620D48C4F80001089858
:104D200040B10BE0802060620A48A0620A48C4F8E3
:104D30000001F4E7A06940F01000A061A0690749F4
:104D40000843A061002070BC5DF814FB0002000164
:104D50000003E00080006000E0004000080020A3A5
:104D6000F0B583B0002401222FA1304801F09CF857
:104D70002F4E707018B12FA000F084F9FEE70122C9
:104D800030A1334801F0C4F8707020B1014631A061
:104D900000F078F9FEE72E48D0F80C5232A02946F0
:104DA00000F070F9354F0297354901AB4FF40062BE
:104DB000A1F62C2001F0BAFA7070BDF8042014445A
:104DC00080B97AB12E49029801F0E0FF6420604377
:104DD000B0FBF5F12BA000F055F9029800F500604A
:104DE0000290E1E721462BA000F04CF9184800F0B2
:104DF000BDFE786800F07F40B0F1006F04D029A0BC
:104E000000F040F903B0F0BD2BA000F03BF9FDF736
:104E100083FA3248FCF742F83148FCF72FFE384657
:104E200001F0A2FF03B0F0BD303A00002C040020D6
:104E3000000000204D6F756E74206661696C6564BA
:104E40000D0A00007570646174612E62696E000065
:104E50005C0600204F70656E206661696C65643A7F
:104E600025640D0A0000000046696C652073697AAC
:104E7000653A2564427974650D0A00000000010856
:104E800088100020577269746525346425250D0A41
:104E900000000000546F74616C3A256442797465B7
:104EA0000D0A000055706772616465206661696C67
:104EB00065640D0A0000000055706772616465202A
:104EC000737563636573736564202C6A756D7020F8
:104ED000746F204170700D0A0000000088180020D7
:104EE000401B0020D0F8002422F00302C0F8002468
:104EF000D0F8002401F003031A43C0F8002401296C
:104F000002D0022905D008E04BF68031C0F8041425
:104F100003E041F27071C0F8041400207047416949
:104F2000806908407047844608460023D11C8908E0
:104F3000002909D90CF58052D2F800C0C0F800C091
:104F40005B1C001D8B42F7D3704738B50446D4F87C
:104F500040040090009820F02E000090009840F44B
:104F60008070C4F840040A20FBF734FB009820F45A
:104F70008070C4F84004002038BD10B5C26822F02B
:104F8000C042C260012901D029B108E0C16841F0E6
:104F90000051C16003E0C16841F08041C16032202E
:104FA000FBF718FB002010BDF0B506460027304681
:104FB000FFF7E4FB10213046FFF742FC3046FFF7D5
:104FC0002DFC002511E006F5A06000EB45100468FB
:104FD00044F0804424F0004424F4004406F5A0602A
:104FE00000EB45100460681CC5B20F2DEBDD0025F9
:104FF00023E006F5A06000EB4510046844F080440F
:1050000044F0004424F4004406F5A06000EB451091
:10501000046000BF781C0746B0F57A7F00D909E02C
:1050200006F5A06000EB4510006800F00040B0F10C
:10503000004FEFD000BF681CC5B20F2DD9DD4FF077
:10504000FF30C6F8140470613046FFF7E1FB002022
:10505000F0BD10B4019C4FF0000C002C0ED1DB1CF5
:105060009B08002B0AD900EB023000F580500A683B
:1050700002600CF1010C091D9C45F8D3002010BC06
:105080007047FEE70FB4054B10B503A9044A029818
:1050900000F018F810BC5DF814FB0000D56B000898
:1050A0005800002002E008C8121F08C1002AFAD1E7
:1050B00070477047002001E001C1121F002AFBD198
:1050C000704700002DE9FF4F8BB08846054600264B
:1050D00006E025280BD0DDE90D1290476D1C761CEB
:1050E00028780028F5D10FB03046BDE8F08F0024B5
:1050F000A146A2460122AE4900E0044315F8013F53
:10510000203B02FA03F00842F7D128782A2810D071
:105110006FF02F022878A0F13001092915D809EB8A
:10512000890102EB410144F0020400EB01096D1C0E
:10513000F0E758F8041B5FEA010903D544F4005472
:10514000C9F1000944F002046D1C28782E2817D1FB
:1051500015F8010F44F004042A280ED06FF02F0236
:105160002878A0F1300109290AD80AEB8A0102EB5C
:10517000410100EB010A6D1CF2E758F804AB6D1C0D
:1051800028786C280FD006DC4C2817D068280DD062
:105190006A2814D104E0742810D07A280FD10DE0C9
:1051A00044F400140AE044F4801401E044F4401490
:1051B0006978814202D104F580146D1C6D1C287839
:1051C000692865D006DC00288DD0632827D06428A4
:1051D00006D15DE06E2808D073282AD0752877D0D4
:1051E000DDE90D129047761CE0E0C4F3025002287E
:1051F00009D003280DD0D8F8001004280DD00E6077
:1052000008F10408D2E0D8F80010F217C1E90062F2
:10521000F6E7D8F800100E80F2E70E70F0E718F805
:10522000041B8DF8001000208DF80100EB460120D2
:1052300003E058F804BB4FF0FF3061074FF0000760
:1052400001D40AE07F1C57450DDA8742FADB1BF8D0
:1052500007100029F6D106E07F1C8742FCDB1BF813
:1052600007100029F8D1DDE90D23A9EB07008146DD
:10527000214600F0B1F83044C61904E0DDE90D1212
:105280001BF8010B90477F1EF8D22146484688E064
:1052900058F8040BC4F302514FF00A0B032900D154
:1052A00000B2042900D140B2002802DA40422D2188
:1052B00002E0210505D52B218DF82410012104E001
:1052C00006E0E10710D02021F6E708AF089113E0CF
:1052D00058F8040BC4F302514FF00A0B032900D114
:1052E00080B2042900D1C0B20021EEE75946FAF796
:1052F0008BFF303107F8011D0028F7D1ADEB070017
:1053000000F1200B600702D524F4803401E04FF057
:10531000010ADA4502DDAAEB0B0000E0002082461C
:1053200000EB0B0108980144A9EB01000A90E0038F
:1053300006D4DDE90D2321460A9800F04DF8064415
:105340004FF0000908E009A911F80900DDE90D1284
:10535000904709F10109761C08998945F3DBE003C0
:105360000CD5DDE90D2321460A9800F035F80644F6
:1053700004E0DDE90D1230209047761CBAF10001FF
:10538000AAF1010AF5DC05E0DDE90D1217F8010BC1
:105390009047761CBBF10001ABF1010BF4DC0A98DD
:1053A0002146DDE90D2300F005F806446D1C97E663
:1053B000092801002DE9F041044600251E46174644
:1053C000880404D405E039462020B0476D1C641ED3
:1053D000F9D52846BDE8F0812DE9F04104460025C5
:1053E0001E469046C80301D5302700E020278804D8
:1053F00004D505E041463846B0476D1C641EF9D51A
:105400002846BDE8F081000010B50446002084F86D
:105410000402401EC4F82C02204601F0F8FD08B139
:10542000032010BD94F8FE0194F8FF1140EA01201A
:10543000A0F52A41553901D0022010BD94F836005C
:1054400094F8391094F8372040EA016094F8381045
:10545000090441EA0221084320F07F410D488142BE
:1054600001D1002010BD94F8521094F8552094F802
:10547000533041EA026194F85420120442EA0322B4
:10548000114321F07F41814201D1002010BD012054
:1054900010BD00004641540000E0401C02780AB1F3
:1054A0008A42FAD10078704770B4002214461C4D2D
:1054B00002EB420355F823C0BCF1000F11D0D0F825
:1054C0000062B4450ED105EB8303D0F80862D3F82F
:1054D00004C0B44506D11B89B0F806C2634504D0A8
:1054E00000E00124521C022AE2D3022A01D0A1B911
:1054F00008E024B9022902D070BC1220704770BCA9
:105500000020704702EB420005EB80004089B0F5B7
:10551000807F02D070BC0020704770BC10207047A4
:10552000A01B002010B40021074B8C4601EB410268
:1055300053F82240844201D143F822C0491C022979
:10554000F4D310BC70470000A01B0020D0F8242228
:10555000121DD0F80002490A90F80202B1FBF0F0E7
:1055600052F8041B21B1884204D2116808447047E4
:1055700000207047401A121DF2E7891ED0F814224D
:10558000921E8A4201D800207047D0F8282290F855
:10559000020201FB002070472DE9F04105460F464D
:1055A000002F08D03946284601F04AFB02280BD2CA
:1055B0000120BDE8F081D5F80C621EB1D5F81402C7
:1055C000B04209D8012607E0B0F1FF3FF1D0D5F88D
:1055D00014128142EDD83E463446641CD5F81402BC
:1055E000A04205D80224022E02D20020BDE8F0819C
:1055F0002146284601F024FB48B1B0F1FF3FF5D029
:105600000128F3D0B442E8D10020BDE8F0816FF06A
:1056100070422146284601F016FD28B927B12246DE
:105620003946284601F00FFD28B1012814D0012485
:105630002046BDE8F081C5F80C42D5F81002B0F163
:10564000FF3FF5D0401EC5F8100295F8050240F066
:10565000010085F80502EBE74FF0FF34E8E70000B2
:105660002DE9F05F8B46DBF8007000E07F1C397895
:105670002F29FBD05C29F9D0D0F818A20B222021C9
:10568000504601F0BCFC00252E46A8464FF0080904
:10569000404608F101083C5C202C0BD92F2C09D086
:1056A0005C2C07D02E2C01D04E4516D3B9F1080F33
:1056B0000AD107E007EB0800CBF80000202C2DD81A
:1056C00004202CE02E2C02D00620BDE8F09F0826F6
:1056D0004FF00B09A806050EDAE7802C02D306204E
:1056E000BDE8F09F21461FA0FFF7D6FE10B10620AF
:1056F000BDE8F09FA4F14100192802D845F0020549
:1057000007E0A4F16100192803D845F001054130F4
:10571000C4B23046761C0AF80040B9E7002026B132
:105720009AF80010E52903D005E00620BDE8F09FB7
:1057300005218AF80010B9F1080F01D1A9060D0E54
:1057400005F00301012901D140F0100005F00C0122
:10575000042901D140F008008AF80B000020BDE8C0
:10576000F09F0000222A2B2C3A3B3C3D3E3F5B5DE4
:105770007C7F0000401E022813D20B4B00EB40013F
:1057800003EB81025089B0F5807F00D1002008B181
:10579000401E80B2508110B9002043F82100002043
:1057A0007047022070470000A01B002070B505461E
:1057B0000E460021284600F01DF9A0B90024D5F8B6
:1057C0001012D5F8000201F022FC60B9D5F81412CD
:1057D0000A78E52A0BD052B100240121284600F0B6
:1057E00034F80028EBD0042800D1072070BD641CD9
:1057F000B442F8D0F1E770B504460021204600F02D
:10580000F9F8002820D1D4F81012D4F8000201F0E1
:10581000FEFB0546BDB9D4F81402017821B1C17A66
:1058200011F0080F02D007E004250CE00B22D4F899
:10583000181201F0CFFB30B10021204600F005F82E
:105840000546002DDFD0284670BD2DE9F041044605
:105850000D46B4F80602471C3804000C06D0D4F8F4
:10586000100218B117F00F0F03D092E00420BDE82A
:10587000F081401CC4F81002D4F80C1241B1D4F8E5
:10588000000290F80222521E12EA171F09D080E08F
:10589000D4F80002B0F80802B8427AD80420BDE873
:1058A000F08101F0CDF90646012E02D80220BDE8B4
:1058B000F081B6F1FF3F1AD0D4F80002D0F81412EC
:1058C000B1425DD8B5B1D4F80C12FFF765FE0646BB
:1058D000300012D0012E13D0B6F1FF3F13D0D4F810
:1058E000000201F0FBFC88B10120BDE8F08101203D
:1058F000BDE8F0810420BDE8F0810720BDE8F0811B
:105900000220BDE8F0810120BDE8F0814FF4007273
:105910000021D4F8000201F072FB3146D4F80002F5
:10592000FFF72BFED4F80012C1F82C020025D4F8A2
:10593000000290F8020200281BD94FF00108D4F8A9
:10594000000280F80482D4F8000201F0C7FC10B114
:105950000120BDE8F081D4F80002D0F82C12491CD7
:10596000C0F82C126D1CD4F8000290F80202A84274
:10597000E5D8D4F80002D0F82C12491BC0F82C123C
:10598000C4F80C623146D4F80002FFF7F6FDC4F803
:105990001002A4F80672D4F8000207F00F0100EB21
:1059A0004110C4F814020020BDE8F08170B504462F
:1059B00001212046FFF7FAFE0546CDB9D4F81012B2
:1059C000D4F8000201F023FB05468DB92022002106
:1059D000D4F8140201F013FB0B22D4F81812D4F8F7
:1059E000140201F003FBD4F80012012081F8040234
:1059F000284670BD70B504460D46A4F80652D4F88A
:105A00000832012B05D0D4F80002D0F814129942C4
:105A100001D8022070BD2BB990F80012032901D1E2
:105A2000D0F82432BBB190F802020601B54220D36F
:105A30001946D4F8000201F003F90346B3F1FF3F21
:105A400012D0022B05D3D4F80002D0F814029842E9
:105A50000CD8022070BDB0F80812A94201D802206B
:105A600070BDD0F8240209E0012070BDAD1BB54225
:105A7000DED21946D4F80002FFF77FFDC4F80C32DD
:105A800068B100EB1510C4F81002D4F8000205F05C
:105A90000F0100EB4110C4F81402002070BD022079
:105AA00070BD000010B5002208490B5C002B0AD124
:105AB00001220A540A1801EB8000127A406801683A
:105AC000104688470246104610BD0000B81B002053
:105AD000054B03EB000C03EB80009CF808C040680A
